:020000040800F2
:1000000000000220252B00082929000831290008BA
:10001000392900084129000849290008000000008A
:10002000000000000000000000000000512900084E
:100030005F290008000000006D2900087B290008E6
:10004000752B0008752B0008752B0008752B000810
:10005000752B0008752B000887290008752B0008F0
:1000600095290008752B0008752B0008752B0008D2
:10007000752B0008752B0008752B0008752B0008E0
:10008000752B0008752B0008752B0008752B0008D0
:10009000752B0008752B0008752B0008752B0008C0
:1000A000752B0008752B0008752B0008752B0008B0
:1000B000752B0008752B0008752B0008752B0008A0
:1000C000752B0008752B0008752B0008752B000890
:1000D000752B0008752B0008752B0008752B000880
:1000E000752B0008752B0008752B0008752B000870
:1000F000752B0008752B0008752B0008752B000860
:10010000752B0008752B0008752B0008752B00084F
:10011000752B0008752B0008A5290008752B000811
:10012000752B0008752B0008752B0008752B00082F
:10013000752B0008752B0008752B0008752B00081F
:10014000752B0008752B0008752B0008752B00080F
:10015000752B0008752B0008752B0008752B0008FF
:10016000752B0008752B0008752B0008752B0008EF
:10017000752B0008752B0008752B00080000000087
:08018000752B0008752B000827
:1001900010B5054C237833B9044B13B10448AFF3C1
:1001A00000800123237010BDCC000020000000005F
:1001B000F871000808B5034B1BB103490348AFF3BE
:1001C000008008BD00000000D0000020F871000889
:1001D00001F0FF01102A2BDB10F0070F08D010F8F8
:1001E000013B013A8B422DD010F0070F42B3F6D1FC
:1001F000F0B441EA012141EA014122F007047FF015
:1002000000070023F0E80256083C85EA010586EA6B
:10021000010685FA47F5A3FA87F586FA47F6A5FAA7
:1002200087F68EB9EED1F0BC01F0FF0102F00702B3
:1002300032B110F8013B013A83EA010313B1F8D15E
:100240000020704701387047002D06BF354603383F
:10025000073815F0010F07D1013015F4807F02BF78
:10026000013015F4C03F0130F0BC0138704700BFC9
:1002700053B94AB9002908BF00281CBF4FF0FF310D
:100280004FF0FF3000F06AB9ADF1080C6DE904CE13
:1002900000F006F8DDF804E0DDE9022304B0704761
:1002A0002DE9F047089D0C46002B4ED194468C4515
:1002B0008646B2FA82F262D94AB1C2F12003914075
:1002C00020FA03F30CFA02FC194300FA02FE4FEA8B
:1002D0001C471FFA8CF6B1FBF7F44FEA1E4307FBED
:1002E000141143EA014304FB06F199420AD91CEBBD
:1002F000030304F1FF3080F01281994240F20F8134
:10030000023C6344591A1FFA8EF3B1FBF7F007FB66
:10031000101143EA014300FB06F69E420AD91CEB8A
:10032000030300F1FF3180F0FC809E4240F2F9802F
:10033000634402389B1B40EA044000211DB1D340B6
:100340000022C5E90032BDE8F0878B4205D90DB126
:10035000C5E9000100210846F5E7B3FA83F1002959
:1003600046D1A34202D39042C0F0F080861A64EBDB
:1003700003030120002DE6D0C5E90063E3E7002A6E
:1003800040F09080A1EB0C044FEA1C481FFA8CF758
:100390000121B4FBF8F64FEA1E4308FB164443EA7A
:1003A000044307FB06F0984208D91CEB030306F14F
:1003B000FF3402D2984200F2CD8026461C1A1FFA62
:1003C0008EF3B4FBF8F008FB104443EA044300FB4F
:1003D00007F79F4208D91CEB030300F1FF3402D258
:1003E0009F4200F2B0802046DB1B40EA0640A5E7B2
:1003F000C1F120068B4022FA06F71F4320FA06FCC3
:1004000004FA01F343EA0C03F44000FA01F8380C53
:100410004FEA1349B4FBF0FE1FFA87FC00FB1E44B1
:1004200049EA04440EFB0CF9A14502FA01F20AD98B
:100430003C190EF1FF3A80F08480A14540F28180A2
:10044000AEF1020E3C44A4EB09041FFA83F9B4FB9D
:10045000F0F300FB134449EA044403FB0CFCA445FD
:1004600007D93C1903F1FF3067D2A44565D9023B97
:100470003C4443EA0E40A0FB0293A4EB0C049C42D4
:10048000CE469C4651D34ED055B1B8EB0E0364EB2B
:100490000C0404FA06F6CB401E43CC40C5E90064C8
:1004A000002150E7C2F1200320FA03F10CFA02FC0C
:1004B00024FA03F394400C434FEA1C4800FA02FE6E
:1004C0001FFA8CF7B3FBF8F008FB1031230C43EA5A
:1004D000014300FB07F1994208D91CEB030300F12B
:1004E000FF362CD299422AD9023863445B1AA4B24F
:1004F000B3FBF8F108FB113344EA034401FB07F3B3
:10050000A34208D91CEB040401F1FF3613D2A34225
:1005100011D902396444E41A41EA004139E704463A
:10052000F0E6084606E7C845AED2B9EB020E63EB2B
:10053000070C0138A8E73146EDE7034699E7304656
:10054000D4E7D6467FE7634402384DE706462346A4
:1005500008460FE7023E634430E700BF704700BF24
:1005600080B582B000AF87ED010A97ED010A05F072
:10057000BDFCF0EE407AB0EE670A0837BD4680BD9C
:1005800090B58DB000AF0446084611461A46234682
:10059000FB800346BB800B467B8013463B803B8839
:1005A000002B01D1474B86E0FB8807EE903AF8EE2E
:1005B000676A3B8807EE903AB8EEE77AC6EE877A2C
:1005C000C7ED087ABB8807EE903AF8EE676A3B8879
:1005D00007EE903AB8EEE77AC6EE877AC7ED077A6B
:1005E0007B8807EE903AF8EE676A3B8807EE903A10
:1005F000B8EEE77AC6EE877AC7ED067A324BFB6231
:100600004FF00003BB6200237B6250E02F4A7B6AFD
:100610001B0113440433D3ED007A97ED087A77EE8B
:10062000677AC7ED057A294A7B6A1B0113440833B0
:10063000D3ED007A97ED077A77EE677AC7ED047A03
:10064000224A7B6A1B0113440C33D3ED007A97EDE9
:10065000067A77EE677AC7ED037AD7ED057A27EE4B
:10066000A77AD7ED047A67EEA77A37EE277AD7ED27
:10067000037A67EEA77A77EE277AB0EE670AFFF77C
:100680006FFF87ED020A97ED027AD7ED0B7AB4EE91
:10069000E77AF1EE10FA07D5BB68FB620B4A7B6A7A
:1006A0001B0113441B68BB627B6A01337B627B6A5C
:1006B000042BABDDBB6A07EE903AB0EE670A343725
:1006C000BD4690BD000080BF003C1C4600000020DD
:1006D00080B58EB002AFB54805F054FD02230093FB
:1006E00010234E22B249B34801F0D3FAB14801F0C9
:1006F000AAFB00220021AF4801F03BFBAE49AD4808
:1007000001F08AFB01220021AA4801F032FBAB492B
:10071000A84801F081FB4FF47A7002F09FFA0023A1
:10072000A74A3921A74800F083FE034683F001035E
:10073000DBB2002B0DD0A44805F024FD01220021DE
:100740009C4801F016FBA1499A4801F065FB00BFE7
:10075000FDE709219B4801F0E7F86421994801F081
:10076000C1F840F2E731974801F0CDF8002001F0E0
:10077000F3FD002001F016FE002001F039FE0020FC
:1007800001F05CFE002001F079FF914B1B68002214
:10079000DA63904B00221A70864801F054FB002265
:1007A0000021844801F0E5FA8B49824801F034FBCE
:1007B000012200217F4801F0DCFA88497D4801F0E0
:1007C0002BFB844B1B78032B07D0824B1B78052B0C
:1007D00003D0804B1B78092B09D17E4B1B78092B4A
:1007E00001D1142300E03223184601F063FF794B56
:1007F0001B780A2BE5D801A252F823F0290800083B
:10080000310A00089F0A00087F0B00088D0C0008C1
:10081000690D0008FF0D0008DD0F000855100008E5
:10082000DD1000088311000880216D4802F0E8FC0B
:100830000346002B0CBF01230023DBB2002B00F08A
:100840004585322002F00AFA02F0FCF9B8600DE0AA
:1008500002F0F8F90246BB68D31A40F6B832934268
:100860008CBF01230023DBB2002B0CD180215C481C
:1008700002F0C6FC0346002B0CBF01230023DBB2B1
:10088000002BE5D100E000BF02F0DCF90246BB68B6
:10089000D31A40F6B73293428CBF01230023DBB258
:1008A000002B40F01685002387F82F3002F0CAF99C
:1008B00078603EE080214A4802F0A2FC0346002B0B
:1008C0000CBF01230023DBB2002B32D0322002F018
:1008D000C5F98021424802F093FC0346002B0CBF6F
:1008E00001230023DBB2002B32D0012387F82F3005
:1008F00002F0A8F938600DE002F0A4F902463B6866
:10090000D31A40F6B83293428CBF01230023DBB2E6
:10091000002B0CD18021324802F072FC0346002BE0
:100920000CBF01230023DBB2002BE5D110E000BF98
:100930000EE002F087F902467B68D31A40F2F31208
:10094000934294BF01230023DBB2002BB2D100E01D
:1009500000BF97F82F30002B4ED0224B00221A7088
:10096000144801F070FA00220021124801F001FA47
:100970001D49104801F050FA012200210D4801F0F4
:10098000F8F91A490B4801F047FA194805F0FAFB43
:10099000012001F0E1FC02F055F90346154A13600D
:1009A0000C4B08221A7000F091BC00BF10720008B6
:1009B00074010020100100203C7200084C720008F5
:1009C000C8010020E8000020587200087C7200086E
:1009D0001C0200201C01002090720008A472000874
:1009E0000010024048010020B8720008C8720008D8
:1009F000D8720008200100208F4801F024FA00225C
:100A000000218D4801F0B5F98C498B4801F004FABA
:100A10008B4805F0B7FB012001F09EFC02F012F9B3
:100A20000346884A1360884B01221A7000F04EBCBE
:100A300002F008F90246834B1B68D31A41F2873251
:100A400093428CBF01230023DBB2002B00F04484CF
:100A5000002001F081FC01F017FD00220021764802
:100A600001F087F97949744801F0D6F90122002193
:100A7000714801F07EF976496F4801F0CDF975486B
:100A800005F080FB012001F0B3FC02F0DBF8034627
:100A9000714A13606C4B02221A7000F01DBC6F4B40
:100AA0001B78DBB21A466E4B1B689A4214BF0123B7
:100AB0000023DBB2002B16D0684B1B78DBB21A4642
:100AC000674B1A60654B1B78DBB21A46654966486E
:100AD00005F060FB01220021574801F04AF9624904
:100AE000554801F099F95D4B1B78DBB2042B8CBFA4
:100AF00001230023DBB2002B23D0594B4FF0FF32F0
:100B00001A60002001F074FC01F0BEFC4A4801F0BC
:100B10009AF900220021484801F02BF95349464830
:100B200001F07AF9524805F02DFB012001F0A6FDF5
:100B300002F088F80346434A1360434B03221A70BD
:100B4000CDE302F07FF80246434B1B68D31A44F60C
:100B5000206293428CBF01230023DBB2002B00F004
:100B6000BE833F4B4FF0FF321A60002001F040FC83
:100B7000404805F007FB344B07221A70AFE302F040
:100B800061F802462F4B1B68D31A3B4AA2FB032392
:100B90009B09FB60394B1B68FA689A4210D0374AB0
:100BA000FB681360FA6836492F4805F0F3FA012212
:100BB0000021214801F0DDF82B491F4801F02CF9F4
:100BC00002F040F802461F4B1B68D31A42F20F7224
:100BD00093428CBF01230023DBB2002B00F0828301
:100BE000264B40F2E7321A60002001F047FD124820
:100BF00001F029F9002200210F4801F0BAF821493B
:100C00000D4801F009F9012200210B4801F0B1F86B
:100C10000F49094801F000F91B4805F0B3FA01201B
:100C200001F00CFC02F00EF803460B4A1360064B71
:100C300004221A7056E300BF10010020047300085C
:100C400014730008200100201C01002038730008E4
:100C5000487300085C73000824010020AC020020E7
:100C6000500000207C7300082801002090730008C9
:100C7000A4730008D0730008D34D62105400002004
:100C8000F47300080474000814740008A44B1B7863
:100C9000DBB21A46A34B1B689A4214BF0123002300
:100CA000DBB2002B16D09E4B1B78DBB21A469D4B55
:100CB0001A609B4B1B78DBB21A469B499B4805F098
:100CC00069FA012200219A4801F053F8974998489F
:100CD00001F0A2F8924B1B78DBB2042B8CBF0123EE
:100CE0000023DBB2002B21D08E4B4FF0FF321A6075
:100CF000002001F0A3FB8E4801F0A5F8002200219E
:100D00008B4801F036F88B49894801F085F88A480C
:100D100005F038FA012001F0B1FC01F093FF034621
:100D2000864A1360864B05221A70DEE201F08AFFC4
:100D30000246844B1B68D31A44F6206293428CBF50
:100D400001230023DBB2002B00F0CF82754B4FF064
:100D5000FF321A60002001F071FB7B4805F012FAA7
:100D6000774B07221A70C0E201F06CFF0246734B0A
:100D70001B68D31A754AA2FB03239B093B61744B82
:100D80001B683A699A4210D0714A3B6913603A690C
:100D90007049664805F0FEF901220021644800F020
:100DA000E8FF6249624801F037F801F04BFF024664
:100DB000624B1B68D31A42F20F7293428CBF01231D
:100DC0000023DBB2002B00F09382614B40F2E7324C
:100DD0001A60002001F052FC554801F034F800225E
:100DE0000021534800F0C5FF5B49514801F014F859
:100DF0005A4805F0C7F9524B06221A7078E2584B50
:100E00001B685022DA63962001F028FF554800F055
:100E1000CCFB0346002B00F0B780514B1B6800222F
:100E2000DA6303214F4800F03CFB0346FB840721B3
:100E30004C4800F036FB0346BB840921494800F0CA
:100E400030FB03467B840A21464800F02AFB034618
:100E50003B843B8C7A8CB98CF88CFFF791FB87ED47
:100E6000070A334800F0EFFF00220021304800F06D
:100E700080FF3D492E4800F0CFFFD7ED077AF5EE11
:100E8000C07AF1EE10FA10D53849284805F082F9F9
:100E9000F98CBA8C788C3B8C00930346344805F06F
:100EA00009F9344805F06EF92FE0D7ED077AFDEE29
:100EB000E77A17EE903ABB61D7ED077A9FED2E7A6D
:100EC00067EE877AFDEEE77A17EE903A2B4A82FBBF
:100ED00003125111DA178A1A642101FB02F29B1ADC
:100EE0007B617B69BA692649104805F053F9F98C92
:100EF000BA8C788C3B8C009303461D4805F0DAF8D9
:100F00007A69B9691F4805F0D5F80122002108481F
:100F100000F02FFF0549064800F07EFF3FE000BFCC
:100F2000AD020020580000207C730008280100203A
:100F300010010020347400084874000820010020CB
:100F40001C0100202401002074740008D34D62109D
:100F50005C000020F473000898740008AC7400086A
:100F60001C020020E8000020D0740008E074000893
:100F7000F4740008247500080000C8421F85EB5176
:100F80004475000854750008B64B1B680022DA63EC
:100F9000B54800F058FFB549B34800F03DFF43F6AF
:100FA000982001F05BFEB04800F04DFF00220021C8
:100FB000AD4800F0DEFEAE49AB4800F02DFFAD4875
:100FC00005F0E0F8012001F0EDF901F03BFE0346E9
:100FD000A94A1360A94B07221A7098E101F032FE6A
:100FE0000246A54B1B68D31A40F6C31293428CBF2E
:100FF00001230023DBB2002B00F07D81002001F0F3
:10100000D1F901220021984800F0B3FE9C4996488E
:1010100000F002FF9B4805F0B5F84FF4FA6001F0CC
:101020001DFE914800F00FFF002200218E4800F0C5
:10103000A0FE95498C4800F0EFFE012200218A486D
:1010400000F097FE9149884800F0E6FE8B4B0022A5
:101050001A7050E101F0F6FD0246874B1B68D31A67
:1010600040F6B73293428CBF01230023DBB2002B42
:1010700000F04481002001F06FF9854B1B780133AB
:10108000DAB2834B1A70824B1B781A468149824828
:1010900005F080F800220021734800F06AFE7F49C5
:1010A000714800F0B9FE012200216F4800F061FE96
:1010B00079496D4800F0B0FE754B1B7819467848A9
:1010C00004F0F8FF012001F0D9FA01F0BBFD03465E
:1010D000694A1360694B09221A700FE101F0B2FDF1
:1010E0000246654B1B68D31A6E4AA2FB03239B0979
:1010F000BB626D4B1B68BA6A9A4210D06A4ABB6ADF
:101100001360BA6A6949644805F044F80122002175
:10111000554800F02EFE6049534800F07DFE01F076
:1011200091FD0246544B1B68D31A42F20F72934250
:101130008CBF01230023DBB2002B00F0E2805A4B6E
:1011400040F2E7321A60002001F098FA01220021F3
:10115000454800F00EFE5649434800F05DFE4C4BFA
:101160001B781946534804F0A5FF012001F01AF935
:1011700001F068FD0346404A1360404B0A221A7092
:10118000BFE001F05FFD02463B4B1B68D31A40F6FF
:101190009F7293428CBF01230023DBB2002B00F02F
:1011A000B380002001F0FEF8394B1B78012B24D8C6
:1011B000002200212C4800F0DCFD38492A4800F0CC
:1011C0002BFE01220021284800F0D3FD3A49264891
:1011D00000F022FE2E4B1B7801331946374804F0ED
:1011E00069FF012001F0B8F801F02CFD0346224A06
:1011F0001360224B08221A7086E01B4800F023FE81
:1012000000220021184800F0B4FD2D49164800F0D6
:1012100003FE01220021144800F0ABFD29491248C9
:1012200000F0FAFD284804F0ADFF4FF4FA6001F039
:1012300015FD0D4800F007FE002200210A4800F0CD
:1012400098FD1149084800F0E7FD012200210648F9
:1012500000F08FFD0D49044800F0DEFD074B002231
:101260001A7051E01C020020100100207475000863
:101270008475000894750008200100201C010020DE
:10128000B0750008C475000890720008A4720008C8
:1012900048010020E475000828010020B872000809
:1012A000F8750008D34D621060000020F473000848
:1012B000287600083C760008C872000864760008AA
:1012C0008C76000898760008A876000800BFFFF723
:1012D00078BA00BFFFF775BA00BFFFF772BA00BF58
:1012E000FFF76FBA00BFFFF76CBA00BFFFF769BA2C
:1012F00000BFFFF766BA00BFFFF763BA00BFFFF792
:1013000060BA00BFFFF75DBA00BFFFF75ABAFFF738
:1013100058BA00BF80B582B000AF786039607B6892
:10132000012B07D13B684FF6FF72934202D1094867
:1013300000F054F87B68002B07D13B684FF6FF7232
:10134000934202D1034800F063F800BF0837BD465E
:1013500080BD00BFE800002080B500AF4FF6FF71F0
:101360000120FFF7D7FF80BD80B500AF4FF6FF71BA
:101370000020FFF7CFFF80BD80B582B000AF78605E
:1013800039607B68012B07D13B684FF6FF729342AF
:1013900002D1094800F022F87B68002B07D13B6896
:1013A0004FF6FF72934202D1034800F031F800BFBC
:1013B0000837BD4680BD00BF4C01002080B500AF9E
:1013C0004FF6FF710120FFF7D7FF80BD80B500AF5A
:1013D0004FF6FF710020FFF7CFFF80BD80B483B0D0
:1013E00000AF7860094A7B681A607B6800221A7136
:1013F0007B6800229A607B6800221A737B6818461B
:101400000C37BD465DF8047B704700BFE0760008EE
:1014100080B483B000AF7860044A7B681A607B6850
:1014200018460C37BD465DF8047B7047E07600082F
:1014300080B584B000AFF8607A603B600B46FB7209
:10144000FB687A689A60FB7A5B00DAB2FB681A7311
:10145000FB681B681B683968F8689847034618469C
:101460001037BD4680BD80B582B000AF786039606E
:101470009221786800F08EFB034603F0FC03242BD6
:1014800014BF01230023DBB2002B01D0002304E0B2
:101490000121786800F0B7F8012318460837BD46E7
:1014A00080BD80B483B000AF78600B46FB70FB78E2
:1014B0007A6804335B001344DB8818460C37BD465A
:1014C0005DF8047B704780B584B000AF7860396008
:1014D0000121786800F078F80121786800F0B1F80F
:1014E0000021786800F029F80C233A689521786883
:1014F00000F0A3FA0346FB730021786800F064F85B
:101500000121786800F09DF80021786800F015F856
:10151000FB7B002B0CD03B6803F10C020C239521C4
:10152000786800F08AFA0346002B01D0012300E01E
:10153000002318461037BD4680BD80B584B000AF8B
:10154000786039603B68002B0DD102E0012001F08A
:1015500085FB786800F0DBF8034683F00103DBB21B
:10156000002BF3D11EE03B68002B1BD00023FB6057
:1015700005E0012001F072FBFB680133FB60786835
:1015800000F0C5F8034683F00103DBB2002B05D061
:10159000FA683B689A4201D2012300E00023002B45
:1015A000E7D100BF1037BD4680BD80B582B000AF27
:1015B00078607B680E3319467868FFF784FF03462E
:1015C00018460837BD4680BD80B582B000AF786050
:1015D0000B46FB700021786800F033F80221786830
:1015E00000F082F8FB78002B03D0786800F0A2F8B6
:1015F00002E0786800F00AF9786800F041F800BF6E
:101600000837BD4680BD80B584B000AF78600B461A
:10161000FB708021786800F0BDFA0346FB73FA780E
:10162000F97B0023786800F0E0F90346FB73FB7B4D
:101630001A468021786800F0B1F900BF1037BD4626
:1016400080BD80B584B000AF78600B46FB70802110
:10165000786800F09FFA0346FB73FA78F97B012360
:10166000786800F0C2F90346FB73FB7B1A468021C1
:10167000786800F093F9034618461037BD4680BDE0
:1016800080B586B000AF786004230122802178689D
:1016900000F015FA0346FB744FF47A73FB600023E5
:1016A0007B6105E0012001F0D9FA7B6901337B61A0
:1016B00004228021786800F0E8F90346002B05D069
:1016C0007A69FB689A4201DA012300E00023002BCB
:1016D000E8D17A69FB689A4201DB002300E0FB7CD9
:1016E00018461837BD4680BD80B584B002AF78601B
:1016F0000B46FB70FA78022300930323AF2178682E
:1017000000F005FA034618460837BD4680BD80B58F
:1017100082B000AF78600622A321786800F0B5F9A6
:101720000346002B14BF01230023DBB21846083701
:10173000BD4680BD80B582B000AF78603022002108
:10174000786800F02BF901220121786800F026F971
:1017500000220221786800F021F900220321786834
:1017600000F01CF900220421786800F017F94222E9
:101770000521786800F012F900220621786800F04F
:101780000DF900220721786800F008F9502208219D
:10179000786800F003F900220921786800F0FEF86B
:1017A00000220A21786800F0F9F800220B217868FD
:1017B00000F0F4F820220C21786800F0EFF8042201
:1017C0000D21786800F0EAF800220E21786800F018
:1017D000E5F830220F21786800F0E0F801221021AE
:1017E000786800F0DBF850221121786800F0D6F814
:1017F00000221221786800F0D1F8062213217868BF
:1018000000F0CCF800BF0837BD4680BD80B582B07F
:1018100000AF786000220021786800F0BFF8002255
:101820000121786800F0BAF800220221786800F0FF
:10183000B5F840220321786800F0B0F802220421B4
:10184000786800F0ABF800220521786800F0A6F86F
:1018500010220621786800F0A1F803220721786899
:1018600000F09CF850220821786800F097F81022C8
:101870000921786800F092F803220A21786800F0C4
:101880008DF800220B21786800F088F800220C21E6
:10189000786800F083F800220D21786800F07EF867
:1018A00024220E21786800F079F800220F21786850
:1018B00000F074F800221021786800F06FF85022D0
:1018C0001121786800F06AF800221221786800F08F
:1018D00065F806221321786800F060F800BF083729
:1018E000BD4680BD80B582B000AF78600B46FB700E
:1018F000FB781A468121786800F050F803461846B4
:101900000837BD4680BD80B582B000AF78600B4619
:101910007B80BA1C0223CA21786800F016F80346BF
:1019200018460837BD4680BD80B582B000AF7860EC
:101930000B46FB70FB781A46AA21786800F02EF857
:10194000034618460837BD4680BD80B588B004AF51
:10195000F8607A601A460B46FB7213463B81FB68BF
:101960009868FB681B7B1946FB7A9AB20A2302939C
:101970003B8901937B680093012301F0E7FE034656
:10198000002B0CBF01230023DBB2002B01D001236D
:1019900000E0002318461037BD4680BD80B586B0F4
:1019A00004AF78600B46FB701346BB707B68986889
:1019B0007B681B7B1946FB789AB20A2302930123AA
:1019C0000193BB1C0093012301F0C0FE0346002BD2
:1019D0000CBF01230023DBB2002B01D0012300E068
:1019E000002318460837BD4680BD80B485B000AFDF
:1019F0007860084611461A460346FB700B46BB70DA
:101A000013467B707B78012202FA03F3FB7397F98C
:101A10000F30DB435AB297F9033013405AB2B9780A
:101A20007B7801FA03F35BB213435BB2DBB2184677
:101A30001437BD465DF8047B704780B588B004AFAD
:101A4000F8607A601A460B467B8113463B81FB683F
:101A50009868FB681B7B19467A890A2302933B89A5
:101A600001937B680093012301F06AFF0346002B7A
:101A70000CBF01230023DBB2002B01D0012300E0C7
:101A8000002318461037BD4680BD80B582B000AF38
:101A900078600B467B8013467B707B88194678689C
:101AA00000F078F803461A467B7842FA03F3DBB27B
:101AB00003F00103DBB218460837BD4680BD80B590
:101AC00084B000AF7860084611461A4603467B8012
:101AD0000B467B7013463B707B881946786800F094
:101AE00059F80346FB737A783B78F97B7868FFF7FF
:101AF0007CFF0346FB737B88DBB2FA7B1946786870
:101B0000FFF74CFF034618461037BD4680BD80B531
:101B100084B000AF7860084611461A4603467B80C1
:101B20000B467B7013463B707B881946786800F043
:101B300031F80346FB733B7E012202FA03F3DBB26A
:101B4000013BBB737A78BB7B13407B70BA7B3B78DD
:101B500002FA03F3BB7397F90E30DB435AB297F9DD
:101B60000F3013405BB2FB737A783B7802FA03F3D1
:101B70005AB297F90F3013435BB2FB737B88DBB229
:101B8000FA7B19467868FFF709FF034618461037B5
:101B9000BD4680BD80B588B004AF78600B467B80C1
:101BA0007B6898687B681B7B19467A880A230293B6
:101BB0000123019307F10F030093012301F0C0FEFD
:101BC000FB7B18461037BD4680BD80B582B000AFA4
:101BD0000346FB80FB88184601F040F800BF083739
:101BE000BD4680BD80B586B002AF78600B46FB7005
:101BF0001346BB70FB7823F00F03FB73FB781B01CC
:101C0000BB737B68DB7A002B07D0FB7B43F00803B8
:101C1000FB73BB7B43F00803BB73BB78012B08D17C
:101C2000FB7B43F00103FB73BB7B43F00103BB73FE
:101C30000AE0BB78002B07D1FB7B23F00103FB7389
:101C4000BB7B23F00103BB73FB7B43F00403DBB2DC
:101C50003B720120FFF7B9FFFB7B7B72BB7B43F03C
:101C60000403DBB2BB720120FFF7AFFFBB7BFB724B
:101C70007B6818687B681B79194607F108024FF4E6
:101C80007A730093042301F063FC00BF1037BD4654
:101C900080BD80B584B000AFF860B96011461A46C7
:101CA0000B46FB711346BB71FB68BA681A60FB6890
:101CB000FA791A71FB68BA795A71FB683A7E9A719F
:101CC000FB6828229A72FB680622DA71FB680C22F4
:101CD0001A72FB6814225A72FB680822DA723220E8
:101CE000FFF773FF00223321F868FFF77BFF002224
:101CF0003321F868FFF776FF0520FFF766FF002223
:101D00003221F868FFF76EFF0520FFF75EFF002223
:101D10002021F868FFF766FF0520FFF756FFFB68F4
:101D2000DB7900221946F868FFF75CFFFB681B7A35
:101D300000221946F868FFF755FFFB685B7A00221E
:101D40001946F868FFF74EFFFB689B7A0022194698
:101D5000F868FFF747FF00220121F868FFF742FF0C
:101D600000220221F868FFF73DFF00BF1037BD4693
:101D700080BD80B584B000AF78600B46FB70134621
:101D8000BB700023FB737B685B79FA789A4203D3BC
:101D90007B685B79013BFB707B689B79BA789A42E0
:101DA00003D37B689B79013BBB70BB78002B02D1CE
:101DB000FB78FB7313E0BB78012B03D1FB78403336
:101DC000FB730CE0BB78022B03D1FB781433FB735D
:101DD00005E0BB78032B02D1FB785433FB73FB7B0C
:101DE00063F07F03DBB2002219467868FFF7FAFE42
:101DF00000BF1037BD4680BD80B582B000AF7860AF
:101E00000B46FB70FB78012219467868FFF7EAFE63
:101E100000BF0837BD4680BD80B582B000AF786096
:101E2000396007E03B685A1C3A601B7819467868AD
:101E3000FFF7E2FF3B681B78002BF3D100BF00BF28
:101E40000837BD4680BD80B582B000AF7860002203
:101E500001217868FFF7C6FE0520FFF7B6FE00BF38
:101E60000837BD4680BD000080B500AF00F084FE9D
:101E700000F01AF800F088F900F080F800F0ACF8F3
:101E800000F0D8F800F04AF9054803F055F80821A9
:101E9000044803F01BF9FEF71BFC00BFFDE700BF81
:101EA000640200201C02002080B594B000AF07F14E
:101EB000200330220021184604F064FA07F10C03D5
:101EC00000221A605A609A60DA601A610023BB60CF
:101ED000284B1B6C274A43F080531364254B1B6C23
:101EE00003F08053BB60BB6800237B60224B1B6800
:101EF000214A43F4804313601F4B1B6803F4804363
:101F00007B607B6802233B620123FB6210233B63FF
:101F10000223BB630023FB6308233B64A8237B6489
:101F20000223BB640423FB6407F12003184602F07C
:101F30006FFB0346002B01D000F008FA0F23FB6073
:101F400002233B6100237B614FF4A053BB614FF43C
:101F50008053FB6107F10C030521184602F0D0FD08
:101F60000346002B01D000F0F1F900BF5037BD4609
:101F700080BD00BF003802400070004080B500AF57
:101F8000124B134A1A60114B124A5A600F4B00222F
:101F90009A600E4B0022DA600C4B4FF480421A61BB
:101FA0000A4B00225A61094B00229A61074B00221A
:101FB000DA61064B00221A62044801F085F90346F3
:101FC000002B01D000F0C2F900BF80BD74010020D9
:101FD00000540040A086010080B500AF124B134AA8
:101FE0001A60114B124A5A600F4B00229A600E4B36
:101FF0000022DA600C4B4FF480421A610A4B002237
:102000005A61094B00229A61074B0022DA61064BA4
:1020100000221A62044801F057F90346002B01D050
:1020200000F094F900BF80BDC801002000580040B6
:10203000A086010080B58EB000AF07F12803002212
:102040001A605A609A60DA6007F1200300221A6071
:102050005A603B1D00221A605A609A60DA601A6169
:102060005A619A612C4B4FF080421A602A4B5322DE
:102070005A60294B00229A60274B6322DA60264B74
:1020800000221A61244B00229A61234802F004FFC7
:102090000346002B01D000F059F94FF48053BB6286
:1020A00007F1280319461C4803F08AFA0346002B5F
:1020B00001D000F04BF9184802F0AEFF0346002BA8
:1020C00001D000F043F900233B6200237B6207F15B
:1020D00020031946104803F079FE0346002B01D077
:1020E00000F034F960237B600023BB600023FB60B9
:1020F00000237B613B1D08221946074803F09EF927
:102100000346002B01D000F021F9034800F0D4FB76
:1021100000BF3837BD4680BD1C02002080B582B0AC
:1021200000AF3B4600221A605A60154B154A1A60F0
:10213000134B53225A60124B00229A60104B40F20C
:10214000E732DA600E4B00229A610D4802F0A4FEDD
:102150000346002B01D000F0F9F800233B60002378
:102160007B603B461946064803F030FE0346002BD1
:1021700001D000F0EBF800BF0837BD4680BD00BFBE
:10218000640200200010004080B58CB000AF07F161
:102190001C0300221A605A609A60DA601A610023F8
:1021A000BB615C4B1B6B5B4A43F080031363594B71
:1021B0001B6B03F08003BB61BB6900237B61554B44
:1021C0001B6B544A43F004031363524B1B6B03F025
:1021D00004037B617B6900233B614E4B1B6B4D4AC3
:1021E00043F0010313634B4B1B6B03F001033B6193
:1021F0003B690023FB60474B1B6B464A43F01003CF
:102200001363444B1B6B03F01003FB60FB6800235C
:10221000BB60404B1B6B3F4A43F0020313633D4BD3
:102220001B6B03F00203BB60BB6800237B60394B70
:102230001B6B384A43F008031363364B1B6B03F0E8
:1022400008037B607B6800224FF40061324800F095
:10225000EFFF00220121314800F0EAFF01227C213A
:102260002E4800F0E5FF0423FB614FF404133B62AA
:1022700001237B6207F11C031946274800F024FE66
:102280000123FB614FF404133B6201237B6207F1DE
:102290001C031946224800F017FE8023FB6100232F
:1022A0003B6201237B6207F11C0319461D4800F0C5
:1022B0000BFE4FF40063FB6101233B6200237B6252
:1022C0000023BB6207F11C031946134800F0FCFD14
:1022D0007D23FB6101233B6200237B620023BB6201
:1022E00007F11C0319460D4800F0EEFD0022002105
:1022F000062000F0B2FD062000F0CBFD00220021F8
:10230000082000F0AAFD082000F0C3FD00BF303710
:10231000BD4680BD0038024000080240000C02406B
:10232000000002400010024080B582B000AF78602B
:102330007B681B68044A934201D100F0B7F800BFE4
:102340000837BD4680BD00BF0010004080B400AF1C
:1023500072B600BF00BFFDE780B582B000AF034694
:10236000FB71FB79002B01D0012200E000220A4B17
:102370001A70FB7983F00103DBB2002B07D0074B07
:1023800000221A8000220821054800F051FF00BFFA
:102390000837BD4680BD00BFB0020020B602002055
:1023A000000C024080B582B000AF0346FB71FB79A0
:1023B000002B01D0012200E000220A4B1A70FB79A9
:1023C00083F00103DBB2002B07D0074B00221A80F9
:1023D00000224021054800F02BFF00BF0837BD4612
:1023E00080BD00BFB1020020B8020020000C0240F6
:1023F00080B582B000AF0346FB71FB79002B01D0A2
:10240000012200E000220A4B1A70FB7983F00103DD
:10241000DBB2002B07D0074B00221A8000221021CC
:10242000054800F005FF00BF0837BD4680BD00BF6E
:10243000AE020020B2020020000C024080B582B043
:1024400000AF0346FB71FB79002B01D0012200E0B5
:1024500000220A4B1A70FB7983F00103DBB2002BD8
:1024600007D0074B00221A8000222021054800F0E7
:10247000DFFE00BF0837BD4680BD00BFAF020020B1
:10248000B4020020000C024080B400AF054B0022D3
:102490001A70054B00221A7000BFBD465DF8047B20
:1024A000704700BFAC020020AD02002080B500AF35
:1024B000574B1B78DBB2002B14BF01230023DBB288
:1024C000002B21D0534B1B889BB201339AB2514B46
:1024D0001A80504B1B889BB2B3F5CA7F8CBF012377
:1024E0000023DBB2002B02D04A4B00221A80494B5A
:1024F0001B889BB2042B01D8012300E000231A465D
:102500001021454800F094FE444B1B78DBB2002BB1
:1025100014BF01230023DBB2002B21D0404B1B88CA
:102520009BB201339AB23E4B1A803D4B1B889BB243
:10253000B3F5CA7F8CBF01230023DBB2002B02D08E
:10254000374B00221A80364B1B889BB2042B01D8D4
:10255000012300E000231A4620212F4800F068FEE6
:10256000304B1B78DBB2002B14BF01230023DBB2FE
:10257000002B20D02C4B1B889BB201339AB22A4BE4
:102580001A80294B1B889BB2092B8CBF0123002387
:10259000DBB2002B02D0244B00221A80224B1B8876
:1025A0009BB2042B01D8012300E000231A46082126
:1025B000194800F03DFE1D4B1B78DBB2002B14BF09
:1025C00001230023DBB2002B20D0194B1B889BB2C8
:1025D00001339AB2164B1A80154B1B889BB2092BFC
:1025E0008CBF01230023DBB2002B02D0104B002252
:1025F0001A800F4B1B889BB2042B01D8012300E0EB
:1026000000231A464021044800F012FE00BF80BD9E
:10261000AE020020B2020020000C0240AF020020F7
:10262000B4020020B0020020B6020020B102002057
:10263000B802002080B483B000AF0346FB80FB8863
:10264000012B07D10B4B1B78DBB20133DAB2094BFC
:102650001A7009E0FB88042B06D1074B1B78DBB20C
:102660000133DAB2044B1A7000BF0C37BD465DF877
:10267000047B7047AC020020AD02002080B582B020
:1026800000AF0346FB71FB79002B01D0002300E073
:1026900001231A460421064800F0CAFD0122012147
:1026A000034800F0C5FD00BF0837BD4680BD00BF30
:1026B000000C024080B584B000AF78604FF4006138
:1026C0000C4800F0CEFD7A6813465B001344DB0033
:1026D000FB6000E000BFFB685A1EFA60002B14BFCD
:1026E00001230023DBB2002BF4D100BF00BF103761
:1026F000BD4680BD0008024080B483B000AF002317
:102700007B60104B5B6C0F4A43F4804353640D4B6A
:102710005B6C03F480437B607B6800233B60094B68
:102720001B6C084A43F080531364064B1B6C03F088
:1027300080533B603B6800BF0C37BD465DF8047BAF
:10274000704700BF0038024080B58CB000AF7860A1
:1027500007F11C0300221A605A609A60DA601A615D
:102760007B681B68324A93422CD10023BB61314BFA
:102770001B6B304A43F0020313632E4B1B6B03F0B9
:102780000203BB61BB69C023FB6112233B620023D0
:102790007B620323BB620423FB6207F11C0319461F
:1027A000254800F091FB00237B61224B1B6C214AE2
:1027B00043F4001313641F4B1B6C03F400137B6181
:1027C0007B6931E07B681B681C4A93422CD1002353
:1027D0003B61184B1B6B174A43F002031363154B05
:1027E0001B6B03F002033B613B694FF44063FB61E9
:1027F00012233B6200237B620323BB620423FB6240
:1028000007F11C0319460C4800F05EFB0023FB6037
:10281000084B1B6C074A43F480031364054B1B6C85
:1028200003F48003FB60FB6800BF3037BD4680BD0A
:1028300000540040003802400004024000580040AC
:1028400080B584B000AF78607B681B68B3F1804FBF
:102850000ED10023FB60164B1B6C154A43F001039D
:102860001364134B1B6C03F00103FB60FB681AE05D
:102870007B681B680F4A934215D10023BB600C4B49
:102880001B6C0B4A43F010031364094B1B6C03F0E1
:102890001003BB60BB6800220021362000F0DDFA87
:1028A000362000F0F6FA00BF1037BD4680BD00BFED
:1028B000003802400010004080B588B000AF78605A
:1028C00007F10C0300221A605A609A60DA601A61FC
:1028D0007B681B68B3F1804F1DD10023BB60104B98
:1028E0001B6B0F4A43F0010313630D4B1B6B03F08B
:1028F0000103BB60BB680423FB6002233B61002330
:102900007B610023BB610123FB6107F10C031946C6
:10291000044800F0D9FA00BF2037BD4680BD00BF93
:10292000003802400000024080B400AF00BFFDE765
:1029300080B400AF00BFFDE780B400AF00BFFDE78B
:1029400080B400AF00BFFDE780B400AF00BFFDE77B
:1029500080B400AF00BFBD465DF8047B704780B413
:1029600000AF00BFBD465DF8047B704780B400AF88
:1029700000BFBD465DF8047B704780B500AF00F036
:102980004DF900BF80BD80B500AF012000F084FC90
:1029900000BF80BD80B500AF042000F07DFC00BF0B
:1029A00080BD000080B500AF024802F057FC00BFB8
:1029B00080BD00BF6402002080B586B000AFF86023
:1029C000B9607A6000237B610AE0AFF300800146C2
:1029D000BB685A1CBA60CAB21A707B6901337B614A
:1029E0007A697B689A42F0DB7B6818461837BD46E7
:1029F00080BD80B586B000AFF860B9607A60002312
:102A00007B6109E0BB685A1CBA601B781846AFF3BB
:102A100000807B6901337B617A697B689A42F1DBD4
:102A20007B6818461837BD4680BD80B483B000AFC0
:102A300078604FF0FF3318460C37BD465DF8047BD5
:102A4000704780B483B000AF786039603B684FF462
:102A500000525A60002318460C37BD465DF8047BCF
:102A6000704780B483B000AF7860012318460C37FC
:102A7000BD465DF8047B704780B485B000AFF86058
:102A8000B9607A60002318461437BD465DF8047BB0
:102A90007047000080B586B000AF7860144A154BCF
:102AA000D31A7B617B693B61134B1B68002B02D1FE
:102AB000114B124A1A60104B1A687B6813443A692A
:102AC0009A4207D203F0ACFC03460C221A604FF086
:102AD000FF3309E0084B1B68FB60074B1A687B68F3
:102AE0001344054A1360FB6818461837BD4680BD7D
:102AF0000000022000040000BC020020100400209E
:102B000080B400AF064BD3F88830054A43F4700315
:102B1000C2F8883000BFBD465DF8047B704700BF37
:102B200000ED00E0DFF834D0FFF7EAFF0C480D4974
:102B30000D4A002302E0D458C4500433C4188C4218
:102B4000F9D30A4A0A4C002301E013600432A2427E
:102B5000FBD303F06BFCFFF787F9704700000220FE
:102B600000000020CC00002050770008CC0000209E
:102B700010040020FEE7000080B500AF0E4B1B687C
:102B80000D4A43F4007313600B4B1B680A4A43F46D
:102B900080631360084B1B68074A43F4807313601B
:102BA000032000F04FF90F2000F008F8FFF7A4FD14
:102BB0000023184680BD00BF003C024080B582B0B3
:102BC00000AF7860124B1A68124B1B7819464FF40D
:102BD0007A73B3FBF1F3B2FBF3F3184600F067F935
:102BE0000346002B01D001230EE07B680F2B0AD88F
:102BF000002279684FF0FF3000F02FF9064A7B6819
:102C00001360002300E0012318460837BD4680BD4D
:102C1000640000206C0000206800002080B400AF39
:102C2000064B1B781A46064B1B681344044A136074
:102C300000BFBD465DF8047B704700BF6C000020FC
:102C4000C002002080B400AF034B1B681846BD468D
:102C50005DF8047B704700BFC002002080B584B0DF
:102C600000AF7860FFF7EEFFB8607B68FB60FB6841
:102C7000B3F1FF3F05D00A4B1B781A46FB6813449B
:102C8000FB6000BFFFF7DEFF0246BB68D31AFA689D
:102C90009A42F7D800BF00BF1037BD4680BD00BFC5
:102CA0006C00002080B485B000AF78607B6803F0D2
:102CB0000703FB600C4BDB68BB60BA684FF6FF0391
:102CC0001340BB60FB681A02BB68134343F0BF6349
:102CD00043F40033BB60044ABB68D36000BF1437C1
:102CE000BD465DF8047B704700ED00E080B400AFA6
:102CF000044BDB681B0A03F007031846BD465DF86A
:102D0000047B704700ED00E080B483B000AF034661
:102D1000FB7197F90730002B0BDBFB7903F01F02E7
:102D2000074997F907305B09012000FA02F241F8E0
:102D3000232000BF0C37BD465DF8047B704700BF01
:102D400000E100E080B483B000AF03463960FB715E
:102D500097F90730002B0ADB3B68DAB20C4997F988
:102D600007301201D2B20B4483F800230AE03B681B
:102D7000DAB20849FB7903F00F03043B1201D2B227
:102D80000B441A7600BF0C37BD465DF8047B7047D4
:102D900000E100E000ED00E080B489B000AFF86031
:102DA000B9607A60FB6803F00703FB61FB69C3F15C
:102DB0000703042B28BF0423BB61FB690433062BE4
:102DC00002D9FB69033B00E000237B614FF0FF3237
:102DD000BB6902FA03F3DA43BB681A407B699A4085
:102DE0004FF0FF317B6901FA03F3D9437B680B4055
:102DF000134318462437BD465DF8047B7047000036
:102E000080B582B000AF78607B68013BB3F1807F12
:102E100001D301230FE00A4A7B68013B53600F2175
:102E20004FF0FF30FFF78EFF054B00229A60044BF6
:102E300007221A60002318460837BD4680BD00BF30
:102E400010E000E080B582B000AF78607868FFF7EE
:102E500029FF00BF0837BD4680BD80B586B000AFF2
:102E60000346B9607A60FB7300237B61FFF73EFF86
:102E700078617A68B9687869FFF78EFF024697F93A
:102E80000F3011461846FFF75DFF00BF1837BD46EB
:102E900080BD80B582B000AF0346FB7197F9073063
:102EA0001846FFF731FF00BF0837BD4680BD80B52B
:102EB00082B000AF78607868FFF7A2FF034618463B
:102EC0000837BD4680BD000080B489B000AF78608F
:102ED000396000237B6100233B610023BB61002339
:102EE000FB616BE10122FB6902FA03F37B613B6842
:102EF0001B687A6913403B613A697B699A4240F0EA
:102F00005A813B685B6803F00303012B05D03B68E3
:102F10005B6803F00303022B30D17B689B68BB61C5
:102F2000FB695B00032202FA03F3DB43BA69134037
:102F3000BB613B68DA68FB695B0002FA03F3BA69BC
:102F40001343BB617B68BA699A607B685B68BB614D
:102F50000122FB6902FA03F3DB43BA691340BB6148
:102F60003B685B681B0903F00102FB6902FA03F38B
:102F7000BA691343BB617B68BA695A603B685B6896
:102F800003F00303032B17D07B68DB68BB61FB698D
:102F90005B00032202FA03F3DB43BA691340BB610F
:102FA0003B689A68FB695B0002FA03F3BA69134352
:102FB000BB617B68BA69DA603B685B6803F0030356
:102FC000022B23D1FB69DA087B68083253F82230E0
:102FD000BB61FB6903F007039B000F2202FA03F3B6
:102FE000DB43BA691340BB613B681A69FB6903F0B4
:102FF00007039B0002FA03F3BA691343BB61FB6941
:10300000DA087B680832B96943F822107B681B68CC
:10301000BB61FB695B00032202FA03F3DB43BA697D
:103020001340BB613B685B6803F00302FB695B0014
:1030300002FA03F3BA691343BB617B68BA691A6089
:103040003B685B6803F44033002B00F0B48000233E
:10305000FB60604B5B6C5F4A43F4804353645D4BA1
:103060005B6C03F48043FB60FB685B4AFB699B0875
:10307000023352F82330BB61FB6903F003039B006A
:103080000F2202FA03F3DB43BA691340BB617B688A
:10309000524A93422BD07B68514A934225D07B6899
:1030A000504A93421FD07B684F4A934219D07B68A5
:1030B0004E4A934213D07B684D4A93420DD07B68B1
:1030C0004C4A934207D07B684B4A934201D1072375
:1030D0000EE008230CE006230AE0052308E00423A1
:1030E00006E0032304E0022302E0012300E00023C2
:1030F000FA6902F0030292009340BA691343BB617C
:103100003549FB699B080233BA6941F823203B4BE0
:103110009B68BB613B69DB43BA691340BB613B6899
:103120005B6803F48013002B03D0BA693B69134337
:10313000BB61324ABB699360304BDB68BB613B6962
:10314000DB43BA691340BB613B685B6803F400135F
:10315000002B03D0BA693B691343BB61274ABB69A3
:10316000D360264B5B68BB613B69DB43BA691340A4
:10317000BB613B685B6803F40033002B03D0BA6982
:103180003B691343BB611D4ABB6953601B4B1B6802
:10319000BB613B69DB43BA691340BB613B685B6859
:1031A00003F48033002B03D0BA693B691343BB613E
:1031B000124ABB691360FB690133FB61FB690F2B8A
:1031C0007FF690AE00BF00BF2437BD465DF8047B9C
:1031D000704700BF00380240003801400000024044
:1031E0000004024000080240000C024000100240AF
:1031F0000014024000180240001C0240003C014044
:1032000080B485B000AF78600B467B807B681A691C
:103210007B881340002B02D00123FB7301E00023C5
:10322000FB73FB7B18461437BD465DF8047B704783
:1032300080B483B000AF78600B467B8013467B7010
:103240007B78002B03D07A887B689A6103E07B88C7
:103250001A047B689A6100BF0C37BD465DF8047B99
:10326000704780B485B000AF78600B467B807B6888
:103270005B69FB607A88FB6813401A04FB68D943DA
:103280007B880B401A437B689A6100BF1437BD46A8
:103290005DF8047B7047000080B582B000AF034644
:1032A000FB80084B5A69FB881340002B06D0054A67
:1032B000FB885361FB881846FFF7BCF900BF08374D
:1032C000BD4680BD003C014080B584B000AF786051
:1032D0007B68002B01D101232BE17B6893F83D3003
:1032E000DBB2002B06D17B68002283F83C20786893
:1032F000FFF72AFA7B68242283F83D207B681B684D
:103300001A687B681B6822F001021A607B681B68E0
:103310001A687B681B6842F400421A607B681B686D
:103320001A687B681B6822F400421A6001F0A0FD55
:10333000F8607B685B68814A934207D8FB68804AE3
:10334000934294BF01230023DBB206E0FB687D4A71
:10335000934294BF01230023DBB2002B01D0012351
:10336000E7E0FB68784AA2FB03239B0CBB607B6809
:103370001B685B6823F03F017B681B68BA680A43DF
:103380005A607B681B681B6A23F03F017B685B689F
:103390006A4A934202D8BB68013309E0BB684FF424
:1033A000967202FB03F3694AA2FB03239B090133D4
:1033B0007A6812680B4313627B681B68DB6923F42D
:1033C0004F4222F0FF027B685B685C498B4219D850
:1033D000FB68591E7B685B685B00B1FBF3F3591C0B
:1033E00040F6FC730B40002B0AD0FB68591E7B682B
:1033F0005B685B00B1FBF3F30133C3F30B0351E0F4
:1034000004234FE07B689B68002B11D1FB68581E9A
:103410007B6859680B465B000B44B0FBF3F3013348
:10342000C3F30B03002B0CBF01230023DBB212E01C
:10343000FB68581E7B6859680B469B000B4499003B
:103440000B44B0FBF3F30133C3F30B03002B0CBFAE
:1034500001230023DBB2002B01D0012322E07B6893
:103460009B68002B0ED1FB68581E7B6859680B4681
:103470005B000B44B0FBF3F30133C3F30B0343F4E2
:1034800000430FE0FB68581E7B6859680B469B00A1
:103490000B4499000B44B0FBF3F30133C3F30B036C
:1034A00043F44043796809681343CB617B681B6828
:1034B0001B6823F0C0017B68DA697B681B6A1A43CA
:1034C0007B681B680A431A607B681B689B6823F44F
:1034D000034323F0FF037A6811697A68D2681143C5
:1034E0007A6812680B4393607B681B68DB6823F083
:1034F000FF017B685A697B689B691A437B681B687C
:103500000A43DA607B681B681A687B681B6842F0B4
:1035100001021A607B6800221A647B68202283F80B
:103520003D207B6800221A637B68002283F83E20DE
:10353000002318461037BD4680BD00BFA08601009D
:103540007F841E00FF083D0083DE1B43D34D6210C5
:1035500080B588B002AFF8607A601A460B467B816E
:1035600013463B81FFF76EFB7861FB6893F83D30B3
:10357000DBB2202B40F0E0807B690093192301220D
:103580007049F86800F00EFE0346002B01D00223BC
:10359000D3E0FB6893F83C30012B01D10223CCE04F
:1035A000FB68012283F83C20FB681B681B6803F062
:1035B0000103012B07D0FB681B681A68FB681B68B6
:1035C00042F001021A60FB681B681A68FB681B68FE
:1035D00022F400621A60FB68212283F83D20FB6818
:1035E000102283F83E20FB6800221A64FB687A6888
:1035F0005A62FB683A895A85FB685B8D9AB2FB6810
:103600001A85FB68504ADA6279897B693A6AF868F8
:1036100000F0C8FB0346002B01D001238DE00023FE
:103620003B61FB681B685B693B61FB681B689B69CE
:103630003B613B6966E07A69396AF86800F0CCFE64
:103640000346002B0DD0FB681B6C042B07D1FB68D5
:103650001B681A68FB681B6842F400721A60012339
:103660006BE0FB685B6A1A78FB681B681A61FB6891
:103670005B6A5A1CFB685A62FB685B8D9BB2013B1C
:103680009AB2FB685A85FB681B8D013B9AB2FB68B6
:103690001A85FB681B685B6903F00403042B1BD1CC
:1036A000FB681B8D002B17D0FB685B6A1A78FB68E0
:1036B0001B681A61FB685B6A5A1CFB685A62FB68EC
:1036C0005B8D9BB2013B9AB2FB685A85FB681B8DF0
:1036D000013B9AB2FB681A857A69396AF86800F08A
:1036E000C3FE0346002B0DD0FB681B6C042B07D1D7
:1036F000FB681B681A68FB681B6842F400721A605A
:1037000001231AE0FB681B8D002B94D1FB681B681A
:103710001A68FB681B6842F400721A60FB6820227A
:1037200083F83D20FB68002283F83E20FB680022DE
:1037300083F83C20002300E0022318461837BD46DA
:1037400080BD00BF020010000000FFFF80B588B000
:1037500002AFF860084611461A4603467B810B46C5
:103760003B811346FB80FFF76DFA7861FB6893F8A5
:103770003D30DBB2202B40F0D9807B6900931923C8
:1037800001226D49F86800F00DFD0346002B01D0C1
:103790000223CCE0FB6893F83C30012B01D10223DB
:1037A000C5E0FB68012283F83C20FB681B681B68AE
:1037B00003F00103012B07D0FB681B681A68FB6844
:1037C0001B6842F001021A60FB681B681A68FB68FC
:1037D0001B6822F400621A60FB68212283F83D20F6
:1037E000FB68402283F83E20FB6800221A64FB68D5
:1037F0003A6A5A62FB68BA8C5A85FB685B8D9AB24A
:10380000FB681A85FB684D4ADA62F8883A8979893B
:103810007B690193BB6A00930346F86800F044FBA0
:103820000346002B52D0012381E07A69B96AF86817
:1038300000F0D2FD0346002B0DD0FB681B6C042B5F
:1038400007D1FB681B681A68FB681B6842F40072AA
:103850001A6001236BE0FB685B6A1A78FB681B68DF
:103860001A61FB685B6A5A1CFB685A62FB681B8D15
:10387000013B9AB2FB681A85FB685B8D9BB2013BEA
:103880009AB2FB685A85FB681B685B6903F0040306
:10389000042B1BD1FB681B8D002B17D0FB685B6AC8
:1038A0001A78FB681B681A61FB685B6A5A1CFB6824
:1038B0005A62FB681B8D013B9AB2FB681A85FB6854
:1038C0005B8D9BB2013B9AB2FB685A85FB681B8DEE
:1038D000002BAAD17A69B96AF86800F0C5FD0346E1
:1038E000002B0DD0FB681B6C042B07D1FB681B68F9
:1038F0001A68FB681B6842F400721A60012316E024
:10390000FB681B681A68FB681B6842F400721A6047
:10391000FB68202283F83D20FB68002283F83E20CC
:10392000FB68002283F83C20002300E002231846B5
:103930001837BD4680BD00BF020010000000FFFF29
:1039400080B58CB002AFF860084611461A460346AF
:103950007B810B463B811346FB80FFF773F978624E
:10396000FB6893F83D30DBB2202B40F014827B6A79
:103970000093192301227B49F86800F013FC0346E9
:10398000002B01D0022307E2FB6893F83C30012BA7
:1039900001D1022300E2FB68012283F83C20FB688E
:1039A0001B681B6803F00103012B07D0FB681B6831
:1039B0001A68FB681B6842F001021A60FB681B680A
:1039C0001A68FB681B6822F400621A60FB682222F6
:1039D00083F83D20FB68402283F83E20FB680022EC
:1039E0001A64FB683A6B5A62FB68BA8E5A85FB68A8
:1039F0005B8D9AB2FB681A85FB685B4ADA62F888CD
:103A00003A8979897B6A0193BB6B00930346F86816
:103A100000F0E0FA0346002B01D00123BCE1FB6873
:103A20001B8D002B13D100233B62FB681B685B6975
:103A30003B62FB681B689B693B623B6AFB681B68D7
:103A40001A68FB681B6842F400721A6090E1FB6818
:103A50001B8D012B1BD1FB681B681A68FB681B6858
:103A600022F480621A600023FB61FB681B685B69BB
:103A7000FB61FB681B689B69FB61FB69FB681B685A
:103A80001A68FB681B6842F400721A6070E1FB68F8
:103A90001B8D022B1BD1FB681B681A68FB681B6817
:103AA00022F480621A60FB681B681A68FB681B6856
:103AB00042F400621A600023BB61FB681B685B690B
:103AC000BB61FB681B689B69BB61BB6950E100235C
:103AD0007B61FB681B685B697B61FB681B689B699A
:103AE0007B617B6944E1FB681B8D032B00F2F18055
:103AF000FB681B8D012B23D17A6AB96BF86800F043
:103B0000FBFC0346002B01D0012345E1FB681B6849
:103B10001A69FB685B6AD2B21A70FB685B6A5A1C4E
:103B2000FB685A62FB681B8D013B9AB2FB681A85E1
:103B3000FB685B8D9BB2013B9AB2FB685A8517E12B
:103B4000FB681B8D022B4ED17B6A0093BB6B00225E
:103B50000649F86800F026FB0346002B08D0012335
:103B60001AE100BF020010000000FFFF0400010086
:103B7000FB681B681A68FB681B6842F400721A60D5
:103B8000FB681B681A69FB685B6AD2B21A70FB6833
:103B90005B6A5A1CFB685A62FB681B8D013B9AB238
:103BA000FB681A85FB685B8D9BB2013B9AB2FB6890
:103BB0005A85FB681B681A69FB685B6AD2B21A7087
:103BC000FB685B6A5A1CFB685A62FB681B8D013BF1
:103BD0009AB2FB681A85FB685B8D9BB2013B9AB277
:103BE000FB685A85C4E07B6A0093BB6B00226C497A
:103BF000F86800F0D7FA0346002B01D00123CBE090
:103C0000FB681B681A68FB681B6822F480621A60F4
:103C1000FB681B681A69FB685B6AD2B21A70FB68A2
:103C20005B6A5A1CFB685A62FB681B8D013B9AB2A7
:103C3000FB681A85FB685B8D9BB2013B9AB2FB68FF
:103C40005A857B6A0093BB6B00225549F86800F0E7
:103C5000A9FA0346002B01D001239DE0FB681B68F5
:103C60001A68FB681B6842F400721A60FB681B68E4
:103C70001A69FB685B6AD2B21A70FB685B6A5A1CED
:103C8000FB685A62FB681B8D013B9AB2FB681A8580
:103C9000FB685B8D9BB2013B9AB2FB685A85FB685F
:103CA0001B681A69FB685B6AD2B21A70FB685B6AB0
:103CB0005A1CFB685A62FB681B8D013B9AB2FB6879
:103CC0001A85FB685B8D9BB2013B9AB2FB685A85F3
:103CD0004EE07A6AB96BF86800F00EFC0346002BE0
:103CE00001D0012358E0FB681B681A69FB685B6A16
:103CF000D2B21A70FB685B6A5A1CFB685A62FB6896
:103D00001B8D013B9AB2FB681A85FB685B8D9BB2E9
:103D1000013B9AB2FB685A85FB681B685B6903F03C
:103D20000403042B24D1FB681B8D032B07D1FB68F4
:103D30001B681A68FB681B6822F480621A60FB68C3
:103D40001B681A69FB685B6AD2B21A70FB685B6A0F
:103D50005A1CFB685A62FB681B8D013B9AB2FB68D8
:103D60001A85FB685B8D9BB2013B9AB2FB685A8552
:103D7000FB681B8D002B7FF4B6AEFB68202283F816
:103D80003D20FB68002283F83E20FB68002283F878
:103D90003C20002300E0022318462837BD4680BDA2
:103DA0000400010080B588B002AFF8607A603B6023
:103DB0000B467B81FB68DB6A7B617B69082B06D045
:103DC0007B69012B03D07B6913F5803F08D1FB6829
:103DD0001B681A68FB681B6842F480721A600BE06B
:103DE000FB681B6B122B07D1FB681B681A68FB680A
:103DF0001B6842F480721A603B6800937B68002263
:103E00004FF00111F86800F0CDF90346002B0DD0FA
:103E1000FB681B681B6803F48073B3F5807F03D1D4
:103E2000FB684FF400721A64032335E0FB681B69DA
:103E3000B3F5804F08D17B89DBB21A46FB681B685B
:103E400002F0FE021A611BE07B89DB11DBB203F09A
:103E50000603DBB263F00F03DAB2FB681B681A617A
:103E60003B687A680E49F86800F016FA0346002BA2
:103E700001D0012310E07B89DAB2FB681B681A616C
:103E80003B687A680749F86800F006FA0346002B99
:103E900001D0012300E0002318461837BD4680BD3D
:103EA000080001000200010080B588B002AFF86090
:103EB000084611461A4603467B810B463B81134652
:103EC000FB80FB681B681A68FB681B6842F4807201
:103ED0001A607B6A00933B6A00224FF00111F86878
:103EE00000F060F90346002B0DD0FB681B681B68CF
:103EF00003F48073B3F5807F03D1FB684FF4007245
:103F00001A6403235FE07B89DBB21A46FB681B68F7
:103F100002F0FE021A617B6A3A6A2D49F86800F0E5
:103F2000BBF90346002B01D001234CE000237B6149
:103F3000FB681B685B697B61FB681B689B697B6135
:103F40007B697A6A396AF86800F046FA0346002B02
:103F50000DD0FB681B6C042B07D1FB681B681A682B
:103F6000FB681B6842F400721A6001232BE0FB8897
:103F7000012B05D13B89DAB2FB681B681A6121E08D
:103F80003B891B0A9BB2DAB2FB681B681A617A6A2A
:103F9000396AF86800F020FA0346002B0DD0FB6860
:103FA0001B6C042B07D1FB681B681A68FB681B6835
:103FB00042F400721A60012305E03B89DAB2FB6823
:103FC0001B681A61002318461837BD4680BD00BF24
:103FD0000200010080B588B002AFF86008461146C3
:103FE0001A4603467B810B463B811346FB80FB68E8
:103FF0001B681A68FB681B6842F480621A60FB68E1
:104000001B681A68FB681B6842F480721A607B6A3E
:1040100000933B6A00224FF00111F86800F0C2F8EB
:104020000346002B0DD0FB681B681B6803F48073EC
:10403000B3F5807F03D1FB684FF400721A64032349
:10404000AAE07B89DBB21A46FB681B6802F0FE021D
:104050001A617B6A3A6A5249F86800F01DF9034612
:10406000002B01D0012397E000237B61FB681B68D4
:104070005B697B61FB681B689B697B617B697A6A12
:10408000396AF86800F0A8F90346002B0DD0FB68E8
:104090001B6C042B07D1FB681B681A68FB681B6844
:1040A00042F400721A60012376E0FB88012B05D1EF
:1040B0003B89DAB2FB681B681A6121E03B891B0A65
:1040C0009BB2DAB2FB681B681A617A6A396AF868CF
:1040D00000F082F90346002B0DD0FB681B6C042B0B
:1040E00007D1FB681B681A68FB681B6842F4007202
:1040F0001A60012350E03B89DAB2FB681B681A6141
:104100007A6A396AF86800F067F90346002B0DD027
:10411000FB681B6C042B07D1FB681B681A68FB68E3
:104120001B6842F400721A60012335E0FB681B68CB
:104130001A68FB681B6842F480721A607B6A0093FD
:104140003B6A00224FF00111F86800F02BF803469B
:10415000002B0DD0FB681B681B6803F48073B3F55C
:10416000807F03D1FB684FF400721A64032313E0CD
:104170007B89DBB243F00103DAB2FB681B681A618A
:104180007B6A3A6A0649F86800F086F80346002B15
:1041900001D0012300E0002318461837BD4680BD3A
:1041A0000200010080B584B000AFF860B9603B60E8
:1041B0001346FB7148E03B68B3F1FF3F44D0FEF784
:1041C00041FD0246BB69D31A3A689A4202D33B6862
:1041D000002B39D1BB681B0CDBB2012B0DD1FB6866
:1041E0001B685B69DA43BB6813409BB2002B0CBFB2
:1041F00001230023DBB21A460CE0FB681B689B69B5
:10420000DA43BB6813409BB2002B0CBF0123002391
:10421000DBB21A46FB799A4216D1FB6800221A6378
:10422000FB68202283F83D20FB68002283F83E20B3
:10423000FB681B6C43F02002FB681A64FB680022D9
:1042400083F83C20012323E0BB681B0CDBB2012B6D
:104250000DD1FB681B685B69DA43BB6813409BB2F6
:10426000002B0CBF01230023DBB21A460CE0FB68D5
:104270001B689B69DA43BB6813409BB2002B0CBFE1
:1042800001230023DBB21A46FB799A4293D0002324
:1042900018461037BD4680BD80B584B000AFF860C9
:1042A000B9607A603B6071E0FB681B685B6903F48E
:1042B0008063B3F5806F23D1FB681B681A68FB68C5
:1042C0001B6842F400721A60FB681B686FF480621E
:1042D0005A61FB6800221A63FB68202283F83D20A4
:1042E000FB68002283F83E20FB681B6C43F004024D
:1042F000FB681A64FB68002283F83C20012367E016
:104300007B68B3F1FF3F41D0FEF79CFC02463B685F
:10431000D31A7A689A4202D37B68002B36D1BB68E5
:104320001B0CDBB2012B0CD1FB681B685B69DA4309
:10433000BB6813409BB2002B14BF01230023DBB2E8
:104340000BE0FB681B689B69DA43BB6813409BB2B8
:10435000002B14BF01230023DBB2002B16D0FB6817
:1043600000221A63FB68202283F83D20FB680022AC
:1043700083F83E20FB681B6C43F02002FB681A6444
:10438000FB68002283F83C20012321E0BB681B0C62
:10439000DBB2012B0CD1FB681B685B69DA43BB689D
:1043A00013409BB2002B14BF01230023DBB20BE0B0
:1043B000FB681B689B69DA43BB6813409BB2002B08
:1043C00014BF01230023DBB2002B7FF46DAF002369
:1043D00018461037BD4680BD80B584B000AFF86088
:1043E000B9607A6034E0F86800F0E3F80346002B27
:1043F00001D0012334E0BB68B3F1FF3F28D0FEF7C2
:1044000021FC02467B68D31ABA689A4202D3BB6881
:10441000002B1DD1FB681B685B6903F08003802BB8
:1044200016D0FB6800221A63FB68202283F83D2027
:10443000FB68002283F83E20FB681B6C43F02002DF
:10444000FB681A64FB68002283F83C20012307E024
:10445000FB681B685B6903F08003802BC3D10023DA
:1044600018461037BD4680BD80B584B000AFF860F7
:10447000B9607A6034E0F86800F09BF80346002BDE
:1044800001D0012334E0BB68B3F1FF3F28D0FEF731
:10449000D9FB02467B68D31ABA689A4202D3BB683A
:1044A000002B1DD1FB681B685B6903F00403042B20
:1044B00016D0FB6800221A63FB68202283F83D2097
:1044C000FB68002283F83E20FB681B6C43F020024F
:1044D000FB681A64FB68002283F83C20012307E094
:1044E000FB681B685B6903F00403042BC3D1002342
:1044F00018461037BD4680BD80B584B000AFF86067
:10450000B9607A6049E0FB681B685B6903F01003DF
:10451000102B19D1FB681B686FF010025A61FB6801
:1045200000221A63FB68202283F83D20FB680022EA
:1045300083F83E20FB681A6CFB681A64FB68002253
:1045400083F83C20012330E0FEF77CFB02467B68C9
:10455000D31ABA689A4202D3BB68002B1DD1FB68FC
:104560001B685B6903F04003402B16D0FB680022F8
:104570001A63FB68202283F83D20FB68002283F841
:104580003E20FB681B6C43F02002FB681A64FB684A
:10459000002283F83C20012307E0FB681B685B696D
:1045A00003F04003402BAED1002318461037BD4620
:1045B00080BD80B483B000AF78607B681B685B69A6
:1045C00003F48063B3F5806F1BD17B681B686FF4C5
:1045D00080625A617B6800221A637B68202283F81C
:1045E0003D207B68002283F83E207B681B6C43F0F3
:1045F00004027B681A647B68002283F83C20012354
:1046000000E0002318460C37BD465DF8047B704778
:1046100080B586B000AF78607B68002B01D10123A4
:1046200067E27B681B6803F00103002B75D0884BA1
:104630009B6803F00C03042B0CD0854B9B6803F0A4
:104640000C03082B12D1824B5B6803F48003B3F593
:10465000800F0BD17E4B1B6803F40033002B5BD023
:104660007B685B68002B57D1012342E27B685B6863
:10467000B3F5803F06D1764B1B68754A43F480330F
:1046800013601DE07B685B68B3F5A02F0CD1704B05
:104690001B686F4A43F4802313606D4B1B686C4AA0
:1046A00043F4803313600BE0694B1B68684A23F4C2
:1046B00080331360664B1B68654A23F480231360C4
:1046C0007B685B68002B13D0FEF7BCFA386108E00A
:1046D000FEF7B8FA02463B69D31A642B01D90323CB
:1046E00007E25B4B1B6803F40033002BF0D014E0AF
:1046F000FEF7A8FA386108E0FEF7A4FA02463B6923
:10470000D31A642B01D90323F3E1514B1B6803F443
:104710000033002BF0D100E000BF7B681B6803F082
:104720000203002B63D04A4B9B6803F00C03002B61
:104730000BD0474B9B6803F00C03082B1CD1444B58
:104740005B6803F48003002B16D1414B1B6803F018
:104750000203002B05D07B68DB68012B01D001230D
:10476000C7E13B4B1B6823F0F8027B681B69DB0049
:10477000374913430B603AE07B68DB68002B20D09D
:10478000344B01221A60FEF75DFA386108E0FEF74B
:1047900059FA02463B69D31A022B01D90323A8E137
:1047A0002B4B1B6803F00203002BF0D0284B1B6837
:1047B00023F0F8027B681B69DB00254913430B607B
:1047C00015E0244B00221A60FEF73CFA386108E03D
:1047D000FEF738FA02463B69D31A022B01D90323AC
:1047E00087E11B4B1B6803F00203002BF0D17B68B1
:1047F0001B6803F00803002B36D07B685B69002B35
:1048000016D0154B01221A60FEF71CFA386108E039
:10481000FEF718FA02463B69D31A022B01D903238B
:1048200067E10B4B5B6F03F00203002BF0D01BE042
:10483000094B00221A60FEF705FA38610EE0FEF718
:1048400001FA02463B69D31A022B07D9032350E130
:104850000038024000004742800E4742884B5B6FA1
:1048600003F00203002BEAD17B681B6803F004030A
:10487000002B00F097800023FB75814B1B6C03F02D
:104880008053002B0FD10023BB607D4B1B6C7C4AF7
:1048900043F0805313647A4B1B6C03F08053BB606E
:1048A000BB680123FB75774B1B6803F48073002BF7
:1048B00018D1744B1B68734A43F480731360FEF77E
:1048C000C1F9386108E0FEF7BDF902463B69D31A29
:1048D000022B01D903230CE16A4B1B6803F480739C
:1048E000002BF0D07B689B68012B06D1644B1B6FBB
:1048F000634A43F0010313671CE07B689B68052B48
:104900000CD15F4B1B6F5E4A43F0040313675C4B93
:104910001B6F5B4A43F0010313670BE0584B1B6F9F
:10492000574A23F001031367554B1B6F544A23F07A
:10493000040313677B689B68002B15D0FEF782F990
:1049400038610AE0FEF77EF902463B69D31A41F26C
:104950008832934201D90323CBE0494B1B6F03F00C
:104960000203002BEED014E0FEF76CF938610AE088
:10497000FEF768F902463B69D31A41F28832934246
:1049800001D90323B5E03E4B1B6F03F00203002B5C
:10499000EED1FB7D012B05D1394B1B6C384A23F03E
:1049A000805313647B689B69002B00F0A180344B1B
:1049B0009B6803F00C03082B5CD07B689B69022B7F
:1049C00041D1314B00221A60FEF73CF9386108E012
:1049D000FEF738F902463B69D31A022B01D90323AB
:1049E00087E0274B1B6803F00073002BF0D17B6836
:1049F000DA697B681B6A1A437B685B6A9B011A430E
:104A00007B689B6A5B08013B1B041A437B68DB6A7B
:104A10001B061B4913434B601B4B01221A60FEF718
:104A200011F9386108E0FEF70DF902463B69D31A27
:104A3000022B01D903235CE0114B1B6803F00073C8
:104A4000002BF0D054E0104B00221A60FEF7FAF869
:104A5000386108E0FEF7F6F802463B69D31A022BEC
:104A600001D9032345E0064B1B6803F00073002BBC
:104A7000F0D13DE07B689B69012B07D1012338E031
:104A80000038024000700040600047421B4B5B68EA
:104A9000FB607B689B69012B28D0FB6803F48002D4
:104AA0007B68DB699A4221D1FB6803F03F027B6897
:104AB0001B6A9A421AD1FA6847F6C07313407A68A3
:104AC000526A9201934211D1FB6803F440327B6831
:104AD0009B6A5B08013B1B049A4207D1FB6803F009
:104AE00070627B68DB6A1B069A4201D0012300E0FA
:104AF000002318461837BD4680BD00BF003802406D
:104B000080B584B000AF786039607B68002B01D13C
:104B10000123CCE0684B1B6803F007033A689A4214
:104B20000CD9654B3A68D2B21A70634B1B6803F01C
:104B300007033A689A4201D00123B8E07B681B68FA
:104B400003F00203002B20D07B681B6803F00403F2
:104B5000002B05D0594B9B68584A43F4E0539360AF
:104B60007B681B6803F00803002B05D0534B9B6840
:104B7000524A43F460439360504B9B6823F0F00229
:104B80007B689B684D4913438B607B681B6803F00F
:104B90000103002B44D07B685B68012B07D1474B96
:104BA0001B6803F40033002B19D101237FE07B68DD
:104BB0005B68022B03D07B685B68032B07D13F4BFC
:104BC0001B6803F00073002B09D101236FE03B4BFE
:104BD0001B6803F00203002B01D1012367E0374B70
:104BE0009B6823F003027B685B68344913438B6046
:104BF000FEF728F8F8600AE0FEF724F80246FB68A2
:104C0000D31A41F28832934201D903234FE02B4B50
:104C10009B6803F00C027B685B689B009A42EBD1B7
:104C2000254B1B6803F007033A689A420CD2224BCB
:104C30003A68D2B21A70204B1B6803F007033A6837
:104C40009A4201D0012332E07B681B6803F0040321
:104C5000002B08D0194B9B6823F4E0527B68DB687B
:104C6000164913438B607B681B6803F00803002B15
:104C700009D0124B9B6823F460427B681B69DB0000
:104C80000E4913438B6000F021F802460B4B9B68E2
:104C90001B0903F00F030A49CB5C22FA03F3094A0C
:104CA0001360094B1B681846FDF788FF0023184660
:104CB0001037BD4680BD00BF003C024000380240B6
:104CC000E476000864000020680000202DE9B04F61
:104CD00090B000AF00237B630023FB6300233B63A2
:104CE0000023BB63594B9B6803F00C03082B0DD0CA
:104CF000082B00F2A180002B02D0042B03D09BE0F4
:104D0000534BBB639BE0534BBB6398E04F4B5B68DB
:104D100003F03F037B634D4B5B6803F48003002B80
:104D200028D04A4B5B689B0900223B627A623B6A4F
:104D3000C3F308000021474B03FB01F2002300FBF3
:104D400003F31344434AA0FB0212FA620A46BA6212
:104D5000FA6A1344FB627B6B0022BB61FA61D7E9FC
:104D60000623D7E90A01FBF783FA02460B461346EE
:104D7000FB6353E0354B5B689B0900223B617A6122
:104D80003B69C3F3080A4FF0000B52465B464FF0F5
:104D900000004FF00001590141EAD2615001024682
:104DA0000B46B2EB0A0863EB0B094FF000024FF021
:104DB00000034FEA891343EA98634FEA8812B2EB83
:104DC000080463EB09054FF000024FF00003EB000D
:104DD00043EA5473E20014461D4614EB0A033B6099
:104DE00045EB0B037B604FF000024FF00003D7E967
:104DF000004529468B02214643EA915321468A0207
:104E0000104619467B6B0022BB60FA60D7E902238B
:104E1000FBF72EFA02460B461346FB630B4B5B680F
:104E20001B0C03F0030301335B003B63FA6B3B6B2A
:104E3000B2FBF3F3BB6302E0054BBB6300BFBB6B8C
:104E400018464037BD46BDE8B08F00BF003802406D
:104E50000024F40040787D0180B400AF034B1B6850
:104E60001846BD465DF8047B704700BF6400002013
:104E700080B500AFFFF7F0FF0246054B9B689B0A29
:104E800003F007030349CB5C22FA03F3184680BD05
:104E900000380240F476000880B582B000AF786038
:104EA0007B68002B01D1012341E07B6893F83D3002
:104EB000DBB2002B06D17B68002283F83C207868A7
:104EC000FDF7BEFC7B68022283F83D207B681A68F0
:104ED0007B6804331946104600F062FC7B680122AF
:104EE00083F846207B68012283F83E207B680122FC
:104EF00083F83F207B68012283F840207B680122F1
:104F000083F841207B68012283F842207B680122DC
:104F100083F843207B68012283F844207B680122C8
:104F200083F845207B68012283F83D200023184642
:104F30000837BD4680BD000080B485B000AF786002
:104F40007B6893F83D30DBB2012B01D001234EE0AA
:104F50007B68022283F83D207B681B68DA687B68E7
:104F60001B6842F00102DA607B681B68234A9342A7
:104F700022D07B681B68B3F1804F1DD07B681B6813
:104F80001F4A934218D07B681B681E4A934213D075
:104F90007B681B681C4A93420ED07B681B681B4AC7
:104FA000934209D07B681B68194A934204D07B68FE
:104FB0001B68184A934211D17B681B689B6803F0F9
:104FC0000703FB60FB68062B10D07B681B681A6820
:104FD0007B681B6842F001021A6007E07B681B686F
:104FE0001A687B681B6842F001021A6000231846A9
:104FF0001437BD465DF8047B704700BF00000140D8
:105000000004004000080040000C00400004014083
:10501000004001400018004080B582B000AF7860C9
:105020007B68002B01D1012341E07B6893F83D3080
:10503000DBB2002B06D17B68002283F83C20786825
:1050400000F039F87B68022283F83D207B681A68FB
:105050007B6804331946104600F0A2FB7B680122EE
:1050600083F846207B68012283F83E207B6801227A
:1050700083F83F207B68012283F840207B6801226F
:1050800083F841207B68012283F842207B6801225B
:1050900083F843207B68012283F844207B68012247
:1050A00083F845207B68012283F83D2000231846C1
:1050B0000837BD4680BD80B483B000AF786000BFC4
:1050C0000C37BD465DF8047B7047000080B584B0A6
:1050D00000AF786039603B68002B09D17B6893F89A
:1050E0003E30DBB2012B14BF01230023DBB222E0F0
:1050F0003B68042B09D17B6893F83F30DBB2012B6E
:1051000014BF01230023DBB215E03B68082B09D153
:105110007B6893F84030DBB2012B14BF01230023DE
:10512000DBB208E07B6893F84130DBB2012B14BF9F
:1051300001230023DBB2002B01D001237CE03B687C
:10514000002B04D17B68022283F83E2013E03B68E9
:10515000042B04D17B68022283F83F200BE03B68DC
:10516000082B04D17B68022283F8402003E07B688F
:10517000022283F841207B681B68012239681846A7
:1051800000F0FEFD7B681B682D4A934204D07B68CB
:105190001B682C4A934201D1012300E00023002B1D
:1051A00007D07B681B685A6C7B681B6842F400421E
:1051B0005A647B681B68224A934222D07B681B6832
:1051C000B3F1804F1DD07B681B681F4A934218D0F3
:1051D0007B681B681D4A934213D07B681B681C4A7E
:1051E00093420ED07B681B68164A934209D07B68B5
:1051F0001B68184A934204D07B681B68164A934286
:1052000011D17B681B689B6803F00703FB60FB6898
:10521000062B10D07B681B681A687B681B6842F0FD
:1052200001021A6007E07B681B681A687B681B68CC
:1052300042F001021A60002318461037BD4680BDB7
:10524000000001400004014000040040000800404C
:10525000000C0040004001400018004080B584B0C0
:1052600000AF78607B681B68DB68FB607B681B684D
:105270001B69BB60BB6803F00203002B20D0FB68F6
:1052800003F00203002B1BD07B681B686FF0020247
:105290001A617B6801221A777B681B689B6903F09F
:1052A0000303002B03D0786800F05BFA05E0786810
:1052B00000F04DFA786800F05EFA7B6800221A77F9
:1052C000BB6803F00403002B20D0FB6803F0040349
:1052D000002B1BD07B681B686FF004021A617B688F
:1052E00002221A777B681B689B6903F44073002BCA
:1052F00003D0786800F035FA05E0786800F027FA06
:10530000786800F038FA7B6800221A77BB6803F0EF
:105310000803002B20D0FB6803F00803002B1BD0F0
:105320007B681B686FF008021A617B6804221A7799
:105330007B681B68DB6903F00303002B03D07868EC
:1053400000F00FFA05E0786800F001FA786800F0E4
:1053500012FA7B6800221A77BB6803F01003002B57
:1053600020D0FB6803F01003002B1BD07B681B6868
:105370006FF010021A617B6808221A777B681B683D
:10538000DB6903F44073002B03D0786800F0E9F97F
:1053900005E0786800F0DBF9786800F0ECF97B68EC
:1053A00000221A77BB6803F00103002B0CD0FB68C6
:1053B00003F00103002B07D07B681B686FF001022C
:1053C0001A617868FCF7B0FFBB6803F08003002B1C
:1053D0000CD0FB6803F08003002B07D07B681B68B0
:1053E0006FF080021A61786800F076FDBB6803F008
:1053F0004003002B0CD0FB6803F04003002B07D0C8
:105400007B681B686FF040021A61786800F0BDF994
:10541000BB6803F02003002B0CD0FB6803F02003D3
:10542000002B07D07B681B686FF020021A61786838
:1054300000F048FD00BF1037BD4680BD80B586B086
:1054400000AFF860B9607A600023FB75FB6893F8E1
:105450003C30012B01D10223AEE0FB68012283F82E
:105460003C207B680C2B00F29F8001A252F823F0B5
:10547000A5540008A9550008A9550008A955000819
:10548000E5540008A9550008A9550008A9550008C9
:1054900027550008A9550008A9550008A955000876
:1054A00067550008FB681B68B968184600F01EFACB
:1054B000FB681B689A69FB681B6842F008029A61E6
:1054C000FB681B689A69FB681B6822F004029A61FA
:1054D000FB681B689969BB681A69FB681B680A430B
:1054E0009A6164E0FB681B68B968184600F06EFAC0
:1054F000FB681B689A69FB681B6842F400629A614A
:10550000FB681B689A69FB681B6822F480629A61D9
:10551000FB681B689969BB681B691A02FB681B68FA
:105520000A439A6143E0FB681B68B968184600F0BB
:10553000C3FAFB681B68DA69FB681B6842F0080263
:10554000DA61FB681B68DA69FB681B6822F00402F9
:10555000DA61FB681B68D969BB681A69FB681B685C
:105560000A43DA6123E0FB681B68B968184600F05B
:1055700017FBFB681B68DA69FB681B6842F4006272
:10558000DA61FB681B68DA69FB681B6822F48062D9
:10559000DA61FB681B68D969BB681B691A02FB6882
:1055A0001B680A43DA6102E00123FB7500BFFB6858
:1055B000002283F83C20FB7D18461837BD4680BD8D
:1055C00080B584B000AF786039600023FB737B68DE
:1055D00093F83C30012B01D10223B4E07B68012217
:1055E00083F83C207B68022283F83D207B681B689F
:1055F0009B68BB60BB6823F07703BB60BB6823F488
:105600007F43BB607B681B68BA689A603B681B6815
:10561000B3F5005F3ED0B3F5005F00F28780B3F5CD
:10562000805F00F08680B3F5805F7FD8702B1AD042
:10563000702B7BD8602B50D0602B77D8502B3CD070
:10564000502B73D8402B58D0402B6FD8302B64D0C0
:10565000302B6BD8202B60D0202B67D8002B5CD050
:10566000102B5AD062E07B6818683B6899683B68E9
:105670005A683B68DB6800F063FB7B681B689B68CB
:10568000BB60BB6843F07703BB607B681B68BA688C
:105690009A604FE07B6818683B6899683B685A6875
:1056A0003B68DB6800F04CFB7B681B689A687B6892
:1056B0001B6842F480429A603CE07B6818683B6853
:1056C00059683B68DB681A4600F0C0FA7B681B68C3
:1056D0005021184600F019FB2CE07B6818683B68E5
:1056E00059683B68DB681A4600F0DFFA7B681B6884
:1056F0006021184600F009FB1CE07B6818683B68D5
:1057000059683B68DB681A4600F0A0FA7B681B68A2
:105710004021184600F0F9FA0CE07B681A683B68F3
:105720001B681946104600F0F0FA03E00123FB73F2
:1057300000E000BF7B68012283F83D207B680022E7
:1057400083F83C20FB7B18461037BD4680BD80B4F3
:1057500083B000AF786000BF0C37BD465DF8047BB6
:10576000704780B483B000AF786000BF0C37BD468F
:105770005DF8047B704780B483B000AF786000BFF1
:105780000C37BD465DF8047B704780B483B000AF32
:10579000786000BF0C37BD465DF8047B70470000A1
:1057A00080B485B000AF786039607B681B68FB60AF
:1057B0007B68434A934213D07B68B3F1804F0FD08C
:1057C0007B68404A93420BD07B683F4A934207D0A4
:1057D0007B683E4A934203D07B683D4A934208D19E
:1057E000FB6823F07003FB603B685B68FA68134357
:1057F000FB607B68324A93422BD07B68B3F1804FC9
:1058000027D07B682F4A934223D07B682E4A93424D
:105810001FD07B682D4A93421BD07B682C4A934251
:1058200017D07B682B4A934213D07B682A4A934255
:105830000FD07B68294A93420BD07B68284A934259
:1058400007D07B68274A934203D07B68264A93425D
:1058500008D1FB6823F44073FB603B68DB68FA689F
:105860001343FB60FB6823F080023B685B691343D2
:10587000FB603B689A687B68DA623B681A687B6801
:105880009A627B680E4A934203D07B68104A934227
:1058900003D13B681A697B681A637B681B6843F015
:1058A00004027B681A607B6801225A617B68FA688F
:1058B0001A6000BF1437BD465DF8047B704700BF17
:1058C000000001400004004000080040000C0040BF
:1058D00000040140004001400044014000480140F4
:1058E00000180040001C00400020004080B487B039
:1058F00000AF786039607B681B6A7B617B681B6ADC
:1059000023F001027B681A627B685B683B617B68FD
:105910009B69FB60FB6823F07003FB60FB6823F06E
:105920000303FB603B681B68FA681343FB607B69F9
:1059300023F002037B613B689B687A6913437B61B8
:105940007B68204A934203D07B681F4A93420CD164
:105950007B6923F008037B613B68DB687A6913434A
:105960007B617B6923F004037B617B68154A93426A
:1059700003D07B68144A934211D13B6923F48073AE
:105980003B613B6923F400733B613B685B693A69A7
:1059900013433B613B689B693A6913433B617B68F6
:1059A0003A695A607B68FA689A613B685A687B6812
:1059B0005A637B687A691A6200BF1C37BD465DF87E
:1059C000047B7047000001400004014080B487B0B0
:1059D00000AF786039607B681B6A7B617B681B6AFB
:1059E00023F010027B681A627B685B683B617B680E
:1059F0009B69FB60FB6823F4E043FB60FB6823F4D6
:105A00004073FB603B681B681B02FA681343FB6032
:105A10007B6923F020037B613B689B681B017A69EB
:105A200013437B617B68224A934203D07B68214AFF
:105A300093420DD17B6923F080037B613B68DB6877
:105A40001B017A6913437B617B6923F040037B610F
:105A50007B68174A934203D07B68164A934213D15E
:105A60003B6923F480633B613B6923F400633B6142
:105A70003B685B699B003A6913433B613B689B69E8
:105A80009B003A6913433B617B683A695A607B68C3
:105A9000FA689A613B685A687B689A637B687A699E
:105AA0001A6200BF1C37BD465DF8047B704700BF1B
:105AB000000001400004014080B487B000AF78606E
:105AC00039607B681B6A7B617B681B6A23F4807288
:105AD0007B681A627B685B683B617B68DB69FB60A3
