:020000040800F2
:1000000000000220A9230008C5210008CD21000816
:10001000D5210008DD210008E521000800000000CE
:10002000000000000000000000000000ED210008BA
:10003000FB21000800000000092200081722000828
:10004000F9230008F9230008F9230008F923000820
:10005000F9230008F923000823220008F9230008E7
:1000600031220008F9230008F9230008F9230008C9
:10007000F9230008F9230008F9230008F9230008F0
:10008000F9230008F9230008F9230008F9230008E0
:10009000F9230008F9230008F9230008F9230008D0
:1000A000F9230008F9230008F9230008F9230008C0
:1000B000F9230008F9230008F9230008F9230008B0
:1000C000F9230008F9230008F9230008F9230008A0
:1000D000F9230008F9230008F9230008F923000890
:1000E000F9230008F9230008F9230008F923000880
:1000F000F9230008F9230008F9230008F923000870
:10010000F9230008F9230008F9230008F92300085F
:10011000F9230008F9230008F9230008F92300084F
:10012000F9230008F9230008F9230008F92300083F
:10013000F9230008F9230008F9230008F92300082F
:10014000F9230008F9230008F9230008F92300081F
:10015000F9230008F9230008F9230008F92300080F
:10016000F9230008F9230008F9230008F9230008FF
:10017000F9230008F9230008F92300080000000013
:08018000F9230008F92300082F
:1001900010B5054C237833B9044B13B10448AFF3C1
:1001A00000800123237010BDB80000200000000073
:1001B000285A000808B5034B1BB103490348AFF3A5
:1001C000008008BD00000000BC000020285A000884
:1001D00001F0FF01102A2BDB10F0070F08D010F8F8
:1001E000013B013A8B422DD010F0070F42B3F6D1FC
:1001F000F0B441EA012141EA014122F007047FF015
:1002000000070023F0E80256083C85EA010586EA6B
:10021000010685FA47F5A3FA87F586FA47F6A5FAA7
:1002200087F68EB9EED1F0BC01F0FF0102F00702B3
:1002300032B110F8013B013A83EA010313B1F8D15E
:100240000020704701387047002D06BF354603383F
:10025000073815F0010F07D1013015F4807F02BF78
:10026000013015F4C03F0130F0BC0138704700BFC9
:1002700081F0004102E000BF83F0004330B54FEA57
:1002800041044FEA430594EA050F08BF90EA020FC4
:100290001FBF54EA000C55EA020C7FEA645C7FEA57
:1002A000655C00F0E2804FEA5454D4EB5555B8BF7A
:1002B0006D420CDD2C4480EA020281EA030382EAEB
:1002C000000083EA010180EA020281EA0303362D7D
:1002D00088BF30BD11F0004F4FEA01314FF4801C50
:1002E0004CEA113102D0404261EB410113F0004F62
:1002F0004FEA03334CEA133302D0524263EB430319
:1003000094EA050F00F0A780A4F10104D5F1200EB6
:100310000DDB02FA0EFC22FA05F2801841F1000111
:1003200003FA0EF2801843FA05F359410EE0A5F1E5
:1003300020050EF1200E012A03FA0EFC28BF4CF016
:10034000020C43FA05F3C01851EBE37101F00045CC
:1003500007D54FF0000EDCF1000C7EEB00006EEBD9
:100360000101B1F5801F1BD3B1F5001F0CD3490863
:100370005FEA30004FEA3C0C04F101044FEA4452BA
:1003800012F5800F80F09A80BCF1004F08BF5FEA41
:10039000500C50F1000041EB045141EA050130BD21
:1003A0005FEA4C0C404141EB0101013C28BFB1F533
:1003B000801FE9D291F0000F04BF01460020B1FA7E
:1003C00081F308BF2033A3F10B03B3F120020CDA51
:1003D0000C3208DD02F1140CC2F10C0201FA0CF02F
:1003E00021FA02F10CE002F11402D8BFC2F1200C94
:1003F00001FA02F120FA0CFCDCBF41EA0C0190404A
:10040000E41AA2BF01EB0451294330BD6FEA040492
:100410001F3C1CDA0C340EDC04F11404C4F120027D
:1004200020FA04F001FA02F340EA030021FA04F38F
:1004300045EA030130BDC4F10C04C4F1200220FAE6
:1004400002F001FA04F340EA0300294630BD21FA24
:1004500004F0294630BD94F0000F83F4801306BFEA
:1004600081F480110134013D4EE77FEA645C18BFDE
:100470007FEA655C29D094EA050F08BF90EA020F75
:1004800005D054EA000C04BF1946104630BD91EA6D
:10049000030F1EBF0021002030BD5FEA545C05D170
:1004A0004000494128BF41F0004130BD14F58004AF
:1004B0003CBF01F5801130BD01F0004545F0FE4123
:1004C00041F470014FF0000030BD7FEA645C1ABF58
:1004D000194610467FEA655C1CBF0B46024650EA8F
:1004E000013406BF52EA033591EA030F41F40021BB
:1004F00030BD00BF90F0000F04BF0021704730B541
:100500004FF4806404F132044FF000054FF0000115
:1005100050E700BF90F0000F04BF0021704730B5D6
:100520004FF4806404F1320410F0004548BF4042AB
:100530004FF000013EE700BF42004FEAE2014FEA00
:1005400031014FEA02701FBF12F07F4393F07F4FDB
:1005500081F06051704732F07F4208BF704793F0DE
:100560007F4F04BF41F40021704730B54FF46074F1
:1005700001F0004521F000411CE700BF50EA0102F4
:1005800008BF704730B54FF000050AE050EA01029D
:1005900008BF704730B511F0004502D5404261EB0D
:1005A00041014FF4806404F132045FEA915C3FF44E
:1005B000D8AE4FF003025FEADC0C18BF03325FEAEB
:1005C000DC0C18BF033202EBDC02C2F1200300FA9C
:1005D00003FC20FA02F001FA03FE40EA0E0021FAC1
:1005E00002F11444BDE600BF53B94AB9002908BF5F
:1005F00000281CBF4FF0FF314FF0FF3000F06AB908
:10060000ADF1080C6DE904CE00F006F8DDF804E069
:10061000DDE9022304B070472DE9F047089D0C4640
:10062000002B4ED194468C458646B2FA82F262D9AE
:100630004AB1C2F12003914020FA03F30CFA02FC04
:10064000194300FA02FE4FEA1C471FFA8CF6B1FB71
:10065000F7F44FEA1E4307FB141143EA014304FB7E
:1006600006F199420AD91CEB030304F1FF3080F034
:100670001281994240F20F81023C6344591A1FFAD9
:100680008EF3B1FBF7F007FB101143EA014300FBC7
:1006900006F69E420AD91CEB030300F1FF3180F0FD
:1006A000FC809E4240F2F980634402389B1B40EA82
:1006B000044000211DB1D3400022C5E90032BDE84D
:1006C000F0878B4205D90DB1C5E90001002108462C
:1006D000F5E7B3FA83F1002946D1A34202D3904251
:1006E000C0F0F080861A64EB03030120002DE6D0F1
:1006F000C5E90063E3E7002A40F09080A1EB0C0419
:100700004FEA1C481FFA8CF70121B4FBF8F64FEAB8
:100710001E4308FB164443EA044307FB06F09842D5
:1007200008D91CEB030306F1FF3402D2984200F211
:10073000CD8026461C1A1FFA8EF3B4FBF8F008FB96
:10074000104443EA044300FB07F79F4208D91CEB1F
:10075000030300F1FF3402D29F4200F2B080204632
:10076000DB1B40EA0640A5E7C1F120068B4022FAD8
:1007700006F71F4320FA06FC04FA01F343EA0C03D0
:10078000F44000FA01F8380C4FEA1349B4FBF0FECC
:100790001FFA87FC00FB1E4449EA04440EFB0CF9D7
:1007A000A14502FA01F20AD93C190EF1FF3A80F094
:1007B0008480A14540F28180AEF1020E3C44A4EB5E
:1007C00009041FFA83F9B4FBF0F300FB134449EA70
:1007D000044403FB0CFCA44507D93C1903F1FF308A
:1007E00067D2A44565D9023B3C4443EA0E40A0FBD6
:1007F0000293A4EB0C049C42CE469C4651D34ED0AF
:1008000055B1B8EB0E0364EB0C0404FA06F6CB40CA
:100810001E43CC40C5E90064002150E7C2F120032B
:1008200020FA03F10CFA02FC24FA03F394400C437F
:100830004FEA1C4800FA02FE1FFA8CF7B3FBF8F0EF
:1008400008FB1031230C43EA014300FB07F19942F6
:1008500008D91CEB030300F1FF362CD299422AD9A8
:10086000023863445B1AA4B2B3FBF8F108FB1133FE
:1008700044EA034401FB07F3A34208D91CEB040438
:1008800001F1FF3613D2A34211D902396444E41AAC
:1008900041EA004139E70446F0E6084606E7C84564
:1008A000AED2B9EB020E63EB070C0138A8E7314674
:1008B000EDE7034699E73046D4E7D6467FE7634441
:1008C00002384DE70646234608460FE7023E6344DA
:1008D00030E700BF704700BF80B582B000AF87ED42
:1008E000010A97ED010A03F019FFF0EE407AB0EE2D
:1008F000670A0837BD4680BD90B58DB000AF04468D
:10090000084611461A462346FB800346BB800B4629
:100910007B8013463B803B88002B01D1474B86E010
:10092000FB8807EE903AF8EE676A3B8807EE903A4C
:10093000B8EEE77AC6EE877AC7ED087ABB8807EE8D
:10094000903AF8EE676A3B8807EE903AB8EEE77A9D
:10095000C6EE877AC7ED077A7B8807EE903AF8EE05
:10096000676A3B8807EE903AB8EEE77AC6EE877A78
:10097000C7ED067A324BFB624FF00003BB620023E7
:100980007B6250E02F4A7B6A1B0113440433D3ED92
:10099000007A97ED087A77EE677AC7ED057A294AEB
:1009A0007B6A1B0113440833D3ED007A97ED077A75
:1009B00077EE677AC7ED047A224A7B6A1B011344FB
:1009C0000C33D3ED007A97ED067A77EE677AC7EDB0
:1009D000037AD7ED057A27EEA77AD7ED047A67EE8A
:1009E000A77A37EE277AD7ED037A67EEA77A77EE04
:1009F000277AB0EE670AFFF76FFF87ED020A97EDDF
:100A0000027AD7ED0B7AB4EEE77AF1EE10FA07D559
:100A1000BB68FB620B4A7B6A1B0113441B68BB6209
:100A20007B6A01337B627B6A042BABDDBB6A07EE1A
:100A3000903AB0EE670A3437BD4690BD000080BFE3
:100A4000003C1C460000002080B586B002AFAA48DA
:100A500003F0B0FF0223009310234E22A749A848B9
:100A600000F095FFA64801F06CF800220021A44890
:100A700000F0FDFFA349A24801F04CF8012200213B
:100A80009F4800F0F4FFA0499D4801F043F84FF45F
:100A90007A7001F025FD00239C4A39219C4800F022
:100AA00045FB034683F00103DBB2002B0DD09948D0
:100AB00003F080FF01220021914800F0D8FF964901
:100AC0008F4801F027F800BFFDE70921904800F0AA
:100AD000A9FD64218E4800F083FD40F2E7318C4887
:100AE00000F08FFD002001F0FDF9002001F03CFA3C
:100AF000002001F00DFA002001F020FA002001F0A2
:100B00007FFA00220421854801F0D4FF844B0022A3
:100B10001A707B4801F015F8814B1B78042B03D128
:100B20004FF4487001F088FA7D4B1B78062BF3D800
:100B300001A252F823F000BF550B0008E90B000892
:100B4000550C0008650D00080B0E0008890E000802
:100B5000A50F000800220021694800F088FF7149B4
:100B6000674800F0D7FF01220021654800F07FFFB1
:100B70006D49634800F0CEFF80216C4801F082FF90
:100B80000346002B0CBF01230023DBB2002B00F037
:100B90003282322001F0A4FC00BF8021634801F0C2
:100BA00071FF0346002B0CBF01230023DBB2002B97
:100BB000F3D1534800F0C5FF00220021504800F057
:100BC00056FF5B494E4800F0A5FF5A4803F0F2FE7D
:100BD000012001F087F901F077FC0346564A1360C3
:100BE0004F4B01221A7006E201F06EFC0246524B96
:100BF0001B68D31A40F2077293428CBF0123002373
:100C0000DBB2002B00F0F981002001F06BF901F05C
:100C1000C1F9002200213A4800F029FF474938482D
:100C200000F078FF01220021354800F020FF444900
:100C3000334800F06FFF434803F0BCFE012001F091
:100C400067F901F041FC03463F4A1360344B02222E
:100C50001A70D2E13D4B1B78DBB21A463C493D4845
:100C600003F0B0FE01220021254800F000FF3949C1
:100C7000234800F04FFF354B1B78DBB2022B8CBFB3
:100C800001230023DBB2002B1CD0002001F040F92F
:100C900001F080F900220021194800F0E8FE2E49F9
:100CA000174800F037FF2D4803F084FE012001F0C3
:100CB00045F901F009FC0346234A1360184B03224F
:100CC0001A709CE101F000FC02461F4B1B68D31A0E
:100CD00044F6206293428CBF01230023DBB2002B39
:100CE00000F08D81002001F013F91D4803F062FE31
:100CF0000B4B06221A7082E1405A00083401002092
:100D0000FC0000206C5A00087C5A00088801002072
:100D1000D4000020885A0008AC5A000800000240A5
:100D200008010020C05A0008D45A000800100240F0
:100D3000E85A0008F85A00080C0100201C5B000863
:100D40002C5B0008405B000810010020DC01002043
:100D5000605B000814010020745B0008845B0008DD
:100D6000A45B0008AA4B1B78DBB21A46A949AA4823
:100D700003F028FE01220021A84800F078FEA649D1
:100D8000A64800F0C7FEA24B1B78DBB2022B8CBF3B
:100D900001230023DBB2002B1DD0002001F0CEF890
:100DA0009E4800F0CEFE002200219C4800F05FFE2D
:100DB0009B499A4800F0AEFE9A4803F0FBFD0120E3
:100DC00001F01EF901F080FB0346974A1360974B30
:100DD00004221A7015E101F077FB0246944B1B6860
:100DE000D31A44F6206293428CBF01230023DBB266
:100DF000002B00F00681002001F0A0F88D4803F0E0
:100E0000D9FD8A4B06221A70FBE001F05DFB024619
:100E1000854B1B68D31A884AA2FB03239B093B60BE
:100E20003A6886497C4803F0CDFD012200217B48C9
:100E300000F01DFE7849794800F06CFE01F044FB9B
:100E40000246794B1B68D31A42F20F7293428CBF51
:100E500001230023DBB2002B00F0D580002001F03D
:100E6000CFF86E4800F06DFE002200216B4800F0C4
:100E7000FEFD7349694800F04DFE724803F09AFD8B
:100E80006A4B05221A70BEE0012204216E4801F06F
:100E900011FE962001F024FB6C4800F004FA034692
:100EA000002B54D000220421674801F003FE0321E7
:100EB000664800F074F90346FB810721634800F09F
:100EC0006EF90346BB810921604800F068F90346CA
:100ED0007B810A215D4800F062F903463B813B8932
:100EE0007A89B989F889FFF707FD87ED010A4B4830
:100EF00000F027FE00220021484800F0B8FD5449C8
:100F0000464800F007FE7868FFF716FB02460B46DE
:100F10005049414803F056FD012200213F4800F0AE
:100F2000A6FD3D493D4800F0F5FDF989BA8978896B
:100F30003B8900930346484803F0D4FC7868FFF7E8
:100F4000FBFA02460B46454803F0CCFC0BE00022BE
:100F500004213D4801F0AEFD304800F0F2FD40496B
:100F60002E4800F0D7FD41F2883001F0B9FA2B4845
:100F700000F0E7FD00220021284800F078FD394903
:100F8000264800F0C7FD384803F014FD012000F0AA
:100F9000EBFF01F099FA0346234A1360234B062224
:100FA0001A7034E001F090FA02461F4B1B68D31A06
:100FB00040F6AB5293428CBF01230023DBB2002BDF
:100FC00023D0002000F0D0FF01220021134800F0C0
:100FD0004EFD2649114800F09DFD254803F0EAFC2E
:100FE0004FF4FA6001F07CFA0C4800F0AAFD0F4BB8
:100FF00000221A7009E000BF8EE500BF8CE500BF3B
:101000008AE500BF88E500BF86E500BF84E583E58B
:10101000DD010020605B000814010020FC000020BE
:10102000C85B0008DC5B00080C0100200801002000
:1010300010010020085C0008D34D62102C5C0008F1
:101040003C5C0008505C000800000240D400002016
:10105000745C0008845C0008905C0008C05C0008B8
:10106000DC5C0008EC5C0008FC5C0008185D000813
:101070002C5D000880B582B000AF786039607B6875
:10108000012B07D13B684FF6FF72934202D109480A
:1010900000F022F87B68002B07D13B684FF6FF7207
:1010A000934202D1034800F031F800BF0837BD4633
:1010B00080BD00BFD400002080B500AF4FF6FF71A7
:1010C0000120FFF7D7FF80BD80B500AF4FF6FF715D
:1010D0000020FFF7CFFF80BD80B483B000AF786001
:1010E000094A7B681A607B6800221A717B680022BB
:1010F0009A607B6800221A737B6818460C37BD46DD
:101100005DF8047B704700BF545D000880B483B075
:1011100000AF7860044A7B681A607B6818460C3719
:10112000BD465DF8047B7047545D000880B584B00F
:1011300000AFF8607A603B600B46FB72FB687A6830
:101140009A60FB7A5B00DAB2FB681A73FB681B6873
:101150001B683968F8689847034618461037BD463B
:1011600080BD80B582B000AF786039609221786828
:1011700000F08EFB034603F0FC03242B14BF012375
:101180000023DBB2002B01D0002304E001217868AA
:1011900000F0B7F8012318460837BD4680BD80B47B
:1011A00083B000AF78600B46FB70FB787A6804333D
:1011B0005B001344DB8818460C37BD465DF8047BA2
:1011C000704780B584B000AF7860396001217868DD
:1011D00000F078F80121786800F0B1F80021786813
:1011E00000F029F80C233A689521786800F0A3FAFA
:1011F0000346FB730021786800F064F801217868E9
:1012000000F09DF80021786800F015F8FB7B002BBA
:101210000CD03B6803F10C020C239521786800F098
:101220008AFA0346002B01D0012300E00023184670
:101230001037BD4680BD80B584B000AF786039609E
:101240003B68002B0DD102E0012001F049F97868DC
:1012500000F0DBF8034683F00103DBB2002BF3D18F
:101260001EE03B68002B1BD00023FB6005E0012043
:1012700001F036F9FB680133FB60786800F0C5F8CF
:10128000034683F00103DBB2002B05D0FA683B680C
:101290009A4201D2012300E00023002BE7D100BFD6
:1012A0001037BD4680BD80B582B000AF78607B68E6
:1012B0000E3319467868FFF784FF0346184608374F
:1012C000BD4680BD80B582B000AF78600B46FB7034
:1012D0000021786800F033F80221786800F082F885
:1012E000FB78002B03D0786800F0A2F802E0786861
:1012F00000F00AF9786800F041F800BF0837BD46F1
:1013000080BD80B584B000AF78600B46FB70802153
:10131000786800F0BDFA0346FB73FA78F97B002386
:10132000786800F0E0F90346FB73FB7B1A468021E6
:10133000786800F0B1F900BF1037BD4680BD80B5B8
:1013400084B000AF78600B46FB708021786800F0B5
:101350009FFA0346FB73FA78F97B0123786800F063
:10136000C2F90346FB73FB7B1A468021786800F0C4
:1013700093F9034618461037BD4680BD80B586B048
:1013800000AF7860042301228021786800F015FA0C
:101390000346FB744FF47A73FB6000237B6105E026
:1013A000012001F09DF87B6901337B6104228021DB
:1013B000786800F0E8F90346002B05D07A69FB68ED
:1013C0009A4201DA012300E00023002BE8D17A6978
:1013D000FB689A4201DB002300E0FB7C18461837CB
:1013E000BD4680BD80B584B002AF78600B46FB700F
:1013F000FA78022300930323AF21786800F005FAFE
:10140000034618460837BD4680BD80B582B000AFA0
:1014100078600622A321786800F0B5F90346002B16
:1014200014BF01230023DBB218460837BD4680BD38
:1014300080B582B000AF786030220021786800F07B
:101440002BF901220121786800F026F900220221FF
:10145000786800F021F900220321786800F01CF977
:1014600000220421786800F017F9422205217868EB
:1014700000F012F900220621786800F00DF9002230
:101480000721786800F008F950220821786800F0F8
:1014900003F900220921786800F0FEF800220A21F1
:1014A000786800F0F9F800220B21786800F0F4F871
:1014B00020220C21786800F0EFF804220D217868D2
:1014C00000F0EAF800220E21786800F0E5F83022FA
:1014D0000F21786800F0E0F801221021786800F010
:1014E000DBF850221121786800F0D6F80022122192
:1014F000786800F0D1F806221321786800F0CCF863
:1015000000BF0837BD4680BD80B582B000AF7860AF
:1015100000220021786800F0BFF8002201217868DD
:1015200000F0BAF800220221786800F0B5F84022F5
:101530000321786800F0B0F802220421786800F0F6
:10154000ABF800220521786800F0A6F810220621E9
:10155000786800F0A1F803220721786800F09CF871
:1015600050220821786800F097F810220921786845
:1015700000F092F803220A21786800F08DF800222A
:101580000B21786800F088F800220C21786800F0C0
:1015900083F800220D21786800F07EF824220E21C5
:1015A000786800F079F800220F21786800F074F86C
:1015B00000221021786800F06FF85022112178681D
:1015C00000F06AF800221221786800F065F806221F
:1015D0001321786800F060F800BF0837BD4680BD71
:1015E00080B582B000AF78600B46FB70FB781A467E
:1015F0008121786800F050F8034618460837BD4648
:1016000080BD80B582B000AF78600B467B80BA1C8D
:101610000223CA21786800F016F8034618460837F6
:10162000BD4680BD80B582B000AF78600B46FB70D0
:10163000FB781A46AA21786800F02EF8034618466F
:101640000837BD4680BD80B588B004AFF8607A60C9
:101650001A460B46FB7213463B81FB689868FB6891
:101660001B7B1946FB7A9AB20A2302933B890193AA
:101670007B680093012301F0ABFC0346002B0CBFF9
:1016800001230023DBB2002B01D0012300E0002363
:1016900018461037BD4680BD80B586B004AF78606F
:1016A0000B46FB701346BB707B6898687B681B7B9E
:1016B0001946FB789AB20A23029301230193BB1CBB
:1016C0000093012301F084FC0346002B0CBF01238F
:1016D0000023DBB2002B01D0012300E000231846D9
:1016E0000837BD4680BD80B485B000AF786008463D
:1016F00011461A460346FB700B46BB7013467B70BF
:101700007B78012202FA03F3FB7397F90F30DB4376
:101710005AB297F9033013405AB2B9787B7801FA7C
:1017200003F35BB213435BB2DBB218461437BD461A
:101730005DF8047B704780B588B004AFF8607A60CC
:101740001A460B467B8113463B81FB689868FB6811
:101750001B7B19467A890A2302933B8901937B6894
:101760000093012301F02EFD0346002B0CBF012343
:101770000023DBB2002B01D0012300E00023184638
:101780001037BD4680BD80B582B000AF78600B4693
:101790007B8013467B707B881946786800F078F868
:1017A00003461A467B7842FA03F3DBB203F00103E7
:1017B000DBB218460837BD4680BD80B584B000AFA7
:1017C0007860084611461A4603467B800B467B70BC
:1017D00013463B707B881946786800F059F8034639
:1017E000FB737A783B78F97B7868FFF77CFF0346D8
:1017F000FB737B88DBB2FA7B19467868FFF74CFFF6
:10180000034618461037BD4680BD80B584B000AF92
:101810007860084611461A4603467B800B467B706B
:1018200013463B707B881946786800F031F8034610
:10183000FB733B7E012202FA03F3DBB2013BBB7375
:101840007A78BB7B13407B70BA7B3B7802FA03F358
:10185000BB7397F90E30DB435AB297F90F30134040
:101860005BB2FB737A783B7802FA03F35AB297F9CA
:101870000F3013435BB2FB737B88DBB2FA7B1946F4
:101880007868FFF709FF034618461037BD4680BD4C
:1018900080B588B004AF78600B467B807B68986821
:1018A0007B681B7B19467A880A23029301230193E4
:1018B00007F10F030093012301F084FCFB7B184622
:1018C0001037BD4680BD80B582B000AF0346FB80B7
:1018D000FB88184600F004FE00BF0837BD4680BDF7
:1018E00080B586B002AF78600B46FB701346BB70C4
:1018F000FB7823F00F03FB73FB781B01BB737B6842
:10190000DB7A002B07D0FB7B43F00803FB73BB7B28
:1019100043F00803BB73BB78012B08D1FB7B43F07A
:101920000103FB73BB7B43F00103BB730AE0BB788D
:10193000002B07D1FB7B23F00103FB73BB7B23F060
:101940000103BB73FB7B43F00403DBB23B7201205A
:10195000FFF7B9FFFB7B7B72BB7B43F00403DBB279
:10196000BB720120FFF7AFFFBB7BFB727B6818687F
:101970007B681B79194607F108024FF47A730093CC
:10198000042301F027FA00BF1037BD4680BD80B5A3
:1019900084B000AFF860B96011461A460B46FB717F
:1019A0001346BB71FB68BA681A60FB68FA791A7152
:1019B000FB68BA795A71FB683A7E9A71FB682822F3
:1019C0009A72FB680622DA71FB680C221A72FB68B5
:1019D00014225A72FB680822DA723220FFF773FF72
:1019E00000223321F868FFF77BFF00223321F868DB
:1019F000FFF776FF0520FFF766FF00223221F86827
:101A0000FFF76EFF0520FFF75EFF00222021F86838
:101A1000FFF766FF0520FFF756FFFB68DB79002222
:101A20001946F868FFF75CFFFB681B7A002219462D
:101A3000F868FFF755FFFB685B7A00221946F868E3
:101A4000FFF74EFFFB689B7A00221946F868FFF704
:101A500047FF00220121F868FFF742FF0022022120
:101A6000F868FFF73DFF00BF1037BD4680BD80B569
:101A700084B000AF78600B46FB701346BB70002348
:101A8000FB737B685B79FA789A4203D37B685B7956
:101A9000013BFB707B689B79BA789A4203D37B68E1
:101AA0009B79013BBB70BB78002B02D1FB78FB73A9
:101AB00013E0BB78012B03D1FB784033FB730CE0C0
:101AC000BB78022B03D1FB781433FB7305E0BB78A2
:101AD000032B02D1FB785433FB73FB7B63F07F0352
:101AE000DBB2002219467868FFF7FAFE00BF103714
:101AF000BD4680BD80B582B000AF78600B46FB70FC
:101B0000FB78012219467868FFF7EAFE00BF083724
:101B1000BD4680BD80B582B000AF7860396007E017
:101B20003B685A1C3A601B7819467868FFF7E2FF59
:101B30003B681B78002BF3D100BF00BF0837BD46C0
:101B400080BD80B582B000AF786000220121786846
:101B5000FFF7C6FE0520FFF7B6FE00BF0837BD46FB
:101B600080BD80B500AF00F049FC00F00BF800F03C
:101B7000CFF800F071F800F09DF8FEF765FF00BFA8
:101B8000FDE7000080B594B000AF07F120033022DC
:101B90000021184603F00EF807F10C0300221A602A
:101BA0005A609A60DA601A610023BB60284B1B6C94
:101BB000274A43F080531364254B1B6C03F080537A
:101BC000BB60BB6800237B60224B1B68214A43F447
:101BD000804313601F4B1B6803F480437B607B686A
:101BE00002233B620123FB6210233B630223BB639E
:101BF0000023FB6308233B64A8237B640223BB64AC
:101C00000423FB6407F12003184602F043F903465E
:101C1000002B01D000F060F90F23FB6002233B6131
:101C200000237B614FF4A053BB614FF48053FB61F1
:101C300007F10C030521184602F0A4FB0346002B14
:101C400001D000F049F900BF5037BD4680BD00BF4C
:101C5000003802400070004080B500AF124B134ABC
:101C60001A60114B124A5A600F4B00229A600E4BB9
:101C70000022DA600C4B4FF480421A610A4B0022BA
:101C80005A61094B00229A61074B0022DA61064B28
:101C900000221A62044800F059FF0346002B01D0CD
:101CA00000F01AF900BF80BD34010020005400404C
:101CB000A086010080B500AF124B134A1A60114B89
:101CC000124A5A600F4B00229A600E4B0022DA60D3
:101CD0000C4B4FF480421A610A4B00225A61094BA7
:101CE00000229A61074B0022DA61064B00221A6239
:101CF000044800F02BFF0346002B01D000F0ECF865
:101D000000BF80BD8801002000580040A08601006F
:101D100080B58CB000AF07F11C0300221A605A6036
:101D20009A60DA601A610023BB61664B1B6B654ADF
:101D300043F080031363634B1B6B03F08003BB61B1
:101D4000BB6900237B615F4B1B6B5E4A43F004035E
:101D500013635C4B1B6B03F004037B617B69002303
:101D60003B61584B1B6B574A43F001031363554BC0
:101D70001B6B03F001033B613B690023FB60514B8C
:101D80001B6B504A43F0100313634E4B1B6B03F065
:101D90001003FB60FB680023BB604A4B1B6B494A86
:101DA00043F002031363474B1B6B03F00203BB605A
:101DB000BB6800237B60434B1B6B424A43F0080324
:101DC0001363404B1B6B03F008037B607B680022AE
:101DD00004213D4800F06EFE00224FF400613B48B4
:101DE00000F068FE00220121394800F063FE012264
:101DF0007C21374800F05EFE0423FB614FF404139E
:101E00003B6201237B6207F11C0319462F4800F057
:101E10009DFC0123FB614FF404133B6201237B62B1
:101E200007F11C031946284800F090FC0423FB61CD
:101E300001233B6200237B620023BB6207F11C038A
:101E40001946214800F082FC8023FB6100233B629D
:101E500001237B6207F11C0319461E4800F076FC43
:101E60004FF40063FB6101233B6200237B6200238C
:101E7000BB6207F11C031946144800F067FC7D2380
:101E8000FB6101233B6200237B620023BB6207F1FD
:101E90001C0319460E4800F059FC002200210620C0
:101EA00000F01DFC062000F036FC00220021082076
:101EB00000F015FC082000F02EFC00BF3037BD46B6
:101EC00080BD00BF00380240000002400008024010
:101ED000000C02400010024080B400AF72B600BF98
:101EE00000BFFDE780B582B000AF0346FB71FB7910
:101EF000002B01D0012300E000231A4608210348EB
:101F000000F0D8FD00BF0837BD4680BD000C024080
:101F100080B582B000AF0346FB71FB79002B01D086
:101F2000012300E000231A461021034800F0C2FDFF
:101F300000BF0837BD4680BD000C024080B582B0AE
:101F400000AF0346FB71FB79002B01D0012300E0B9
:101F500000231A462021034800F0ACFD00BF0837DB
:101F6000BD4680BD000C024080B582B000AF034684
:101F7000FB71FB79002B01D0012300E000231A46FE
:101F80004021034800F096FD00BF0837BD4680BDE4
:101F9000000C024080B400AF054B00221A70054BC4
:101FA00000221A7000BFBD465DF8047B704700BF79
:101FB000DC010020DD01002080B483B000AF0346C7
:101FC000FB80FB88012B07D10B4B1B78DBB2013365
:101FD000DAB2094B1A7009E0FB88042B06D1074BD3
:101FE0001B78DBB20133DAB2044B1A7000BF0C3736
:101FF000BD465DF8047B7047DC010020DD01002058
:1020000080B582B000AF0346FB71FB79002B01D095
:10201000002300E001231A460421064800F04AFD8F
:1020200001220121034800F045FD00BF0837BD46ED
:1020300080BD00BF000C024080B584B000AF786066
:102040004FF400610C4800F04EFD7A6813465B00C7
:102050001344DB00FB6000E000BFFB685A1EFA601F
:10206000002B14BF01230023DBB2002BF4D100BFEF
:1020700000BF1037BD4680BD0008024080B483B069
:1020800000AF00237B60104B5B6C0F4A43F480432E
:1020900053640D4B5B6C03F480437B607B680023CF
:1020A0003B60094B1B6C084A43F080531364064B9A
:1020B0001B6C03F080533B603B6800BF0C37BD4690
:1020C0005DF8047B704700BF0038024080B58CB0DB
:1020D00000AF786007F11C0300221A605A609A6012
:1020E000DA601A617B681B68324A93422CD1002364
:1020F000BB61314B1B6B304A43F0020313632E4B21
:102100001B6B03F00203BB61BB69C023FB6112239D
:102110003B6200237B620323BB620423FB6207F163
:102120001C031946254800F011FB00237B61224B5C
:102130001B6C214A43F4001313641F4B1B6C03F404
:1021400000137B617B6931E07B681B681C4A93420A
:102150002CD100233B61184B1B6B174A43F0020341
:102160001363154B1B6B03F002033B613B694FF498
:102170004063FB6112233B6200237B620323BB624B
:102180000423FB6207F11C0319460C4800F0DEFA39
:102190000023FB60084B1B6C074A43F48003136465
:1021A000054B1B6C03F48003FB60FB6800BF3037FA
:1021B000BD4680BD0054004000380240000402408B
:1021C0000058004080B400AF00BFFDE780B400AF0E
:1021D00000BFFDE780B400AF00BFFDE780B400AFF3
:1021E00000BFFDE780B400AF00BFFDE780B400AFE3
:1021F00000BFBD465DF8047B704780B400AF00BFF0
:10220000BD465DF8047B704780B400AF00BFBD469B
:102210005DF8047B704780B500AF00F041F900BF66
:1022200080BD80B500AF012000F078FC00BF80BD0C
:1022300080B500AF042000F071FC00BF80BD80B508
:1022400086B000AFF860B9607A6000237B610AE075
:10225000AFF300800146BB685A1CBA60CAB21A705C
:102260007B6901337B617A697B689A42F0DB7B682A
:1022700018461837BD4680BD80B586B000AFF860FF
:10228000B9607A6000237B6109E0BB685A1CBA60C0
:102290001B781846AFF300807B6901337B617A6954
:1022A0007B689A42F1DB7B6818461837BD4680BDD3
:1022B00080B483B000AF78604FF0FF3318460C371E
:1022C000BD465DF8047B704780B483B000AF786092
:1022D00039603B684FF400525A60002318460C37AF
:1022E000BD465DF8047B704780B483B000AF786072
:1022F000012318460C37BD465DF8047B704780B457
:1023000085B000AFF860B9607A60002318461437D2
:10231000BD465DF8047B704780B586B000AF78603D
:10232000144A154BD31A7B617B693B61134B1B68C5
:10233000002B02D1114B124A1A60104B1A687B68AD
:1023400013443A699A4207D202F082FC03460C22F7
:102350001A604FF0FF3309E0084B1B68FB60074B26
:102360001A687B681344054A1360FB6818461837DF
:10237000BD4680BD0000022000040000E0010020F6
:102380003803002080B400AF064BD3F88830054AEC
:1023900043F47003C2F8883000BFBD465DF8047B8B
:1023A000704700BF00ED00E0DFF834D0FFF7EAFF30
:1023B0000C480D490D4A002302E0D458C4500433A0
:1023C000C4188C42F9D30A4A0A4C002301E0136076
:1023D0000432A242FBD302F041FCFFF7C2FB70477C
:1023E0000000022000000020B8000020BC5D0008B2
:1023F000B800002034030020FEE7000080B500AFE5
:102400000E4B1B680D4A43F4007313600B4B1B68A3
:102410000A4A43F480631360084B1B68074A43F47D
:1024200080731360032000F04FF90F2000F008F8CC
:10243000FFF724FE0023184680BD00BF003C024089
:1024400080B582B000AF7860124B1A68124B1B78CF
:1024500019464FF47A73B3FBF1F3B2FBF3F318466A
:1024600000F067F90346002B01D001230EE07B68E2
:102470000F2B0AD8002279684FF0FF3000F02FF9B7
:10248000064A7B681360002300E0012318460837E2
:10249000BD4680BD500000205800002054000020A0
:1024A00080B400AF064B1B781A46064B1B681344DA
:1024B000044A136000BFBD465DF8047B704700BF4F
:1024C00058000020E401002080B400AF034B1B68DB
:1024D0001846BD465DF8047B704700BFE40100204C
:1024E00080B584B000AF7860FFF7EEFFB8607B681E
:1024F000FB60FB68B3F1FF3F05D00A4B1B781A461F
:10250000FB681344FB6000BFFFF7DEFF0246BB68B9
:10251000D31AFA689A42F7D800BF00BF1037BD46F9
:1025200080BD00BF5800002080B485B000AF786047
:102530007B6803F00703FB600C4BDB68BB60BA6889
:102540004FF6FF031340BB60FB681A02BB681343DE
:1025500043F0BF6343F40033BB60044ABB68D360FD
:1025600000BF1437BD465DF8047B704700ED00E006
:1025700080B400AF044BDB681B0A03F00703184666
:10258000BD465DF8047B704700ED00E080B483B089
:1025900000AF0346FB7197F90730002B0BDBFB798B
:1025A00003F01F02074997F907305B09012000FA81
:1025B00002F241F8232000BF0C37BD465DF8047BD2
:1025C000704700BF00E100E080B483B000AF034675
:1025D0003960FB7197F90730002B0ADB3B68DAB2F0
:1025E0000C4997F907301201D2B20B4483F800234B
:1025F0000AE03B68DAB20849FB7903F00F03043BB9
:102600001201D2B20B441A7600BF0C37BD465DF8FA
:10261000047B704700E100E000ED00E080B489B089
:1026200000AFF860B9607A60FB6803F00703FB61F4
:10263000FB69C3F10703042B28BF0423BB61FB69BB
:102640000433062B02D9FB69033B00E000237B61C6
:102650004FF0FF32BB6902FA03F3DA43BB681A405A
:102660007B699A404FF0FF317B6901FA03F3D9434C
:102670007B680B40134318462437BD465DF8047B46
:102680007047000080B582B000AF78607B68013B86
:10269000B3F1807F01D301230FE00A4A7B68013B3D
:1026A00053600F214FF0FF30FFF78EFF054B0022E4
:1026B0009A60044B07221A60002318460837BD466B
:1026C00080BD00BF10E000E080B582B000AF786050
:1026D0007868FFF729FF00BF0837BD4680BD80B589
:1026E00086B000AF0346B9607A60FB7300237B615C
:1026F000FFF73EFF78617A68B9687869FFF78EFF67
:10270000024697F90F3011461846FFF75DFF00BFEC
:102710001837BD4680BD80B582B000AF0346FB715F
:1027200097F907301846FFF731FF00BF0837BD465D
:1027300080BD80B582B000AF78607868FFF7A2FFF7
:10274000034618460837BD4680BD000080B489B0F6
:1027500000AF7860396000237B6100233B61002378
:10276000BB610023FB616BE10122FB6902FA03F309
:102770007B613B681B687A6913403B613A697B69FE
:102780009A4240F05A813B685B6803F00303012BD7
:1027900005D03B685B6803F00303022B30D17B68F4
:1027A0009B68BB61FB695B00032202FA03F3DB4316
:1027B000BA691340BB613B68DA68FB695B0002FAE7
:1027C00003F3BA691343BB617B68BA699A607B689B
:1027D0005B68BB610122FB6902FA03F3DB43BA6960
:1027E0001340BB613B685B681B0903F00102FB6996
:1027F00002FA03F3BA691343BB617B68BA695A6092
:102800003B685B6803F00303032B17D07B68DB682E
:10281000BB61FB695B00032202FA03F3DB43BA6985
:102820001340BB613B689A68FB695B0002FA03F3E3
:10283000BA691343BB617B68BA69DA603B685B685D
:1028400003F00303022B23D1FB69DA087B6808320B
:1028500053F82230BB61FB6903F007039B000F2292
:1028600002FA03F3DB43BA691340BB613B681A69A0
:10287000FB6903F007039B0002FA03F3BA691343F1
:10288000BB61FB69DA087B680832B96943F822103A
:102890007B681B68BB61FB695B00032202FA03F3E0
:1028A000DB43BA691340BB613B685B6803F003021A
:1028B000FB695B0002FA03F3BA691343BB617B68EF
:1028C000BA691A603B685B6803F44033002B00F080
:1028D000B4800023FB60604B5B6C5F4A43F4804331
:1028E00053645D4B5B6C03F48043FB60FB685B4AA5
:1028F000FB699B08023352F82330BB61FB6903F08C
:1029000003039B000F2202FA03F3DB43BA6913406F
:10291000BB617B68524A93422BD07B68514A9342F9
:1029200025D07B68504A93421FD07B684F4A934220
:1029300019D07B684E4A934213D07B684D4A93422C
:102940000DD07B684C4A934207D07B684B4A934238
:1029500001D107230EE008230CE006230AE005233B
:1029600008E0042306E0032304E0022302E001233D
:1029700000E00023FA6902F0030292009340BA6972
:102980001343BB613549FB699B080233BA6941F8BF
:1029900023203B4B9B68BB613B69DB43BA69134017
:1029A000BB613B685B6803F48013002B03D0BA69FA
:1029B0003B691343BB61324ABB699360304BDB68B0
:1029C000BB613B69DB43BA691340BB613B685B6831
:1029D00003F40013002B03D0BA693B691343BB61B6
:1029E000274ABB69D360264B5B68BB613B69DB430D
:1029F000BA691340BB613B685B6803F40033002B8A
:102A000003D0BA693B691343BB611D4ABB6953607C
:102A10001B4B1B68BB613B69DB43BA691340BB615D
:102A20003B685B6803F48033002B03D0BA693B69D1
:102A30001343BB61124ABB691360FB690133FB613D
:102A4000FB690F2B7FF690AE00BF00BF2437BD4659
:102A50005DF8047B704700BF003802400038014039
:102A6000000002400004024000080240000C024046
:102A7000001002400014024000180240001C0240F6
:102A8000003C014080B485B000AF78600B467B808D
:102A90007B681A697B881340002B02D00123FB73EB
:102AA00001E00023FB73FB7B18461437BD465DF83D
:102AB000047B704780B483B000AF78600B467B80A6
:102AC00013467B707B78002B03D07A887B689A61F1
:102AD00003E07B881A047B689A6100BF0C37BD460F
:102AE0005DF8047B704780B485B000AF78600B461A
:102AF0007B807B685B69FB607A88FB6813401A0403
:102B0000FB68D9437B880B401A437B689A6100BFFE
:102B10001437BD465DF8047B7047000080B582B075
:102B200000AF0346FB80084B5A69FB881340002B1B
:102B300006D0054AFB885361FB881846FFF73CFA2C
:102B400000BF0837BD4680BD003C014080B584B061
:102B500000AF78607B68002B01D101232BE17B68FB
:102B600093F83D30DBB2002B06D17B68002283F85E
:102B70003C207868FFF7AAFA7B68242283F83D207E
:102B80007B681B681A687B681B6822F001021A6068
:102B90007B681B681A687B681B6842F400421A60F5
:102BA0007B681B681A687B681B6822F400421A6005
:102BB00001F0A0FDF8607B685B68814A934207D80A
:102BC000FB68804A934294BF01230023DBB206E0F6
:102BD000FB687D4A934294BF01230023DBB2002BA4
:102BE00001D00123E7E0FB68784AA2FB03239B0C9A
:102BF000BB607B681B685B6823F03F017B681B68D8
:102C0000BA680A435A607B681B681B6A23F03F015D
:102C10007B685B686A4A934202D8BB68013309E06B
:102C2000BB684FF4967202FB03F3694AA2FB0323CD
:102C30009B0901337A6812680B4313627B681B6837
:102C4000DB6923F44F4222F0FF027B685B685C493A
:102C50008B4219D8FB68591E7B685B685B00B1FB2F
:102C6000F3F3591C40F6FC730B40002B0AD0FB68B1
:102C7000591E7B685B685B00B1FBF3F30133C3F360
:102C80000B0351E004234FE07B689B68002B11D1BC
:102C9000FB68581E7B6859680B465B000B44B0FB11
:102CA000F3F30133C3F30B03002B0CBF0123002309
:102CB000DBB212E0FB68581E7B6859680B469B002C
:102CC0000B4499000B44B0FBF3F30133C3F30B0344
:102CD000002B0CBF01230023DBB2002B01D001230A
:102CE00022E07B689B68002B0ED1FB68581E7B6836
:102CF00059680B465B000B44B0FBF3F30133C3F39D
:102D00000B0343F400430FE0FB68581E7B685968CF
:102D10000B469B000B4499000B44B0FBF3F30133CB
:102D2000C3F30B0343F44043796809681343CB6151
:102D30007B681B681B6823F0C0017B68DA697B68CD
:102D40001B6A1A437B681B680A431A607B681B680E
:102D50009B6823F4034323F0FF037A6811697A68C0
:102D6000D26811437A6812680B4393607B681B68D2
:102D7000DB6823F0FF017B685A697B689B691A4313
:102D80007B681B680A43DA607B681B681A687B688B
:102D90001B6842F001021A607B6800221A647B689B
:102DA000202283F83D207B6800221A637B68002282
:102DB00083F83E20002318461037BD4680BD00BF73
:102DC000A08601007F841E00FF083D0083DE1B43B8
:102DD000D34D621080B588B002AFF8607A601A46B1
:102DE0000B467B8113463B81FFF76EFB7861FB68E6
:102DF00093F83D30DBB2202B40F0E0807B690093FC
:102E0000192301227049F86800F00EFE0346002BDA
:102E100001D00223D3E0FB6893F83C30012B01D1B1
:102E20000223CCE0FB68012283F83C20FB681B688E
:102E30001B6803F00103012B07D0FB681B681A68AD
:102E4000FB681B6842F001021A60FB681B681A6885
:102E5000FB681B6822F400621A60FB68212283F879
:102E60003D20FB68102283F83E20FB6800221A6494
:102E7000FB687A685A62FB683A895A85FB685B8D01
:102E80009AB2FB681A85FB68504ADA6279897B69D5
:102E90003A6AF86800F0C8FB0346002B01D0012312
:102EA0008DE000233B61FB681B685B693B61FB684D
:102EB0001B689B693B613B6966E07A69396AF8681F
:102EC00000F0CCFE0346002B0DD0FB681B6C042BDE
:102ED00007D1FB681B681A68FB681B6842F4007224
:102EE0001A6001236BE0FB685B6A1A78FB681B6859
:102EF0001A61FB685B6A5A1CFB685A62FB685B8D4F
:102F00009BB2013B9AB2FB685A85FB681B8D013B63
:102F10009AB2FB681A85FB681B685B6903F00403BF
:102F2000042B1BD1FB681B8D002B17D0FB685B6A41
:102F30001A78FB681B681A61FB685B6A5A1CFB689D
:102F40005A62FB685B8D9BB2013B9AB2FB685A8563
:102F5000FB681B8D013B9AB2FB681A857A69396A56
:102F6000F86800F0C3FE0346002B0DD0FB681B6C15
:102F7000042B07D1FB681B681A68FB681B6842F4C6
:102F800000721A6001231AE0FB681B8D002B94D19C
:102F9000FB681B681A68FB681B6842F400721A60C1
:102FA000FB68202283F83D20FB68002283F83E2046
:102FB000FB68002283F83C20002300E0022318462F
:102FC0001837BD4680BD00BF020010000000FFFFA3
:102FD00080B588B002AFF860084611461A4603462D
:102FE0007B810B463B811346FB80FFF76DFA7861CE
:102FF000FB6893F83D30DBB2202B40F0D9807B6931
:103000000093192301226D49F86800F00DFD034675
:10301000002B01D00223CCE0FB6893F83C30012B5D
:1030200001D10223C5E0FB68012283F83C20FB6844
:103030001B681B6803F00103012B07D0FB681B68AA
:103040001A68FB681B6842F001021A60FB681B6883
:103050001A68FB681B6822F400621A60FB68212270
:1030600083F83D20FB68402283F83E20FB68002265
:103070001A64FB683A6A5A62FB68BA8C5A85FB6824
:103080005B8D9AB2FB681A85FB684D4ADA62F88854
:103090003A8979897B690193BB6A00930346F86892
:1030A00000F044FB0346002B52D0012381E07A69F3
:1030B000B96AF86800F0D2FD0346002B0DD0FB681A
:1030C0001B6C042B07D1FB681B681A68FB681B6824
:1030D00042F400721A6001236BE0FB685B6A1A78A5
:1030E000FB681B681A61FB685B6A5A1CFB685A62C2
:1030F000FB681B8D013B9AB2FB681A85FB685B8DF0
:103100009BB2013B9AB2FB685A85FB681B685B69FE
:1031100003F00403042B1BD1FB681B8D002B17D07D
:10312000FB685B6A1A78FB681B681A61FB685B6A5C
:103130005A1CFB685A62FB681B8D013B9AB2FB6804
:103140001A85FB685B8D9BB2013B9AB2FB685A857E
:10315000FB681B8D002BAAD17A69B96AF86800F068
:10316000C5FD0346002B0DD0FB681B6C042B07D15B
:10317000FB681B681A68FB681B6842F400721A60DF
:10318000012316E0FB681B681A68FB681B6842F4A1
:1031900000721A60FB68202283F83D20FB68002241
:1031A00083F83E20FB68002283F83C20002300E0E7
:1031B000022318461837BD4680BD00BF020010002C
:1031C0000000FFFF80B58CB002AFF86008461146E2
:1031D0001A4603467B810B463B811346FB80FFF773
:1031E00073F97862FB6893F83D30DBB2202B40F036
:1031F00014827B6A0093192301227B49F86800F04E
:1032000013FC0346002B01D0022307E2FB6893F86E
:103210003C30012B01D1022300E2FB68012283F83C
:103220003C20FB681B681B6803F00103012B07D0DF
:10323000FB681B681A68FB681B6842F001021A6091
:10324000FB681B681A68FB681B6822F400621A603E
:10325000FB68222283F83D20FB68402283F83E2051
:10326000FB6800221A64FB683A6B5A62FB68BA8EEC
:103270005A85FB685B8D9AB2FB681A85FB685B4ACE
:10328000DA62F8883A8979897B6A0193BB6B00938B
:103290000346F86800F0E0FA0346002B01D0012352
:1032A000BCE1FB681B8D002B13D100233B62FB6844
:1032B0001B685B693B62FB681B689B693B623B6AFE
:1032C000FB681B681A68FB681B6842F400721A608E
:1032D00090E1FB681B8D012B1BD1FB681B681A68F2
:1032E000FB681B6822F480621A600023FB61FB68A4
:1032F0001B685B69FB61FB681B689B69FB61FB6981
:10330000FB681B681A68FB681B6842F400721A604D
:1033100070E1FB681B8D022B1BD1FB681B681A68D0
:10332000FB681B6822F480621A60FB681B681A68DD
:10333000FB681B6842F400621A600023BB61FB68F3
:103340001B685B69BB61FB681B689B69BB61BB69F0
:1033500050E100237B61FB681B685B697B61FB6854
:103360001B689B697B617B6944E1FB681B8D032BB8
:1033700000F2F180FB681B8D012B23D17A6AB96BB7
:10338000F86800F0FBFC0346002B01D0012345E167
:10339000FB681B681A69FB685B6AD2B21A70FB682B
:1033A0005B6A5A1CFB685A62FB681B8D013B9AB230
:1033B000FB681A85FB685B8D9BB2013B9AB2FB6888
:1033C0005A8517E1FB681B8D022B4ED17B6A009357
:1033D000BB6B00220649F86800F026FB0346002B71
:1033E00008D001231AE100BF020010000000FFFF17
:1033F00004000100FB681B681A68FB681B6842F444
:1034000000721A60FB681B681A69FB685B6AD2B2BB
:103410001A70FB685B6A5A1CFB685A62FB681B8D5A
:10342000013B9AB2FB681A85FB685B8D9BB2013B3E
:103430009AB2FB685A85FB681B681A69FB685B6A6D
:10344000D2B21A70FB685B6A5A1CFB685A62FB684E
:103450001B8D013B9AB2FB681A85FB685B8D9BB2A2
:10346000013B9AB2FB685A85C4E07B6A0093BB6B50
:1034700000226C49F86800F0D7FA0346002B01D00F
:103480000123CBE0FB681B681A68FB681B6822F409
:1034900080621A60FB681B681A69FB685B6AD2B2BB
:1034A0001A70FB685B6A5A1CFB685A62FB681B8DCA
:1034B000013B9AB2FB681A85FB685B8D9BB2013BAE
:1034C0009AB2FB685A857B6A0093BB6B0022554910
:1034D000F86800F0A9FA0346002B01D001239DE013
:1034E000FB681B681A68FB681B6842F400721A606C
:1034F000FB681B681A69FB685B6AD2B21A70FB68CA
:103500005B6A5A1CFB685A62FB681B8D013B9AB2CE
:10351000FB681A85FB685B8D9BB2013B9AB2FB6826
:103520005A85FB681B681A69FB685B6AD2B21A701D
:10353000FB685B6A5A1CFB685A62FB681B8D013B87
:103540009AB2FB681A85FB685B8D9BB2013B9AB20D
:10355000FB685A854EE07A6AB96BF86800F00EFC99
:103560000346002B01D0012358E0FB681B681A6951
:10357000FB685B6AD2B21A70FB685B6A5A1CFB6814
:103580005A62FB681B8D013B9AB2FB681A85FB6887
:103590005B8D9BB2013B9AB2FB685A85FB681B6846
:1035A0005B6903F00403042B24D1FB681B8D032B00
:1035B00007D1FB681B681A68FB681B6822F48062ED
:1035C0001A60FB681B681A69FB685B6AD2B21A70E2
:1035D000FB685B6A5A1CFB685A62FB681B8D013BE7
:1035E0009AB2FB681A85FB685B8D9BB2013B9AB26D
:1035F000FB685A85FB681B8D002B7FF4B6AEFB6819
:10360000202283F83D20FB68002283F83E20FB68DF
:10361000002283F83C20002300E0022318462837CC
:10362000BD4680BD0400010080B588B002AFF860DF
:103630007A603B600B467B81FB68DB6A7B617B6960
:10364000082B06D07B69012B03D07B6913F5803FE3
:1036500008D1FB681B681A68FB681B6842F480721B
:103660001A600BE0FB681B6B122B07D1FB681B6811
:103670001A68FB681B6842F480721A603B6800930A
:103680007B6800224FF00111F86800F0CDF9034685
:10369000002B0DD0FB681B681B6803F48073B3F527
:1036A000807F03D1FB684FF400721A64032335E076
:1036B000FB681B69B3F5804F08D17B89DBB21A46E2
:1036C000FB681B6802F0FE021A611BE07B89DB11BC
:1036D000DBB203F00603DBB263F00F03DAB2FB6880
:1036E0001B681A613B687A680E49F86800F016FAA0
:1036F0000346002B01D0012310E07B89DAB2FB687E
:103700001B681A613B687A680749F86800F006FA96
:103710000346002B01D0012300E000231846183790
:10372000BD4680BD080001000200010080B588B0E0
:1037300002AFF860084611461A4603467B810B46E5
:103740003B811346FB80FB681B681A68FB681B689B
:1037500042F480721A607B6A00933B6A00224FF049
:103760000111F86800F060F90346002B0DD0FB68EA
:103770001B681B6803F48073B3F5807F03D1FB687B
:103780004FF400721A6403235FE07B89DBB21A46B0
:10379000FB681B6802F0FE021A617B6A3A6A2D49D7
:1037A000F86800F0BBF90346002B01D001234CE080
:1037B00000237B61FB681B685B697B61FB681B689E
:1037C0009B697B617B697A6A396AF86800F046FA1E
:1037D0000346002B0DD0FB681B6C042B07D1FB6844
:1037E0001B681A68FB681B6842F400721A600123A8
:1037F0002BE0FB88012B05D13B89DAB2FB681B6803
:103800001A6121E03B891B0A9BB2DAB2FB681B6894
:103810001A617A6A396AF86800F020FA0346002BC8
:103820000DD0FB681B6C042B07D1FB681B681A6862
:10383000FB681B6842F400721A60012305E03B89B3
:10384000DAB2FB681B681A61002318461837BD46B8
:1038500080BD00BF0200010080B588B002AFF860F3
:10386000084611461A4603467B810B463B811346A8
:10387000FB80FB681B681A68FB681B6842F4806267
:103880001A60FB681B681A68FB681B6842F4807248
:103890001A607B6A00933B6A00224FF00111F868BE
:1038A00000F0C2F80346002B0DD0FB681B681B68B4
:1038B00003F48073B3F5807F03D1FB684FF400728B
:1038C0001A640323AAE07B89DBB21A46FB681B68F3
:1038D00002F0FE021A617B6A3A6A5249F86800F007
:1038E0001DF90346002B01D0012397E000237B61E3
:1038F000FB681B685B697B61FB681B689B697B617C
:103900007B697A6A396AF86800F0A8F90346002BE7
:103910000DD0FB681B6C042B07D1FB681B681A6871
:10392000FB681B6842F400721A60012376E0FB8892
:10393000012B05D13B89DAB2FB681B681A6121E0D3
:103940003B891B0A9BB2DAB2FB681B681A617A6A70
:10395000396AF86800F082F90346002B0DD0FB6845
:103960001B6C042B07D1FB681B681A68FB681B687B
:1039700042F400721A60012350E03B89DAB2FB681E
:103980001B681A617A6A396AF86800F067F90346B9
:10399000002B0DD0FB681B6C042B07D1FB681B6848
:1039A0001A68FB681B6842F400721A60012335E054
:1039B000FB681B681A68FB681B6842F480721A6017
:1039C0007B6A00933B6A00224FF00111F86800F017
:1039D0002BF80346002B0DD0FB681B681B6803F413
:1039E0008073B3F5807F03D1FB684FF400721A64D3
:1039F000032313E07B89DBB243F00103DAB2FB68F7
:103A00001B681A617B6A3A6A0649F86800F086F812
:103A10000346002B01D0012300E00023184618378D
:103A2000BD4680BD0200010080B584B000AFF860E3
:103A3000B9603B601346FB7148E03B68B3F1FF3F60
:103A400044D0FEF741FD0246BB69D31A3A689A4258
:103A500002D33B68002B39D1BB681B0CDBB2012BB6
:103A60000DD1FB681B685B69DA43BB6813409BB2EE
:103A7000002B0CBF01230023DBB21A460CE0FB68CD
:103A80001B689B69DA43BB6813409BB2002B0CBFD9
:103A900001230023DBB21A46FB799A4216D1FB6858
:103AA00000221A63FB68202283F83D20FB68002275
:103AB00083F83E20FB681B6C43F02002FB681A640D
:103AC000FB68002283F83C20012323E0BB681B0C29
:103AD000DBB2012B0DD1FB681B685B69DA43BB6865
:103AE00013409BB2002B0CBF01230023DBB21A460C
:103AF0000CE0FB681B689B69DA43BB6813409BB210
:103B0000002B0CBF01230023DBB21A46FB799A423B
:103B100093D0002318461037BD4680BD80B584B0D1
:103B200000AFF860B9607A603B6071E0FB681B68C9
:103B30005B6903F48063B3F5806F23D1FB681B6876
:103B40001A68FB681B6842F400721A60FB681B6805
:103B50006FF480625A61FB6800221A63FB682022BE
:103B600083F83D20FB68002283F83E20FB681B6C35
:103B700043F00402FB681A64FB68002283F83C20CF
:103B8000012367E07B68B3F1FF3F41D0FEF79CFC67
:103B900002463B68D31A7A689A4202D37B68002BAC
:103BA00036D1BB681B0CDBB2012B0CD1FB681B6848
:103BB0005B69DA43BB6813409BB2002B14BF01233F
:103BC0000023DBB20BE0FB681B689B69DA43BB6830
:103BD00013409BB2002B14BF01230023DBB2002B48
:103BE00016D0FB6800221A63FB68202283F83D2070
:103BF000FB68002283F83E20FB681B6C43F0200228
:103C0000FB681A64FB68002283F83C20012321E052
:103C1000BB681B0CDBB2012B0CD1FB681B685B691A
:103C2000DA43BB6813409BB2002B14BF012300236F
:103C3000DBB20BE0FB681B689B69DA43BB6813408F
:103C40009BB2002B14BF01230023DBB2002B7FF4B7
:103C50006DAF002318461037BD4680BD80B584B0D7
:103C600000AFF860B9607A6034E0F86800F0E3F81B
:103C70000346002B01D0012334E0BB68B3F1FF3FC2
:103C800028D0FEF721FC02467B68D31ABA689A4214
:103C900002D3BB68002B1DD1FB681B685B6903F076
:103CA0008003802B16D0FB6800221A63FB68202259
:103CB00083F83D20FB68002283F83E20FB681B6CE4
:103CC00043F02002FB681A64FB68002283F83C2062
:103CD000012307E0FB681B685B6903F08003802B0E
:103CE000C3D1002318461037BD4680BD80B584B0CF
:103CF00000AFF860B9607A6034E0F86800F09BF8D3
:103D00000346002B01D0012334E0BB68B3F1FF3F31
:103D100028D0FEF7D9FB02467B68D31ABA689A42CC
:103D200002D3BB68002B1DD1FB681B685B6903F0E5
:103D30000403042B16D0FB6800221A63FB682022C0
:103D400083F83D20FB68002283F83E20FB681B6C53
:103D500043F02002FB681A64FB68002283F83C20D1
:103D6000012307E0FB681B685B6903F00403042B75
:103D7000C3D1002318461037BD4680BD80B584B03E
:103D800000AFF860B9607A6049E0FB681B685B6966
:103D900003F01003102B19D1FB681B686FF01002A1
:103DA0005A61FB6800221A63FB68202283F83D20D9
:103DB000FB68002283F83E20FB681A6CFB681A64DB
:103DC000FB68002283F83C20012330E0FEF77CFBF7
:103DD00002467B68D31ABA689A4202D3BB68002BAA
:103DE0001DD1FB681B685B6903F04003402B16D0B4
:103DF000FB6800221A63FB68202283F83D20FB68E1
:103E0000002283F83E20FB681B6C43F02002FB6815
:103E10001A64FB68002283F83C20012307E0FB685A
:103E20001B685B6903F04003402BAED100231846AA
:103E30001037BD4680BD80B483B000AF78607B682A
:103E40001B685B6903F48063B3F5806F1BD17B68EB
:103E50001B686FF480625A617B6800221A637B687A
:103E6000202283F83D207B68002283F83E207B6877
:103E70001B6C43F004027B681A647B68002283F8A1
:103E80003C20012300E0002318460C37BD465DF8B6
:103E9000047B704780B586B000AF78607B68002BEC
:103EA00001D1012367E27B681B6803F00103002B4B
:103EB00075D0884B9B6803F00C03042B0CD0854B0A
:103EC0009B6803F00C03082B12D1824B5B6803F450
:103ED0008003B3F5800F0BD17E4B1B6803F40033D6
:103EE000002B5BD07B685B68002B57D1012342E23B
:103EF0007B685B68B3F5803F06D1764B1B68754ADB
:103F000043F4803313601DE07B685B68B3F5A02F3A
:103F10000CD1704B1B686F4A43F4802313606D4BC8
:103F20001B686C4A43F4803313600BE0694B1B68D9
:103F3000684A23F480331360664B1B68654A23F498
:103F4000802313607B685B68002B13D0FEF7BCFAFC
:103F5000386108E0FEF7B8FA02463B69D31A642BD1
:103F600001D9032307E25B4B1B6803F40033002BEA
:103F7000F0D014E0FEF7A8FA386108E0FEF7A4FAE2
:103F800002463B69D31A642B01D90323F3E1514B59
:103F90001B6803F40033002BF0D100E000BF7B6806
:103FA0001B6803F00203002B63D04A4B9B6803F0AD
:103FB0000C03002B0BD0474B9B6803F00C03082B22
:103FC0001CD1444B5B6803F48003002B16D1414B9A
:103FD0001B6803F00203002B05D07B68DB68012B14
:103FE00001D00123C7E13B4B1B6823F0F8027B683B
:103FF0001B69DB00374913430B603AE07B68DB68E1
:10400000002B20D0344B01221A60FEF75DFA386194
:1040100008E0FEF759FA02463B69D31A022B01D990
:104020000323A8E12B4B1B6803F00203002BF0D005
:10403000284B1B6823F0F8027B681B69DB002549CD
:1040400013430B6015E0244B00221A60FEF73CFA84
:10405000386108E0FEF738FA02463B69D31A022BB2
:1040600001D9032387E11B4B1B6803F00203002BDC
:10407000F0D17B681B6803F00803002B36D07B6807
:104080005B69002B16D0154B01221A60FEF71CFA53
:10409000386108E0FEF718FA02463B69D31A022B92
:1040A00001D9032367E10B4B5B6F03F00203002B85
:1040B000F0D01BE0094B00221A60FEF705FA3861C8
:1040C0000EE0FEF701FA02463B69D31A022B07D92C
:1040D000032350E10038024000004742800E47426F
:1040E000884B5B6F03F00203002BEAD17B681B68EF
:1040F00003F00403002B00F097800023FB75814B35
:104100001B6C03F08053002B0FD10023BB607D4B51
:104110001B6C7C4A43F0805313647A4B1B6C03F096
:104120008053BB60BB680123FB75774B1B6803F4AE
:104130008073002B18D1744B1B68734A43F480734F
:104140001360FEF7C1F9386108E0FEF7BDF90246D9
:104150003B69D31A022B01D903230CE16A4B1B687C
:1041600003F48073002BF0D07B689B68012B06D191
:10417000644B1B6F634A43F0010313671CE07B68C9
:104180009B68052B0CD15F4B1B6F5E4A43F0040309
:1041900013675C4B1B6F5B4A43F0010313670BE033
:1041A000584B1B6F574A23F001031367554B1B6F86
:1041B000544A23F0040313677B689B68002B15D0D7
:1041C000FEF782F938610AE0FEF77EF902463B69A4
:1041D000D31A41F28832934201D90323CBE0494BF1
:1041E0001B6F03F00203002BEED014E0FEF76CF916
:1041F00038610AE0FEF768F902463B69D31A41F2DA
:104200008832934201D90323B5E03E4B1B6F03F084
:104210000203002BEED1FB7D012B05D1394B1B6C2A
:10422000384A23F0805313647B689B69002B00F0AD
:10423000A180344B9B6803F00C03082B5CD07B6897
:104240009B69022B41D1314B00221A60FEF73CF9E9
:10425000386108E0FEF738F902463B69D31A022BB1
:1042600001D9032387E0274B1B6803F00073002B61
:10427000F0D17B68DA697B681B6A1A437B685B6AEA
:104280009B011A437B689B6A5B08013B1B041A4332
:104290007B68DB6A1B061B4913434B601B4B0122E7
:1042A0001A60FEF711F9386108E0FEF70DF90246D1
:1042B0003B69D31A022B01D903235CE0114B1B6825
:1042C00003F00073002BF0D054E0104B00221A6072
:1042D000FEF7FAF8386108E0FEF7F6F802463B69A7
:1042E000D31A022B01D9032345E0064B1B6803F0C8
:1042F0000073002BF0D13DE07B689B69012B07D157
:10430000012338E00038024000700040600047425E
:104310001B4B5B68FB607B689B69012B28D0FB68AB
:1043200003F480027B68DB699A4221D1FB6803F0C9
:104330003F027B681B6A9A421AD1FA6847F6C0733B
:1043400013407A68526A9201934211D1FB6803F4D8
:1043500040327B689B6A5B08013B1B049A4207D191
:10436000FB6803F070627B68DB6A1B069A4201D02F
:10437000012300E0002318461837BD4680BD00BF6A
:104380000038024080B584B000AF786039607B6847
:10439000002B01D10123CCE0684B1B6803F007031D
:1043A0003A689A420CD9654B3A68D2B21A70634B9C
:1043B0001B6803F007033A689A4201D00123B8E072
:1043C0007B681B6803F00203002B20D07B681B680E
:1043D00003F00403002B05D0594B9B68584A43F463
:1043E000E05393607B681B6803F00803002B05D043
:1043F000534B9B68524A43F460439360504B9B6815
:1044000023F0F0027B689B684D4913438B607B6807
:104410001B6803F00103002B44D07B685B68012B11
:1044200007D1474B1B6803F40033002B19D101233C
:104430007FE07B685B68022B03D07B685B68032BA3
:1044400007D13F4B1B6803F00073002B09D10123F8
:104450006FE03B4B1B6803F00203002B01D10123EB
:1044600067E0374B9B6823F003027B685B68344945
:1044700013438B60FEF728F8F8600AE0FEF724F893
:104480000246FB68D31A41F28832934201D90323D2
:104490004FE02B4B9B6803F00C027B685B689B0032
:1044A0009A42EBD1254B1B6803F007033A689A4206
:1044B0000CD2224B3A68D2B21A70204B1B6803F020
:1044C00007033A689A4201D0012332E07B681B68F7
:1044D00003F00403002B08D0194B9B6823F4E0522F
:1044E0007B68DB68164913438B607B681B6803F0AD
:1044F0000803002B09D0124B9B6823F460427B68B1
:104500001B69DB000E4913438B6000F021F8024663
:104510000B4B9B681B0903F00F030A49CB5C22FA83
:1045200003F3094A1360094B1B681846FDF788FF1F
:10453000002318461037BD4680BD00BF003C024036
:1045400000380240585D0008500000205400002050
:104550002DE9B04F90B000AF00237B630023FB63D5
:1045600000233B630023BB63594B9B6803F00C03A0
:10457000082B0DD0082B00F2A180002B02D0042BB9
:1045800003D09BE0534BBB639BE0534BBB6398E072
:104590004F4B5B6803F03F037B634D4B5B6803F459
:1045A0008003002B28D04A4B5B689B0900223B62AA
:1045B0007A623B6AC3F308000021474B03FB01F218
:1045C000002300FB03F31344434AA0FB0212FA62E8
:1045D0000A46BA62FA6A1344FB627B6B0022BB6133
:1045E000FA61D7E90623D7E90A01FBF7FDFF024686
:1045F0000B461346FB6353E0354B5B689B09002277
:104600003B617A613B69C3F3080A4FF0000B5246E5
:104610005B464FF000004FF00001590141EAD261C2
:10462000500102460B46B2EB0A0863EB0B094FF050
:1046300000024FF000034FEA891343EA98634FEA00
:104640008812B2EB080463EB09054FF000024FF04B
:104650000003EB0043EA5473E20014461D4614EBDA
:104660000A033B6045EB0B037B604FF000024FF009
:104670000003D7E9004529468B02214643EA9153BE
:1046800021468A02104619467B6B0022BB60FA6005
:10469000D7E90223FBF7A8FF02460B461346FB634C
:1046A0000B4B5B681B0C03F0030301335B003B63A4
:1046B000FA6B3B6BB2FBF3F3BB6302E0054BBB63EE
:1046C00000BFBB6B18464037BD46BDE8B08F00BF8A
:1046D000003802400024F40040787D0180B400AF2F
:1046E000034B1B681846BD465DF8047B704700BF4E
:1046F0005000002080B500AFFFF7F0FF0246054BE9
:104700009B689B0A03F007030349CB5C22FA03F37F
:10471000184680BD00380240685D000808B52DEDE0
:10472000028BB0EE408A00F017F8B4EE488AF1EE42
:1047300010FA0CD6DFED078AB4EEE88AF1EE10FA33
:1047400005D500F085FA88EEA80A21230360BDECA8
:10475000028B08BD00000000B1EEC00A70470000E7
:10476000002310B50446C0E90033C0E90433836078
:1047700081814366C2818361194608225C3000F062
:1047800019FA0D4B63620D4BA3620D4BE3620D4BA7
:1047900023630D4B24629C4206D003F168029442CD
:1047A00002D0D0339C4205D104F15800BDE810403E
:1047B00000F078BA10BD00BF054A0008274A00087B
:1047C0005F4A0008834A0008E8010020024A0349C2
:1047D000034800F069B800BF5C000020F5570008EE
:1047E0006C00002041680C4B994210B5044601D082
:1047F00001F000F8A168094B994202D0204600F070
:10480000F9FFE168064B994204D02046BDE810400C
:1048100000F0F0BF10BD00BFE801002050020020F2
:10482000B802002010B50B4B0B4C0C4A1A60204606
:1048300000220421FFF794FF04F1680001220921FE
:10484000FFF78EFF04F1D0000222BDE810401221D4
:10485000FFF786BF20030020E8010020CD470008B5
:10486000014800F020BA00BF29030020014800F0F1
:104870001BBA00BF2903002010B50446FFF7F0FF64
:10488000236A1BB1BDE81040FFF7F0BF044B236261
:10489000044B1B68002BF5D1FFF7C4FFF2E700BF04
:1048A000E5470008200300202DE9F8430746884625
:1048B00014460026D4E90195B9F1010905D524680B
:1048C000002CF7D13046BDE8F883AB89012B07D91E
:1048D000B5F90E30013303D029463846C0470643A8
:1048E0006835E9E70FB407B5064904AB086853F823
:1048F000042B8168019300F053FC03B05DF804EBD6
:1049000004B0704768000020036A70B584680546EB
:104910000E460BB9FFF7B0FF636EDB0705D4A38922
:10492000980502D4A06D00F0BEF9A389190702D53D
:104930002369002B35D12146284600F0E5F880B3E5
:104940004FF0FF35636EDA0705D4A3899B0502D4C7
:10495000A06D00F0A9F9284670BD002B04DAA26909
:104960009A4217DC0A2915D023685A1C2260197054
:10497000A36816F8011F013BA3600029EDD1002BAD
:1049800011DA22460A21284600F07FF80130D7D0FC
:104990000A25D7E72246284600F077F80130E7D10C
:1049A000CEE7013EE4E723685A1C22600A221A700F
:1049B000EEE70000024B01461868FFF7A5BF00BFF5
:1049C000680000200EB400B59CB01DAB02900690AC
:1049D0006FF00041094807910491094953F8042BED
:1049E00005910068019302A900F0B4FA029B00222D
:1049F0001A701CB05DF804EB03B07047680000202B
:104A00000802FFFF10B50C46B1F90E1000F0FCF8DB
:104A10000028ABBF636DA3891B1823F48053ACBF80
:104A20006365A38110BD2DE9F0411F468B89DB052D
:104A300005460C46164605D5B1F90E100223002294
:104A400000F0D0F8A389B4F90E1023F48053A381A9
:104A500032463B462846BDE8F04100F0E7B810B5C5
:104A60000C46B1F90E1000F0BDF8431CA38915BF28
:104A7000606523F4805343F48053A38118BFA3815E
:104A800010BDB1F90E1000F09DB8F8B50E461446F1
:104A9000054618B1036A0BB9FFF7EEFEA369A360E0
:104AA000A3891A0701D5236943B92146284600F096
:104AB0002BF818B14FF0FF373846F8BD236822694C
:104AC000981A6369F6B28342374605DC21462846C8
:104AD00000F090FE0028EDD1A368013BA36023689D
:104AE0005A1C22601E706269431C9A4204D0A3893A
:104AF000DB07E1D50A2EDFD12146284600F07AFEF9
:104B00000028D9D0D6E7000038B5294B05461868EB
:104B10000C4618B1036A0BB9FFF7AEFEB4F90C30BE
:104B2000190722D4DA0607D409222A6043F0400389
:104B3000A3814FF0FF3033E0580712D5616B41B1CC
:104B400004F14403994202D0284600F0AFF8002354
:104B50006363A38923F02403A38100236360236993
:104B60002360A38943F00803A38123694BB9A38978
:104B700003F42073B3F5007F03D02146284600F0EC
:104B800087FEB4F90C3013F001020AD00022A260B3
:104B900062695242A261226942B913F08000C5D114
:104BA00038BD990758BF6269A260F4E70020F7E7B3
:104BB0006800002002440346934200D1704703F886
:104BC000011BF9E738B5064D0023044608462B6063
:104BD000FDF76EFB431C02D12B6803B1236038BD87
:104BE0002403002038B5074D04460846114600222C
:104BF0002A601A46FDF783FB431C02D12B6803B1E0
:104C0000236038BD2403002038B5074D044608460C
:104C1000114600222A601A46FDF711FB431C02D1FF
:104C20002B6803B1236038BD2403002038B5074D3D
:104C300004460846114600222A601A46FDF71CFB6E
:104C4000431C02D12B6803B1236038BD240300202C
:104C5000014B1868704700BF6800002070B50D4D0B
:104C60000D4C641BA4100026A64209D10B4D0C4C20
:104C700000F0DAFE641BA4100026A64205D170BD28
:104C800055F8043B98470136EEE755F8043B984742
:104C90000136F2E7AC5D0008AC5D0008AC5D0008D1
:104CA000B45D0008704770477047000038B505468E
:104CB000002941D051F8043C0C1F002BB8BFE41868
:104CC00000F0E0F81D4A136833B9636014602846A9
:104CD000BDE8384000F0DCB8A34208D920682118AC
:104CE0008B4201BF19685B6809182160EDE71A461D
:104CF0005B680BB1A342FAD911685018A0420BD1DE
:104D000020680144501883421160E0D118685B6844
:104D1000536008441060DAE702D90C232B60D6E711
:104D2000206821188B4204BF19685B68636004BF68
:104D3000091821605460CAE738BD00BF3003002065
:104D400070B50F4E0C463168054611B900F018FEDB
:104D500030602146284600F013FE431C03D14FF07B
:104D6000FF34204670BDC41C24F00304A042F8D0D8
:104D7000211A284600F004FE0130F2D1EFE700BF0F
:104D80002C0300202DE9F843CD1C25F00305083540
:104D90000C2D38BF0C25002D064601DBA94204D995
:104DA0000C2333600020BDE8F883DFF8D48000F0E6
:104DB00069F8D8F800301C4644BB29463046FFF756
:104DC000BFFF431C044658D1D8F800402746002FA7
:104DD00043D1002C4BD023683946304604EB0309FD
:104DE00000F0CEFD814542D121686D1A294630463A
:104DF000FFF7A6FF01303AD023682B442360D8F890
:104E000000305A6862BBC8F800700FE02268521B7D
:104E100020D40B2A17D96119A342256018BF596005
:104E2000636808BFC8F8001062514B60304600F05C
:104E30002FF804F10B00231D20F00700C21A1CBF3D
:104E40001B1AA350AFE76268A3420CBFC8F800204A
:104E50005A60EBE723466468AEE73C467F68B6E7F6
:104E60001A465B68A342FBD100235360DEE70C23A4
:104E70003360304600F00CF894E70560D6E700BFD9
:104E8000300300200148FFF70EBF00BF28030020B9
:104E90000148FFF709BF00BF280300202DE9F047B4
:104EA0008E681F46BE420B6882460C4690462DD83F
:104EB000B1F90C2012F4906F26D06569096905EBF1
:104EC0004505A3EB010905EBD5757B1C4B446D1023
:104ED0009D4238BF1D46530527D52946FFF752FF8F
:104EE000064660B321694A4600F05AFDA38923F4BF
:104EF000906343F08003A381266165614E44A5EB76
:104F000009052660A5603E46BE4200D93E4620689F
:104F10003246414600F0F8FCA3689B1BA36023685F
:104F2000334423600020BDE8F0872A4600F046FDA8
:104F300006460028E0D121695046FFF7B7FE0C2352
:104F4000CAF80030A38943F04003A3814FF0FF303B
:104F5000E9E700002DE9F04F98468B891B069DB0CC
:104F600007460D46144610D50B6973B94021FFF76B
:104F700009FF2860286130B90C233B604FF0FF30F7
:104F80001DB0BDE8F08F40236B61002309932023FF
:104F90008DF82930CDF80C803023DFF89C818DF816
:104FA0002A304FF0010923469A4613F8012B0AB123
:104FB000252AF9D1BAEB040B0BD05B4622462946D1
:104FC0003846FFF76BFF013000F0A780099A5A447A
:104FD00009929AF80030002B00F09F8000234FF0D8
:104FE000FF32CDE905230AF1010A049307938DF8F6
:104FF00053301A935446052214F8011B4E48FBF710
:10500000E7F8049AD8B9D00644BF20238DF853306E
:10501000110744BF2B238DF853309AF800302A2B08
:1050200015D0079A544600204FF00A0C214611F87B
:10503000013B303B092B4BD9B0B1079214E0A0EBF8
:10504000080309FA03F313430493A246D2E7039B30
:10505000191D1B680391002BBBBF5B4242F002028B
:1050600007930793B8BF049223782E2B0AD1637855
:105070002A2B32D1039B1A1D1B68039243EAE37368
:1050800002340593DFF8C0A0217803225046FBF7D5
:105090009FF838B1049BA0EB0A00402282401343E2
:1050A0000134049314F8011B24488DF828100622BB
:1050B000FBF78EF8002836D0214B1BBB039B073330
:1050C00023F0070308330393099B334409936AE7EA
:1050D0000CFB02320C460120A8E7002301340593A3
:1050E00019464FF00A0C204610F8012B303A092AD5
:1050F00003D9002BC6D00591C4E70CFB012104465F
:105100000123F0E703AB00932A460E4B04A938466F
:10511000AFF30080421C0646D6D1AB895B063FF553
:105120002DAF09982CE703AB00932A46054B04A941
:10513000384600F0BBF9EDE7705D00087A5D0008C5
:10514000000000009D4E0008765D00089368013B5A
:10515000002B10B4936008DA9469A34201DB0A299A
:1051600003D15DF8044BFFF790BC1368581C106026
:10517000197008465DF8044B7047F8B506460F46AF
:105180001446D518AC4201D1002007E014F8011BE9
:105190003A463046FFF7DAFF431CF3D1F8BD000072
:1051A0002DE9F04F0D469DB014469846064618B1BD
:1051B000036A0BB9FFF760FB6B6ED90705D4AB89A7
:1051C0009A0502D4A86DFFF76EFDAB891B0701D5C8
:1051D0002B699BB929463046FFF796FC70B16B6E80
:1051E000DC0704D54FF0FF301DB0BDE8F08FAB8970
:1051F0009805F7D4A86DFFF757FDF3E7002309934F
:1052000020238DF82930CDF80C803023DFF8AC81D5
:105210008DF82A304FF0010923469A4613F8012BE6
:105220000AB1252AF9D1BAEB040B0BD05B46224612
:1052300029463046FFF7A1FF013000F0A780099A08
:105240005A4409929AF80030002B00F09F80002306
:105250004FF0FF32CDE905230AF1010A04930793C9
:105260008DF853301A935446052214F8011B534805
:10527000FAF7AEFF049AD8B9D10644BF20238DF8BF
:105280005330130744BF2B238DF853309AF8003066
:105290002A2B15D0079A544600204FF00A0C2146BD
:1052A00011F8013B303B092B4BD9B0B1079214E008
:1052B000A0EB080309FA03F313430493A246D2E7D1
:1052C000039B191D1B680391002BBBBF5B4242F07F
:1052D000020207930793B8BF049223782E2B0AD1BA
:1052E00063782A2B32D1039B1A1D1B68039243EA71
:1052F000E37302340593DFF8D4A0217803225046EB
:10530000FAF766FF38B1049BA0EB0A004022824006
:1053100013430134049314F8011B29488DF8281015
:105320000622FAF755FF00283FD0264B1BBB039BF4
:10533000073323F0070308330393099B3B44099386
:105340006AE70CFB02320C460120A8E70023013477
:10535000059319464FF00A0C204610F8012B303AFD
:10536000092A03D9002BC6D00591C4E70CFB012103
:1053700004460123F0E703AB00932A46124B04A92D
:105380003046AFF300800746781CD6D16B6ED90744
:1053900005D4AB899A0502D4A86DFFF785FCAB89CB
:1053A0005B063FF51FAF09981EE703AB00932A4643
:1053B000054B04A9304600F079F8E4E7705D000879
:1053C0007A5D0008000000007B510008765D00084F
:1053D0002DE9F047164698468A680B69DDF820905B
:1053E0009342B8BF1346336091F8432007460C46FA
:1053F0000AB1013333602368990642BF3368023330
:105400003360256815F0060506D104F1190AE36832
:1054100032689B1AAB4226DC94F843302268003B8A
:1054200018BF012392062BD404F1430241463846AB
:10543000C84701301ED02368226903F00603042BFD
:1054400002BFE5683368ED1AA3680CBF25EAE5756D
:1054500000259342C4BF9B1AED1800261A34B542AA
:105460001AD1002008E00123524641463846C84779
:10547000013003D14FF0FF30BDE8F0870135C6E7BA
:10548000E1185A1C302081F84300224494F845105A
:1054900082F843100233C7E70123224641463846CB
:1054A000C8470130E6D00136D9E700002DE9FF47B3
:1054B0000F7E0C9E782F914680460C469A4601F14D
:1054C000430207D8622F0AD8002F00F0D280582F4D
:1054D00000F0B98004F1420684F842703AE0A7F186
:1054E0006303152BF6D801A151F823F045550008A8
:1054F00059550008D5540008D5540008D554000863
:10550000D554000859550008D5540008D554000852
:10551000D5540008D5540008595600088355000892
:1055200013560008D5540008D55400087B560008CF
:10553000D554000883550008D5540008D5540008F8
:105540001B56000833681A1D1B68326004F14206BE
:1055500084F8423001239DE033682068191D3160D2
:10556000060601D51D6803E04506FBD5B3F90050DA
:10557000002D03DA2D236D4284F8433059480A2365
:1055800011E021683368080653F8045B02D4490629
:1055900048BFADB26F2F5348336014BF0A230823AE
:1055A000002184F843106668A660002EA2BF21681F
:1055B00021F0040121600DB9002E4BD01646B5FB39
:1055C000F3F103FB1157C75D06F8017D2F46BB427F
:1055D0000D46F4D9082B0BD12368DF0708D52369C2
:1055E00061689942DEBF302306F8013C06F1FF36C0
:1055F000921B2261CDF800A04B4603AA21464046EB
:10560000FFF7E6FE01304AD14FF0FF3004B0BDE8AD
:10561000F087236843F0200323603348782784F819
:105620004570236831681F0651F8045B02D45F0699
:1056300048BFADB23160D90744BF43F020032360B7
:105640001DB11023ACE72748E9E7236823F02003C6
:105650002360F6E71646BDE7336825686169181DC3
:1056600030602E061B6801D5196002E06806FBD584
:105670001980002323611646BCE733681A1D326087
:105680001E68626800213046FAF7A2FD08B1801B4F
:10569000606063682361002384F84330AAE72369CC
:1056A000324649464046D0470130ADD023689B077B
:1056B00013D4E068039B9842B8BF1846A6E70123BD
:1056C000324649464046D04701309DD00135E36817
:1056D00003995B1AAB42F2DCEBE7002504F11906F3
:1056E000F5E700BF815D0008925D0008B1F90C206C
:1056F0002DE9F041160705460C4654D44B68002BA3
:1057000002DC0B6C002B48DDE66A002E45D000233E
:1057100012F480522F68216A2B6030D0626DA38909
:10572000590705D56368D21A636B0BB1236CD21A83
:105730000023E66A216A2846B047431CA38906D1A4
:1057400029681D292BD82A4A0A41D60727D40022C6
:105750006260D9042269226004D5421C01D12B6801
:1057600003B96065616B2F60B9B104F144039942DC
:1057700002D02846FFF79AFA002363630DE0012365
:105780002846B0470246501CC9D12B68002BC6D012
:105790001D2B01D0162B1ED12F60002022E043F0DC
:1057A00040031BB21BE00F69002FF6D093070E6871
:1057B00008BF4B690F6018BF0023A6EB07088B607A
:1057C000B8F1000FE9DD216AA66A43463A46284649
:1057D000B047002808DCB4F90C3043F04003A38143
:1057E0004FF0FF30BDE8F0810744A8EB0008E7E781
:1057F000FEFFBFDF38B50B6905460C4613B900251F
:10580000284638BD18B1036A0BB9FFF735F8B4F96B
:105810000C30002BF3D0626ED00704D4990502D46B
:10582000A06DFFF740FA28462146FFF75FFF636E41
:10583000DA070546E4D4A3899B05E1D4A06DFFF700
:1058400033FADDE770B50C46B1F90E10002996B0B9
:1058500015461E460DDAA38913F0800F4FF00001A4
:1058600014BF40234FF48063002031602B6016B0DA
:1058700070BD6A4600F062F80028ECDB019901F483
:105880007041A1F50053594259414FF48063EBE751
:105890008B89F7B59D0706460C4607D504F14703EB
:1058A000236023610123636103B0F0BD01AB6A464D
:1058B000FFF7C8FF009F054639463046FFF762FAFA
:1058C00048B9B4F90C309A05EED423F0030343F041
:1058D0000203A381E2E7A389206043F08003A38150
:1058E000019BC4E904075BB1B4F90E10304600F027
:1058F00037F828B1A38923F0030343F00103A38100
:10590000A3891D43A581CFE7884210B501EB0204AE
:1059100002D98442234607D8431EA14208D011F879
:10592000012B03F8012FF8E7024401468A4200D117
:1059300010BD13F8014D02F8014DF7E738B5074DDA
:1059400000230446084611462B60FCF7BDFC431CAF
:1059500002D12B6803B1236038BD00BF24030020AF
:1059600038B5064D0023044608462B60FCF7BCFC06
:10597000431C02D12B6803B1236038BD24030020EF
:1059800038B5064D0023044608462B60FCF7C4FCDE
:10599000431C02D12B6803B1236038BD24030020CF
:1059A0000A44914200F1FF3300D1704710B511F85D
:1059B000014B03F8014F9142F9D110BD2DE9F0419F
:1059C000804615460C4621B9BDE8F0411146FFF767
:1059D000D9B92AB9FFF76AF900242046BDE8F08159
:1059E00000F01AF88542064602D8B5EB500FF4D8FD
:1059F00029464046FFF7C6F907460028ECD0B542D5
:105A00002A46214628BF3246FFF7CAFF21464046B4
:105A1000FFF74CF93C46E0E751F8043C181F002B17
:105A2000BCBF0B58C0187047F8B500BFF8BC08BC25
:105A30009E467047F8B500BFF8BC08BC9E4670474C
:105A40000D0A3D3D3D3D2048452054484F4E4720DE
:105A5000444F204E4F322054E1BBB020C490E1BBF4
:105A6000984E47203D3D3D3D0D00000048555354A4
:105A7000202D204E4F322053595300004B686F6940
:105A80002074616F2E2E2E00435249544943414CDD
:105A90003A204B686F6E672074696D207468617975
:105AA00020415337333431210D0000004C6F692001
:105AB00043616D204269656E2120202000000000B6
:105AC00048652054686F6E672053616E53616E673E
:105AD000000000004E68616E206E757420535441C2
