:020000040800F2
:10000000000002203D340008413200084932000857
:100010005132000859320008613200080000000027
:10002000000000000000000000000000693200082D
:100030007732000800000000853200089332000883
:100040008D3400088D3400088D3400088D3400088C
:100050008D3400088D3400089F3200088D3400086C
:10006000AD3200088D3400088D3400088D3400084E
:100070008D3400088D3400088D3400088D3400085C
:100080008D3400088D3400088D3400088D3400084C
:100090008D3400088D3400088D3400088D3400083C
:1000A0008D3400088D3400088D3400088D3400082C
:1000B0008D3400088D3400088D3400088D3400081C
:1000C0008D3400088D3400088D3400088D3400080C
:1000D0008D3400088D3400088D3400088D340008FC
:1000E0008D3400088D3400088D3400088D340008EC
:1000F0008D3400088D3400088D3400088D340008DC
:100100008D3400088D3400088D3400088D340008CB
:100110008D3400088D340008BD3200088D3400088D
:100120008D3400088D3400088D3400088D340008AB
:100130008D3400088D3400088D3400088D3400089B
:100140008D3400088D3400088D3400088D3400088B
:100150008D3400088D3400088D3400088D3400087B
:100160008D3400088D3400088D3400088D3400086B
:100170008D3400088D3400088D3400080000000024
:080180008D3400088D340008E5
:1001900010B5054C237833B9044B13B10448AFF3C1
:1001A00000800123237010BDCC000020000000005F
:1001B000C880000808B5034B1BB103490348AFF3DF
:1001C000008008BD00000000D0000020C8800008AA
:1001D00001F0FF01102A2BDB10F0070F08D010F8F8
:1001E000013B013A8B422DD010F0070F42B3F6D1FC
:1001F000F0B441EA012141EA014122F007047FF015
:1002000000070023F0E80256083C85EA010586EA6B
:10021000010685FA47F5A3FA87F586FA47F6A5FAA7
:1002200087F68EB9EED1F0BC01F0FF0102F00702B3
:1002300032B110F8013B013A83EA010313B1F8D15E
:100240000020704701387047002D06BF354603383F
:10025000073815F0010F07D1013015F4807F02BF78
:10026000013015F4C03F0130F0BC0138704700BFC9
:1002700053B94AB9002908BF00281CBF4FF0FF310D
:100280004FF0FF3000F06AB9ADF1080C6DE904CE13
:1002900000F006F8DDF804E0DDE9022304B0704761
:1002A0002DE9F047089D0C46002B4ED194468C4515
:1002B0008646B2FA82F262D94AB1C2F12003914075
:1002C00020FA03F30CFA02FC194300FA02FE4FEA8B
:1002D0001C471FFA8CF6B1FBF7F44FEA1E4307FBED
:1002E000141143EA014304FB06F199420AD91CEBBD
:1002F000030304F1FF3080F01281994240F20F8134
:10030000023C6344591A1FFA8EF3B1FBF7F007FB66
:10031000101143EA014300FB06F69E420AD91CEB8A
:10032000030300F1FF3180F0FC809E4240F2F9802F
:10033000634402389B1B40EA044000211DB1D340B6
:100340000022C5E90032BDE8F0878B4205D90DB126
:10035000C5E9000100210846F5E7B3FA83F1002959
:1003600046D1A34202D39042C0F0F080861A64EBDB
:1003700003030120002DE6D0C5E90063E3E7002A6E
:1003800040F09080A1EB0C044FEA1C481FFA8CF758
:100390000121B4FBF8F64FEA1E4308FB164443EA7A
:1003A000044307FB06F0984208D91CEB030306F14F
:1003B000FF3402D2984200F2CD8026461C1A1FFA62
:1003C0008EF3B4FBF8F008FB104443EA044300FB4F
:1003D00007F79F4208D91CEB030300F1FF3402D258
:1003E0009F4200F2B0802046DB1B40EA0640A5E7B2
:1003F000C1F120068B4022FA06F71F4320FA06FCC3
:1004000004FA01F343EA0C03F44000FA01F8380C53
:100410004FEA1349B4FBF0FE1FFA87FC00FB1E44B1
:1004200049EA04440EFB0CF9A14502FA01F20AD98B
:100430003C190EF1FF3A80F08480A14540F28180A2
:10044000AEF1020E3C44A4EB09041FFA83F9B4FB9D
:10045000F0F300FB134449EA044403FB0CFCA445FD
:1004600007D93C1903F1FF3067D2A44565D9023B97
:100470003C4443EA0E40A0FB0293A4EB0C049C42D4
:10048000CE469C4651D34ED055B1B8EB0E0364EB2B
:100490000C0404FA06F6CB401E43CC40C5E90064C8
:1004A000002150E7C2F1200320FA03F10CFA02FC0C
:1004B00024FA03F394400C434FEA1C4800FA02FE6E
:1004C0001FFA8CF7B3FBF8F008FB1031230C43EA5A
:1004D000014300FB07F1994208D91CEB030300F12B
:1004E000FF362CD299422AD9023863445B1AA4B24F
:1004F000B3FBF8F108FB113344EA034401FB07F3B3
:10050000A34208D91CEB040401F1FF3613D2A34225
:1005100011D902396444E41A41EA004139E704463A
:10052000F0E6084606E7C845AED2B9EB020E63EB2B
:10053000070C0138A8E73146EDE7034699E7304656
:10054000D4E7D6467FE7634402384DE706462346A4
:1005500008460FE7023E634430E700BF704700BF24
:1005600080B582B000AF87ED010A97ED010A06F071
:1005700025FCF0EE407AB0EE670A0837BD4680BD34
:1005800090B58DB000AF0446084611461A46234682
:10059000FB800346BB800B467B8013463B803B8839
:1005A000002B07D13B6C002B02D03B6C4B4A1A60EE
:1005B0004A4B8CE0FB8807EE903AF8EE676A3B887E
:1005C00007EE903AB8EEE77AC6EE877AC7ED087A7A
:1005D000BB8807EE903AF8EE676A3B8807EE903AE0
:1005E000B8EEE77AC6EE877AC7ED077A7B8807EE22
:1005F000903AF8EE676A3B8807EE903AB8EEE77AF1
:10060000C6EE877AC7ED067A354BFB624FF00003E2
:10061000BB6200237B6250E0324A7B6A1B011344B9
:100620000433D3ED007A97ED087A77EE677AC7ED59
:10063000057A2C4A7B6A1B0113440833D3ED007AF8
:1006400097ED077A77EE677AC7ED047A254A7B6AD9
:100650001B0113440C33D3ED007A97ED067A77EE45
:10066000677AC7ED037AD7ED057A27EEA77AD7ED3B
:10067000047A67EEA77A37EE277AD7ED037A67EE2A
:10068000A77A77EE277AB0EE670AFFF769FF87ED62
:10069000020A97ED027AD7ED0B7AB4EEE77AF1EE23
:1006A00010FA07D5BB68FB620E4A7B6A1B01134434
:1006B0001B68BB627B6A01337B627B6A042BABDD08
:1006C0003B6C002B02D03B6CFA6A1A60BB6A07EEE7
:1006D000903AB0EE670A3437BD4690BD000080BF47
:1006E000003C1C460000002080B500AF002002F056
:1006F00033FA002002F056FA002002F079FA0020C6
:1007000002F0A6FA002002F00BFC044B1B6800224A
:10071000DA63034806F09EFC00BF80BD5C02002047
:10072000E080000880B500AF1F4806F093FCFFF79B
:10073000DBFF1E4806F08EFC1D4801F067FE1D48D9
:1007400006F088FC00231C4A39211C4801F00EF9F0
:1007500005211A4801F0AEFB6421184801F088FB1E
:1007600040F2E731154801F094FB002200211048C7
:1007700001F0D1FD12490E4801F020FE01220021B6
:100780000B4801F0C8FD0F49094801F017FE0E4B58
:1007900000221A7002F0E2FE03460C4A13600C4875
:1007A00006F058FC00BF80BD1081000830810008B1
:1007B0001001002044810008FC010020E800002016
:1007C0005C810008708100081C0100204C010020A1
:1007D0008481000880B500AF2A4B1B78002B04D120
:1007E000294B00221A7000234AE08021274803F099
:1007F0008FFA0346002B0CBF01230023DBB2002B32
:100800003AD0214B1B78002B08D11F4B01221A70C4
:1008100002F0A4FE03461E4A136030E002F09EFE82
:1008200002461B4B1B68D31A41F2873293428CBF9E
:1008300001230023DBB2002B21D0164801F0D5FDA7
:1008400000220021134801F066FD1349114801F010
:10085000B5FD012200210F4801F05DFD0F490D4853
:1008600001F0ACFD0E4806F0F5FBFFF75BFF064B11
:1008700000221A70012303E0034B00221A700023A8
:10088000184680BD1C0100205401002000100240C9
:100890005001002010010020A8810008B881000844
:1008A000C481000880B500AF02F058FE02462B4B11
:1008B0001B68D31A42F20F72934294BF01230023A4
:1008C000DBB2002B48D102F049FE0346234A1360F5
:1008D000234B1B79194632230222224804F01AF8CE
:1008E0000346002B14BF01230023DBB2002B34D0BE
:1008F0001D4806F0AFFB1A4801F088FD1B4B1B7822
:10090000002B12D100220021154801F004FD1849E6
:10091000134801F053FD01220021114801F0FBFCB6
:1009200014490F4801F04AFD12E0002200210C4852
:1009300001F0F1FC10490A4801F040FD01220021BC
:10094000074801F0E8FC0D49054801F037FD00BFFC
:100950000B4806F07FFB00E000BF80BD4C0100208B
:1009600010010020A8010020F88100081C010020CF
:100970005C810008708100082C8200084082000819
:100980005482000890B591B002AFA54806F062FB12
:100990000223009310234E22A249A34801F04BFCEE
:1009A000A14801F022FD002200219F4801F0B3FC84
:1009B0009E499D4801F002FD012200219A4801F064
:1009C000AAFC9B49984801F0F9FC4FF47A7002F0B8
:1009D000D1FD0023974A3921974800F0C7FF03460D
:1009E00083F00103DBB2002B0DD0944806F032FBFC
:1009F000012200218C4801F08EFC91498A4801F0C7
:100A0000DDFC00BFFDE705218B4801F053FA6421AE
:100A1000894801F02DFA40F2E731874801F039FAB0
:100A2000FFF762FE874B00221A707F4801F0DDFC61
:100A3000002200217C4801F06EFC83497A4801F0D5
:100A4000BDFC01220021784801F065FC7F49764811
:100A500001F0B4FC02F082FD03467D4A13607D483C
:100A600004F000FDFFF7B6FE0346002B14BF012380
:100A70000023DBB2002B40F06786FFF713FF714BBA
:100A80001B78032B07D06F4B1B78052B03D06D4BC6
:100A90001B78092B09D16B4B1B78092B01D128231B
:100AA00000E03C23184602F057FA664B1B780A2BED
:100AB000D5D801A252F823F0E50A0008EF0C00088F
:100AC0005D0D0008410E0008610F00083D10000890
:100AD000F71000084D14000839150008C11500086A
:100AE0006716000880215C4803F012F90346002BCA
:100AF0000CBF01230023DBB2002B00F0288632203C
:100B000002F038FD02F02AFDF86010E0514804F0D0
:100B1000A9FC02F023FD0246FB68D31A40F6B83266
:100B200093428CBF01230023DBB2002B0CD1802128
:100B3000494803F0EDF80346002B0CBF01230023C6
:100B4000DBB2002BE2D100E000BF02F007FD02465D
:100B5000FB68D31A40F6B73293428CBF01230023BF
:100B6000DBB2002B40F0F685002387F8373002F027
:100B7000F5FCB86044E0374804F074FC8021364846
:100B800003F0C6F80346002B0CBF01230023DBB2A1
:100B9000002B35D0322002F0EDFC80212E4803F0EE
:100BA000B7F80346002B0CBF01230023DBB2002B58
:100BB00054D0012387F8373002F0D0FC786010E081
:100BC000244804F04FFC02F0C9FC02467B68D31AAB
:100BD00040F6B83293428CBF01230023DBB2002BD6
:100BE0000CD180211C4803F093F80346002B0CBF66
:100BF00001230023DBB2002BE2D12FE000BF2DE068
:100C000002F0ACFC0246BB68D31A40F2F3129342E6
:100C100094BF01230023DBB2002BACD11FE000BF47
:100C20007C820008A801002010010020A882000892
:100C3000B8820008FC010020E8000020C4820008FF
:100C4000E88200081C0100205C8100087081000817
:100C50004C010020500200200010024000BF97F815
:100C60003730002B27D0A54B00221A70A44801F082
:100C7000BCFB00220021A24801F04DFBA149A04885
:100C800001F09CFB012200219D4801F044FB9E499C
:100C90009B4801F093FB9D4806F0DCF9012001F030
:100CA0005BFF02F05BFC0346994A1360994B0822F4
:100CB0001A7000F04CBD924801F097FB0022002111
:100CC0008F4801F028FB94498D4801F077FB934849
:100CD00006F0C0F9012001F03FFF02F03FFC03469F
:100CE0008B4A13608B4B01221A7000F030BD02F06A
:100CF00035FC0246864B1B68D31A40F2F31293422E
:100D00008CBF01230023DBB2002B00F026850020DE
:100D100001F022FF01F0CCFF00220021784801F011
:100D2000FAFA7F49764801F049FB01220021744814
:100D300001F0F1FA7B49724801F040FB7A4806F075
:100D400089F9012001F054FF02F008FC0346774ABC
:100D50001360704B02221A7000F0FFBC744B1B78BA
:100D6000DBB21A46734B1B689A4214BF012300235F
:100D7000DBB2002B16D06E4B1B78DBB21A466D4BE4
:100D80001A606B4B1B78DBB21A466B496B4806F056
:100D900069F9012200215A4801F0BDFA6749584813
:100DA00001F00CFB624B1B78DBB2042B8CBF0123E0
:100DB0000023DBB2002B24D05E4B4FF0FF321A60D1
:100DC000002001F015FF01F073FF4D4801F00DFB0D
:100DD000002200214A4801F09EFA5949484801F092
:100DE000EDFA584806F036F9012002F099F802F0C1
:100DF000B5FB0346464A1360464B03221A7000F0C7
:100E0000AFBC02F0ABFB0246484B1B68D31A47F25B
:100E1000305293428CBF01230023DBB2002B00F041
:100E20009F84444B4FF0FF321A60002001F0E0FE37
:100E3000454806F00FF9374B07221A7000F090BCB6
:100E400002F08CFB0246324B1B68D31A3F4AA2FBCE
:100E500003239B093B613E4B1B683A699A4210D0C1
:100E60003B4A3B6913603A693A49344806F0FAF85C
:100E700001220021224801F04EFA3049204801F0B9
:100E80009DFA02F06BFB0246214B1B68D31A42F21B
:100E90000F7293428CBF01230023DBB2002B00F0C2
:100EA00062842B4B40F2E7321A60002002F038F8DF
:100EB000134801F09AFA00220021114801F02BFAA0
:100EC00025490F4801F07AFA012200210C4801F06F
:100ED00022FA14490A4801F071FA204806F0BAF8DB
:100EE000012001F0B5FE02F039FB03460F4A136002
:100EF000084B04221A7000F036BC00BF48010020E5
:100F000010010020FC8200080C8300081C830008EC
:100F1000200100201C01002048830008588300089D
:100F20007C8300088C830008A08300082401002033
:100F3000EC02002050000020C0830008280100209F
:100F4000D4830008E883000814840008D34D62109D
:100F500054000020388400084884000858840008A1
:100F60008A4B1B78DBB21A46894B1B689A4214BF26
:100F700001230023DBB2002B16D0844B1B78DBB29D
:100F80001A46834B1A60814B1B78DBB21A468149A3
:100F9000814806F067F801220021804801F0BBF982
:100FA0007D497E4801F00AFA784B1B78DBB2042BAE
:100FB0008CBF01230023DBB2002B21D0744B4FF0F8
:100FC000FF321A60002001F043FE744801F00DFA70
:100FD00000220021714801F09EF971496F4801F02B
:100FE000EDF9704806F036F8012001F099FF02F0A3
:100FF000B5FA03466C4A13606C4B05221A70B5E3D0
:1010000002F0ACFA02466A4B1B68D31A47F2305220
:1010100093428CBF01230023DBB2002B00F0A68398
:101020005B4B4FF0FF321A60002001F011FE614867
:1010300006F010F85D4B07221A7097E302F08EFA63
:101040000246594B1B68D31A5B4AA2FB03239B0938
:101050007B6102F083FA0246534B1B68D31A42F2BB
:10106000107293428CBF01230023DBB2002B02D00D
:10107000002001F055FF514B1B687A699A4210D04D
:101080004E4A7B6913607A694D49434805F0EAFF8F
:1010900001220021414801F03EF93F493F4801F05B
:1010A0008DF902F05BFA02463F4B1B68D31A47F2F8
:1010B0002F5293428CBF01230023DBB2002B00F0A0
:1010C00058833E4B40F2E7321A60002001F028FFBF
:1010D000324801F08AF900220021304801F01BF962
:1010E00038492E4801F06AF9374805F0B3FF2F4B15
:1010F00006221A703DE30023344A3921344800F0B7
:1011000035FC0521324800F0D5FE6421304800F05E
:10111000AFFE40F2E7312E4800F0BBFE2D4B1B68BE
:101120002822DA63962002F025FA2B4804F0AEFE5E
:10113000002387F83630642303227221234803F00A
:10114000E9FB0346002B14BF01230023DBB2002B75
:1011500003D0224805F07EFF6FE0002387F835308A
:1011600067E01F4804F07EF997F835300133032219
:1011700019461C4805F006FF154800F0D5FC03464B
:10118000002B31D0012387F8363056E0ED020020E5
:1011900058000020C0830008280100201001002012
:1011A000788400088C840008200100201C010020A5
:1011B00024010020B8840008D34D62105C00002098
:1011C000DC840008EC84000800850008FC01002095
:1011D000E80000205C020020A40200202485000812
:1011E000500200205485000897F835300133194625
:1011F000B44805F0C7FE97F83530012B14D897F89E
:1012000035309A1C0323B049B04805F02BFF01226A
:101210000021AF4801F07FF8AC49AD4801F0CEF8AD
:101220004FF4FA7002F0A6F997F83530013387F8D9
:10123000353097F83530022B93D9A64B1B68002226
:10124000DA63A54804F0B2FD97F83630002B00F0C1
:10125000A0800321A14800F0C2FB0346FB850721C3
:101260009E4800F0BCFB0346BB8509219B4800F06B
:10127000B6FB03467B850A21984800F0B0FB034685
:101280003B854FF000033B603C8D7A8DB98DF88D26
:101290003B4600932346FFF773F987ED090A8C4814
:1012A00001F0A3F800220021894801F034F88C49AC
:1012B000874801F083F8D7ED097AF5EEC07AF1EEB0
:1012C00010FA10D58749814805F0CCFEF98DBA8D0A
:1012D000788D3B8D00930346834805F053FE834889
:1012E00005F0B8FE4BE0D7ED097AFDEEE77A17EE90
:1012F000903A3B62D7ED097A9FED7D7A67EE877A67
:10130000FDEEE77A17EE903A7A4A82FB031251110A
:10131000DA178A1A642101FB02F29B1AFB61FB694E
:101320003A6A7549694805F09DFEF98DBA8D788D48
:101330003B8D009303466C4805F024FED7ED007A00
:10134000FDEEE76AD7ED007A9FED6C7A67EE877A5B
:10135000FDEEE77A17EE902A694B83FB0213991191
:10136000D317CB1A4FF47A7101FB03F3D31A00930E
:1013700016EE903AFA69396A624805F003FE0122D6
:101380000021534800F0C7FF5049514801F016F8BA
:1013900018E04F4801F029F8002200214C4800F0E5
:1013A000BAFF59494A4801F009F80122002148488A
:1013B00000F0B1FF5549464801F000F803215448B8
:1013C00005F0E0FD02F0CAF8B8610FE0514804F002
:1013D00049F8FFF7FFF90346002B14BF0123002350
:1013E000DBB2002B11D1322002F0C4F802F0B6F8C3
:1013F0000246BB69D31A43F69722934294BF012356
:101400000023DBB2002BE1D100E000BF424B1B7890
:10141000002B00F0B1812E4800F0E7FF00220021F0
:101420002B4800F078FF3D49294800F0C7FF3C48B1
:1014300005F010FE012001F0B5FB02F08FF8034625
:10144000384A1360344B07221A70A4E102F086F880
:101450000246344B1B68D31A40F6C31293428CBF2A
:1014600001230023DBB2002B00F08981002001F072
:1014700099FB01220021164800F04DFF2A4914482B
:1014800000F09CFF294805F0E5FD4FF4FA6002F0FA
:1014900071F80F4800F0A9FF002200210C4800F06D
:1014A0003AFF23490A4800F089FF01220021084839
:1014B00000F031FF1F49064800F080FF164B002264
:1014C0001A705CE1748500089485000828010020EA
:1014D000100100205C020020A4020020E80000208F
:1014E000A8850008B8850008CC850008FC850008A0
:1014F0000000C8421F85EB511C86000800007A449A
:10150000D34D62102C8600085C8600086C860008AB
:101510007C860008500200201C010020B0860008D4
:10152000C086000820010020DC860008F086000844
:101530005C8100087081000802F010F80246974BA9
:101540001B68D31A40F2BB2293428CBF01230023B5
:10155000DBB2002B00F01681002001F0FDFA904B69
:101560001B780133DAB28E4B1A708D4B1B781A46FA
:101570008C498D4805F076FD002200218B4800F053
:10158000CAFE8B49894800F019FF012200218748D3
:1015900000F0C1FE8449854800F010FF804B1B78A5
:1015A0001946844805F0EEFC012001F0B9FC01F079
:1015B000D5FF0346794A13607F4B09221A70E1E098
:1015C00001F0CCFF0246754B1B68D31A7B4AA2FB85
:1015D00003239B093B637A4B1B683A6B9A4210D0FA
:1015E000774A3B6B13603A6B76496F4805F03AFDDA
:1015F000012200216D4800F08EFE6B496B4800F01F
:10160000DDFE01F0ABFF0246644B1B68D31A42F2C9
:101610000F7293428CBF01230023DBB2002B00F03A
:10162000B480674B40F2E7321A60002001F078FC8A
:10163000012200215D4800F06EFE63495B4800F026
:10164000BDFE574B1B781946604805F09BFC0120F6
:1016500001F0A8FA01F082FF0346504A1360564B8E
:101660000A221A7091E001F079FF02464B4B1B6889
:10167000D31A40F2CF7293428CBF01230023DBB216
:10168000002B00F08580002001F08CFA444B1B7881
:10169000002B24D100220021444800F03CFE4449A4
:1016A000424800F08BFE01220021404800F033FE4A
:1016B00047493E4800F082FE394B1B7801331946FA
:1016C000444805F05FFC012001F046FA01F046FFB6
:1016D0000346324A1360384B08221A7058E03348E8
:1016E00000F083FE00220021304800F014FE3A4949
:1016F0002E4800F063FE012200212C4800F00BFE72
:1017000036492A4800F05AFE354805F0A3FC4FF44C
:10171000FA6001F02FFF254800F067FE002200214B
:10172000224800F0F8FD2F49204800F047FE012232
:1017300000211E4800F0EFFD2B491C4800F03EFE42
:101740001D4B00221A7023E000BFFFF788B900BFCD
:10175000FFF785B900BFFFF782B900BFFFF77FB978
:1017600000BFFFF77CB900BFFFF779B900BFFFF7F3
:1017700076B900BFFFF773B900BFFFF770B900BFBC
:10178000FFF76DB900BFFFF76AB900BFFFF767B990
:1017900000BFFFF764B9FFF762B900BF2001002066
:1017A00048010020108700082801002010010020B7
:1017B000FC820008248700081C010020D34D621021
:1017C00060000020388400085487000868870008FB
:1017D0000C83000890870008B8870008C4870008B9
:1017E000D48700085C8100087081000880B582B051
:1017F00000AF786039607B68012B07D13B684FF6FA
:10180000FF72934202D1094800F086F87B68002BF2
:1018100007D13B684FF6FF72934202D1034800F0B4
:1018200095F800BF0837BD4680BD00BFE800002026
:1018300080B500AF4FF6FF710120FFF7D7FF80BDE5
:1018400080B500AF4FF6FF710020FFF7CFFF80BDDE
:1018500080B582B000AF786039607B68012B07D11A
:101860003B684FF6FF72934202D1094800F054F8EA
:101870007B68002B07D13B684FF6FF72934202D181
:10188000034800F063F800BF0837BD4680BD00BFC5
:101890005801002080B500AF4FF6FF710120FFF71F
:1018A000D7FF80BD80B500AF4FF6FF710020FFF776
:1018B000CFFF80BD80B582B000AF786039607B68B3
:1018C000012B07D13B684FF6FF72934202D10948C2
:1018D00000F022F87B68002B07D13B684FF6FF72BF
:1018E000934202D1034800F031F800BF0837BD46EB
:1018F00080BD00BF8001002080B500AF4FF6FF71B2
:101900000120FFF7D7FF80BD80B500AF4FF6FF7114
:101910000020FFF7CFFF80BD80B483B000AF7860B8
:10192000094A7B681A607B6800221A717B68002272
:101930009A607B6800221A737B6818460C37BD4694
:101940005DF8047B704700BF0C88000880B483B04A
:1019500000AF7860044A7B681A607B6818460C37D1
:10196000BD465DF8047B70470C88000880B584B0E4
:1019700000AFF8607A603B600B46FB72FB687A68E8
:101980009A60FB7A5B00DAB2FB681A73FB681B682B
:101990001B683968F8689847034618461037BD46F3
:1019A00080BD80B582B000AF7860396092217868E0
:1019B00000F0B6FB034603F0FC03242B14BF012305
:1019C0000023DBB2002B01D0002304E00121786862
:1019D00000F0D8F8012318460837BD4680BD80B412
:1019E00083B000AF78600B46FB70FB787A680433F5
:1019F0005B001344DB8818460C37BD465DF8047B5A
:101A0000704780B584B000AF786039600121786894
:101A100000F099F80121786800F0D2F840F6B8316A
:101A2000786800F041F8786800F037F9034683F0F1
:101A30000103DBB2002B01D0002331E00C233A6814
:101A40009521786800F0BFFA0346FB73002178689F
:101A500000F079F80121786800F0B2F840F6B8316A
:101A6000786800F021F8786800F017F9034683F0F1
:101A70000103DBB2002B01D0002311E0FB7B002B24
:101A80000CD03B6803F10C020C239521786800F020
:101A90009AFA0346002B01D0012300E0002300BF87
:101AA00018461037BD4680BD80B584B000AF786061
:101AB00039603B68002B10D105E0012001F05AFD90
:101AC000184803F0CFFC786800F0E7F8034683F08D
:101AD0000103DBB2002BF0D121E03B68002B1ED0CC
:101AE0000023FB6008E0012001F044FD0D4803F0F5
:101AF000B9FCFB680133FB60786800F0CEF8034660
:101B000083F00103DBB2002B05D0FA683B689A42F0
:101B100001D2012300E00023002BE4D100BF1037E5
:101B2000BD4680BD5002002080B582B000AF786015
:101B30007B680E3319467868FFF763FF0346184643
:101B40000837BD4680BD80B582B000AF78600B46D7
:101B5000FB700021786800F033F80221786800F00B
:101B600089F8FB78002B03D0786800F0A9F802E030
:101B7000786800F011F9786800F042F800BF083783
:101B8000BD4680BD80B584B000AF78600B46FB7069
:101B90008021786800F0C4FA0346FB73FA78F97B79
:101BA0000023786800F0E7F90346FB73FB7B1A46D5
:101BB0008021786800F0B8F900BF1037BD4680BDBD
:101BC00080B584B000AF78600B46FB7080217868E8
:101BD00000F0A6FA0346FB73FA78F97B01237868D4
:101BE00000F0C9F90346FB73FB7B1A468021786835
:101BF00000F09AF9034618461037BD4680BD000034
:101C000080B586B000AF7860042301228021786817
:101C100000F01BFA0346FB744FF47A73FB60002359
:101C20007B6108E0012001F0A5FC114803F01AFCDB
:101C30007B6901337B6104228021786800F0EBF935
:101C40000346002B05D07A69FB689A4201DA01232A
:101C500000E00023002BE5D17A69FB689A4201DBA2
:101C6000002300E0FB7C18461837BD4680BD00BF4E
:101C70005002002080B584B002AF78600B46FB7044
:101C8000FA78022300930323AF21786800F005FA65
:101C9000034618460837BD4680BD80B582B000AF08
:101CA00078600622A321786800F0B5F90346002B7E
:101CB00014BF01230023DBB218460837BD4680BDA0
:101CC00080B582B000AF786030220021786800F0E3
:101CD0002BF901220121786800F026F90022022167
:101CE000786800F021F900220321786800F01CF9DF
:101CF00000220421786800F017F942220521786853
:101D000000F012F900220621786800F00DF9002297
:101D10000721786800F008F950220821786800F05F
:101D200003F900220921786800F0FEF800220A2158
:101D3000786800F0F9F800220B21786800F0F4F8D8
:101D400020220C21786800F0EFF804220D21786839
:101D500000F0EAF800220E21786800F0E5F8302261
:101D60000F21786800F0E0F801221021786800F077
:101D7000DBF850221121786800F0D6F800221221F9
:101D8000786800F0D1F806221321786800F0CCF8CA
:101D900000BF0837BD4680BD80B582B000AF786017
:101DA00000220021786800F0BFF800220121786845
:101DB00000F0BAF800220221786800F0B5F840225D
:101DC0000321786800F0B0F802220421786800F05E
:101DD000ABF800220521786800F0A6F81022062151
:101DE000786800F0A1F803220721786800F09CF8D9
:101DF00050220821786800F097F8102209217868AD
:101E000000F092F803220A21786800F08DF8002291
:101E10000B21786800F088F800220C21786800F027
:101E200083F800220D21786800F07EF824220E212C
:101E3000786800F079F800220F21786800F074F8D3
:101E400000221021786800F06FF850221121786884
:101E500000F06AF800221221786800F065F8062286
:101E60001321786800F060F800BF0837BD4680BDD8
:101E700080B582B000AF78600B46FB70FB781A46E5
:101E80008121786800F050F8034618460837BD46AF
:101E900080BD80B582B000AF78600B467B80BA1CF5
:101EA0000223CA21786800F016F80346184608375E
:101EB000BD4680BD80B582B000AF78600B46FB7038
:101EC000FB781A46AA21786800F02EF803461846D7
:101ED0000837BD4680BD80B588B004AFF8607A6031
:101EE0001A460B46FB7213463B81FB689868FB68F9
:101EF0001B7B1946FB7A9AB2642302933B890193B8
:101F00007B680093012302F0D9F90346002B0CBF34
:101F100001230023DBB2002B01D0012300E00023CA
:101F200018461037BD4680BD80B586B004AF7860D6
:101F30000B46FB701346BB707B6898687B681B7B05
:101F40001946FB789AB26423029301230193BB1CC8
:101F50000093012302F0B2F90346002B0CBF0123CA
:101F60000023DBB2002B01D0012300E00023184640
:101F70000837BD4680BD80B485B000AF78600846A4
:101F800011461A460346FB700B46BB7013467B7026
:101F90007B78012202FA03F3FB7397F90F30DB43DE
:101FA0005AB297F9033013405AB2B9787B7801FAE4
:101FB00003F35BB213435BB2DBB218461437BD4682
:101FC0005DF8047B704780B588B004AFF8607A6034
:101FD0001A460B467B8113463B81FB689868FB6879
:101FE0001B7B19467A89642302933B8901937B68A2
:101FF0000093012302F05CFA0346002B0CBF01237F
:102000000023DBB2002B01D0012300E0002318469F
:102010001037BD4680BD80B582B000AF78600B46FA
:102020007B8013467B707B881946786800F078F8CF
:1020300003461A467B7842FA03F3DBB203F001034E
:10204000DBB218460837BD4680BD80B584B000AF0E
:102050007860084611461A4603467B800B467B7023
:1020600013463B707B881946786800F059F80346A0
:10207000FB737A783B78F97B7868FFF77CFF03463F
:10208000FB737B88DBB2FA7B19467868FFF74CFF5D
:10209000034618461037BD4680BD80B584B000AFFA
:1020A0007860084611461A4603467B800B467B70D3
:1020B00013463B707B881946786800F031F8034678
:1020C000FB733B7E012202FA03F3DBB2013BBB73DD
:1020D0007A78BB7B13407B70BA7B3B7802FA03F3C0
:1020E000BB7397F90E30DB435AB297F90F301340A8
:1020F0005BB2FB737A783B7802FA03F35AB297F932
:102100000F3013435BB2FB737B88DBB2FA7B19465B
:102110007868FFF709FF034618461037BD4680BDB3
:1021200080B588B004AF78600B467B800023FB73DA
:102130007B6898687B681B7B19467A8864230293C6
:102140000123019307F10F030093012302F0B0F97B
:102150000346002B14BF01230023DBB2002B01D068
:10216000002300E0FB7B18461037BD4680BD80B5DC
:1021700082B000AF0346FB80FB88184601F0FAF9F5
:1021800000BF0837BD4680BD80B586B002AF78601D
:102190000B46FB701346BB70FB7823F00F03FB73F9
:1021A000FB781B01BB737B68DB7A002B07D0FB7BC2
:1021B00043F00803FB73BB7B43F00803BB73BB789E
:1021C000012B08D1FB7B43F00103FB73BB7B43F086
:1021D0000103BB730AE0BB78002B07D1FB7B23F024
:1021E0000103FB73BB7B23F00103BB73FB7B43F059
:1021F0000403DBB23B720120FFF7B9FFFB7B7B726C
:10220000BB7B43F00403DBB2BB720120FFF7AFFFDF
:10221000BB7BFB727B6818687B681B79194607F1EA
:1022200008024FF47A730093042301F049FF00BFC2
:102230001037BD4680BD80B584B000AFF860B9608E
:1022400011461A460B46FB711346BB71FB68BA6810
:102250001A60FB68FA791A71FB68BA795A71FB68DF
:102260003A7E9A71FB6828229A72FB680622DA711C
:10227000FB680C221A72FB6814225A72FB6808224F
:10228000DA723220FFF773FF00223321F868FFF77C
:102290007BFF00223321F868FFF776FF0520FFF768
:1022A00066FF00223221F868FFF76EFF0520FFF776
:1022B0005EFF00222021F868FFF766FF0520FFF788
:1022C00056FFFB68DB7900221946F868FFF75CFFD0
:1022D000FB681B7A00221946F868FFF755FFFB6878
:1022E0005B7A00221946F868FFF74EFFFB689B7A7D
:1022F00000221946F868FFF747FF00220121F8681D
:10230000FFF742FF00220221F868FFF73DFF00BF00
:102310001037BD4680BD80B584B000AF78600B46F5
:10232000FB701346BB700023FB737B685B79FA7804
:102330009A4203D37B685B79013BFB707B689B7996
:10234000BA789A4203D37B689B79013BBB70BB7818
:10235000002B02D1FB78FB7313E0BB78012B03D178
:10236000FB784033FB730CE0BB78022B03D1FB7886
:102370001433FB7305E0BB78032B02D1FB78543395
:10238000FB73FB7B63F07F03DBB2002219467868A6
:10239000FFF7FAFE00BF1037BD4680BD80B582B0A2
:1023A00000AF78600B46FB70FB7801221946786815
:1023B000FFF7EAFE00BF0837BD4680BD80B582B09A
:1023C00000AF7860396007E03B685A1C3A601B78C0
:1023D00019467868FFF7E2FF3B681B78002BF3D1C2
:1023E00000BF00BF0837BD4680BD80B582B000AFDA
:1023F0007860002201217868FFF7C6FE0520FFF70C
:10240000B6FE00BF0837BD4680BD000080B58EB067
:1024100000AF78607B681B687B627B6A1B683B62ED
:10242000786A01F01DFE3B6A6B4A934208D16B4B00
:102430007B634023FB85694B3B638023BB8512E0B4
:102440003B6A674A93420AD1644B7B634FF48063D3
:10245000FB85624B3B634FF40063BB8503E0786A06
:1024600001F0BAFC5EE011233B6101237B61002394
:10247000BB61FB8DFB6007F10C031946786B01F023
:10248000AFF9BB8DFB6007F10C031946386B01F007
:10249000A7F9BB8D01221946386B01F051FC0023CE
:1024A000BB621CE0FB8D00221946786B01F048FCF2
:1024B0000120FFF75CFEFB8D01221946786B01F0CD
:1024C0003FFC0120FFF753FEBB8D1946386B01F02E
:1024D0001FFC0346012B06D0BB6A0133BB62BB6AFB
:1024E000082BDFDD00E000BFBB8D00221946386BF2
:1024F00001F026FC0120FFF73AFEFB8D0122194670
:10250000786B01F01DFC0120FFF731FEBB8D01222D
:102510001946386B01F014FC0120FFF728FE786A99
:1025200001F05AFC7B6828229A727B680622DA71D5
:102530007B680C221A727B6814225A727B6808220C
:10254000DA723220FFF713FE002233217868FFF79A
:102550001BFE002233217868FFF716FE0520FFF7E7
:1025600006FE002232217868FFF70EFE0520FFF7F5
:10257000FEFD002220217868FFF706FE0520FFF708
:10258000F6FD7B68DB79002219467868FFF7FCFDD1
:102590007B681B7A002219467868FFF7F5FD7B6897
:1025A0005B7A002219467868FFF7EEFD7B689B7A1C
:1025B000002219467868FFF7E7FD002201217868BC
:1025C000FFF7E2FD002202217868FFF7DDFD00BF82
:1025D0003837BD4680BD00BF0054004000040240B3
:1025E0000058004080B500AF00F052FF00F01CF82A
:1025F00000F0B6F900F084F800F0B0F800F006F949
:1026000000F078F900F0D8F8054803F0CFFB082176
:10261000044803F0C3FCFEF7B5F900BFFDE700BFB7
:10262000A40200205C02002080B594B000AF07F146
:10263000200330220021184604F00CFE07F10C03A1
:1026400000221A605A609A60DA601A610023BB6047
:10265000294B1B6C284A43F080531364264B1B6C98
:1026600003F08053BB60BB6800237B60234B1B6877
:10267000224A43F480431360204B1B6803F48043D9
:102680007B607B680A233B620123FB6210233B6370
:1026900001237B630223BB630023FB6308233B64AA
:1026A000A8237B640223BB640423FB6407F120039B
:1026B000184602F0E7FE0346002B01D000F046FA70
:1026C0000F23FB6002233B6100237B614FF4A05387
:1026D000BB614FF48053FB6107F10C0305211846E1
:1026E00003F048F90346002B01D000F02FFA00BF99
:1026F0005037BD4680BD00BF00380240007000402A
:1027000080B500AF124B134A1A60114B124A5A603F
:102710000F4B00229A600E4B0022DA600C4B4FF4F4
:1027200080421A610A4B00225A61094B00229A61C9
:10273000074B0022DA61064B00221A62044801F0BE
:102740004BFB0346002B01D000F000FA00BF80BD18
:10275000A801002000540040A086010080B500AF11
:10276000124B134A1A60114B124A5A600F4B002247
:102770009A600E4B0022DA600C4B4FF480421A61D3
:102780000A4B00225A61094B00229A61074B002232
:10279000DA61064B00221A62044801F01DFB034671
:1027A000002B01D000F0D2F900BF80BDFC01002059
:1027B00000580040A086010080B500AF114B124ABE
:1027C0001A60104B00225A600E4B40F6FF729A605E
:1027D0000C4802F003FE0346002B01D000F0B6F9CE
:1027E000084B05225A60074B4FF47A729A600548ED
:1027F00002F0F4FD0346002B01D000F0A7F900BF62
:1028000080BD00BF500200200030004080B58EB077
:1028100000AF07F1280300221A605A609A60DA605C
:1028200007F1200300221A605A603B1D00221A6043
:102830005A609A60DA601A615A619A612C4B4FF0C3
:1028400080421A602A4B53225A60294B00229A6018
:10285000274B6322DA60264B00221A61244B0022A8
:102860009A61234803F052FA0346002B01D000F08E
:102870006DF94FF48053BB6207F1280319461C48D9
:1028800003F006FE0346002B01D000F05FF9184864
:1028900003F02BFB0346002B01D000F057F9002377
:1028A0003B6200237B6207F120031946104804F0C5
:1028B000F5F90346002B01D000F048F960237B6056
:1028C0000023BB600023FB6000237B613B1D0822CB
:1028D0001946074803F01AFD0346002B01D000F00B
:1028E00035F9034800F074FC00BF3837BD4680BDA1
:1028F0005C02002080B582B000AF3B4600221A6027
:102900005A60154B154A1A60134B53225A60124BEA
:1029100000229A60104B40F2E732DA600E4B002240
:102920009A610D4803F0F2F90346002B01D000F044
:102930000DF900233B6000237B603B4619460648A7
:1029400004F0ACF90346002B01D000F0FFF800BF03
:102950000837BD4680BD00BFA40200200010004023
:1029600080B58CB000AF07F11C0300221A605A60DA
:102970009A60DA601A610023BB61664B1B6B654A83
:1029800043F080031363634B1B6B03F08003BB6155
:10299000BB6900237B615F4B1B6B5E4A43F0040302
:1029A00013635C4B1B6B03F004037B617B690023A7
:1029B0003B61584B1B6B574A43F001031363554B64
:1029C0001B6B03F001033B613B690023FB60514B30
:1029D0001B6B504A43F0100313634E4B1B6B03F009
:1029E0001003FB60FB680023BB604A4B1B6B494A2A
:1029F00043F002031363474B1B6B03F00203BB60FE
:102A0000BB6800237B60434B1B6B424A43F00803C7
:102A10001363404B1B6B03F008037B607B68002251
:102A20004FF400613C4801F08BF9002279213B48CA
:102A300001F086F901220421384801F081F90423CC
:102A4000FB614FF404133B6201237B6207F11C031B
:102A50001946314800F0C4FE0123FB614FF4041312
:102A60003B6201237B6207F11C0319462C4800F0EE
:102A7000B7FE8023FB6100233B6201237B6207F1E9
:102A80001C031946274800F0ABFE4FF40063FB61BE
:102A900001233B6200237B620023BB6207F11C031E
:102AA00019461D4800F09CFE7D23FB6101233B621B
:102AB00000237B620023BB6207F11C031946174801
:102AC00000F08EFE00220221062000F052FE0620B9
:102AD00000F06BFE00220221082000F04AFE0820D0
:102AE00000F063FE002208210C4801F029F90022C1
:102AF00020210A4801F024F900221021074801F0A2
:102B00001FF900224021054801F01AF900BF3037B3
:102B1000BD4680BD0038024000080240000C024063
:102B2000000002400010024080B582B000AF786023
:102B30007B681B68044A934201D100F0CBF800BFC8
:102B40000837BD4680BD00BF0010004080B400AF14
:102B500072B600BF00BFFDE780B582B000AF03468C
:102B6000FB71FB79002B01D0012200E000220A4B0F
:102B70001A70FB7983F00103DBB2002B07D0074BFF
:102B800000221A8000220821054801F0D9F800BF70
:102B90000837BD4680BD00BFF002002000030020C2
:102BA000000C024080B582B000AF0346FB71FB7998
:102BB000002B01D0012200E000220A4B1A70FB79A1
:102BC00083F00103DBB2002B07D0074B00221A80F1
:102BD00000222021054801F0B3F800BF0837BD46A8
:102BE00080BD00BFF102002002030020000C024063
:102BF00080B582B000AF0346FB71FB79002B01D09A
:102C0000012200E000220E4B1A70FB79002B02D04B
:102C10000C4B00221A60FB7983F00103DBB2002B1E
:102C20000AD0094B00221A80064B00221A600022AB
:102C30001021064801F084F800BF0837BD4680BD6A
:102C4000EE020020F8020020F2020020000C0240F8
:102C500080B582B000AF0346FB71FB79002B01D039
:102C6000012200E000220E4B1A70FB79002B02D0EB
:102C70000C4B00221A60FB7983F00103DBB2002BBE
:102C80000AD0094B00221A80064B00221A6000224B
:102C90004021064801F054F800BF0837BD4680BD0A
:102CA000EF020020FC020020F4020020000C024091
:102CB00080B400AF054B00221A70054B00221A7039
:102CC00000BFBD465DF8047B704700BFEC020020EA
:102CD000ED02002080B582B000AF744B1B78DBB2F0
:102CE000002B14BF01230023DBB2002B3CD0704B20
:102CF0001B6801336E4A13606D4B1B6840F2DC5257
:102D0000934201D8282301E04FF4CC73FB80684B39
:102D10001B6840F2DC52934201D80A2300E00823EA
:102D2000BB80644B1B889BB201339AB2614B1A8003
:102D3000604B1B889BB2FA889A4294BF0123002300
:102D4000DBB2002B02D05B4B00221A80594B1B8850
:102D50009BB2BA889A4201D9012300E000231A46A7
:102D60001021554800F0ECFF544B1B78DBB2002BD0
:102D700014BF01230023DBB2002B3CD0504B1B6857
:102D800001334F4A13604E4B1B6840F2DC529342B2
:102D900001D8282301E04FF4CC737B80484B1B689B
:102DA00040F2DC52934201D80A2300E008233B8022
:102DB000444B1B889BB201339AB2424B1A80414B61
:102DC0001B889BB27A889A4294BF01230023DBB20E
:102DD000002B02D03B4B00221A803A4B1B889BB23F
:102DE0003A889A4201D9012300E000231A46402183
:102DF000314800F0A5FF344B1B78DBB2002B14BF29
:102E000001230023DBB2002B20D0304B1B889BB268
:102E100001339AB22D4B1A802C4B1B889BB2312B5D
:102E20008CBF01230023DBB2002B02D0274B0022F2
:102E30001A80264B1B889BB2042B01D8012300E08B
:102E400000231A4608211C4800F07AFF204B1B780B
:102E5000DBB2002B14BF01230023DBB2002B20D0F8
:102E60001C4B1B889BB201339AB21A4B1A80194B28
:102E70001B889BB2312B8CBF01230023DBB2002BBC
:102E800002D0144B00221A80124B1B889BB2042BD9
:102E900001D8012300E000231A462021064800F053
:102EA0004FFF00BF0837BD4680BD00BFEE020020C7
:102EB000F8020020F2020020000C0240EF02002085
:102EC000FC020020F4020020F00200200003002099
:102ED000F10200200203002080B483B000AF03465B
:102EE000FB80FB88012B07D10B4B1B78DBB2013336
:102EF000DAB2094B1A7009E0FB88042B06D1074BA4
:102F00001B78DBB20133DAB2044B1A7000BF0C3706
:102F1000BD465DF8047B7047EC020020ED02002006
:102F200080B582B000AF0346FB71FB79002B01D066
:102F3000002300E001231A460421064800F000FFA8
:102F400001220121034800F0FBFE00BF0837BD4607
:102F500080BD00BF000C024080B584B000AF786037
:102F60004FF400610C4800F004FF7A6813465B00E0
:102F70001344DB00FB6000E000BFFB685A1EFA60F0
:102F8000002B14BF01230023DBB2002BF4D100BFC0
:102F900000BF1037BD4680BD0008024080B483B03A
:102FA00000AF00237B60104B5B6C0F4A43F48043FF
:102FB00053640D4B5B6C03F480437B607B680023A0
:102FC0003B60094B1B6C084A43F080531364064B6B
:102FD0001B6C03F080533B603B6800BF0C37BD4661
:102FE0005DF8047B704700BF0038024080B58CB0AC
:102FF00000AF786007F11C0300221A605A609A60E3
:10300000DA601A617B681B68324A93422CD1002334
:10301000BB61314B1B6B304A43F0020313632E4BF1
:103020001B6B03F00203BB61BB69C023FB6112236E
:103030003B6200237B620323BB620423FB6207F134
:103040001C031946254800F0CBFB00237B61224B73
:103050001B6C214A43F4001313641F4B1B6C03F4D5
:1030600000137B617B6931E07B681B681C4A9342DB
:103070002CD100233B61184B1B6B174A43F0020312
:103080001363154B1B6B03F002033B613B694FF469
:103090004063FB6112233B6200237B620323BB621C
:1030A0000423FB6207F11C0319460C4800F098FB4F
:1030B0000023FB60084B1B6C074A43F48003136436
:1030C000054B1B6C03F48003FB60FB6800BF3037CB
:1030D000BD4680BD0054004000380240000402405C
:1030E0000058004080B582B000AF78607B681B68F4
:1030F000154A93420ED1154B1B6C144A23F400134E
:1031000013644021124800F007FD8021104800F0B0
:1031100003FD14E07B681B680E4A93420FD10B4BF2
:103120001B6C0A4A23F4800313644FF4806108483F
:1031300000F0F2FC4FF40061054800F0EDFC00BF28
:103140000837BD4680BD00BF005400400038024033
:10315000000402400058004080B584B000AF7860A1
:103160007B681B68B3F1804F0ED10023FB60164BC8
:103170001B6C154A43F001031364134B1B6C03F0E3
:103180000103FB60FB681AE07B681B680F4A9342EF
:1031900015D10023BB600C4B1B6C0B4A43F0100392
:1031A0001364094B1B6C03F01003BB60BB68002267
:1031B0000221362000F0DDFA362000F0F6FA00BFDA
:1031C0001037BD4680BD00BF0038024000100040EF
:1031D00080B588B000AF786007F10C0300221A6058
:1031E0005A609A60DA601A617B681B68B3F1804F9D
:1031F0001DD10023BB60104B1B6B0F4A43F0010332
:1032000013630D4B1B6B03F00103BB60BB6804230E
:10321000FB6002233B6100237B610023BB61012330
:10322000FB6107F10C031946044800F0D9FA00BF0E
:103230002037BD4680BD00BF00380240000002407C
:1032400080B400AF00BFFDE780B400AF00BFFDE772
:1032500080B400AF00BFFDE780B400AF00BFFDE762
:1032600080B400AF00BFFDE780B400AF00BFBD4633
:103270005DF8047B704780B400AF00BFBD465DF8C9
:10328000047B704780B400AF00BFBD465DF8047B8F
:10329000704780B500AF00F04DF900BF80BD80B52C
:1032A00000AF012000F080FD00BF80BD80B500AF01
:1032B000042000F079FD00BF80BD000080B500AFA4
:1032C000024802F033FF00BF80BD00BFA40200200F
:1032D00080B586B000AFF860B9607A6000237B618A
:1032E0000AE0AFF300800146BB685A1CBA60CAB25C
:1032F0001A707B6901337B617A697B689A42F0DBE3
:103300007B6818461837BD4680BD80B586B000AFD3
:10331000F860B9607A6000237B6109E0BB685A1CE1
:10332000BA601B781846AFF300807B6901337B617C
:103330007A697B689A42F1DB7B6818461837BD468C
:1033400080BD80B483B000AF78604FF0FF33184683
:103350000C37BD465DF8047B704780B483B000AF86
:10336000786039603B684FF400525A600023184679
:103370000C37BD465DF8047B704780B483B000AF66
:103380007860012318460C37BD465DF8047B704712
:1033900080B485B000AFF860B9607A600023184649
:1033A0001437BD465DF8047B7047000080B586B0D9
:1033B00000AF7860144A154BD31A7B617B693B617F
:1033C000134B1B68002B02D1114B124A1A60104B91
:1033D0001A687B6813443A699A4207D203F088FF5F
:1033E00003460C221A604FF0FF3309E0084B1B68BC
:1033F000FB60074B1A687B681344054A1360FB683F
:1034000018461837BD4680BD0000022000040000A9
:10341000040300205804002080B400AF064BD3F80A
:103420008830054A43F47003C2F8883000BFBD46B7
:103430005DF8047B704700BF00ED00E0DFF834D09A
:10344000FFF7EAFF0C480D490D4A002302E0D4586B
:10345000C4500433C4188C42F9D30A4A0A4C0023DE
:1034600001E013600432A242FBD303F047FFFFF7F1
:10347000B9F870470000022000000020CC000020B6
:1034800084880008CC00002058040020FEE70000DB
:1034900080B500AF0E4B1B680D4A43F400731360F8
:1034A0000B4B1B680A4A43F480631360084B1B688C
:1034B000074A43F480731360032000F04FF90F2094
:1034C00000F008F8FFF76AFD0023184680BD00BF32
:1034D000003C024080B582B000AF7860124B1A68A1
:1034E000124B1B7819464FF47A73B3FBF1F3B2FB1E
:1034F000F3F3184600F067F90346002B01D00123CF
:103500000EE07B680F2B0AD8002279684FF0FF305D
:1035100000F02FF9064A7B681360002300E00123C6
:1035200018460837BD4680BD640000206C000020AE
:103530006800002080B400AF064B1B781A46064B8B
:103540001B681344044A136000BFBD465DF8047B4A
:10355000704700BF6C0000200803002080B400AF5B
:10356000034B1B681846BD465DF8047B704700BFDF
:103570000803002080B584B000AF7860FFF7EEFF4D
:10358000B8607B68FB60FB68B3F1FF3F05D00A4B76
:103590001B781A46FB681344FB6000BFFFF7DEFF91
:1035A0000246BB68D31AFA689A42F7D800BF00BF38
:1035B0001037BD4680BD00BF6C00002080B485B0D0
:1035C00000AF78607B6803F00703FB600C4BDB689F
:1035D000BB60BA684FF6FF031340BB60FB681A027A
:1035E000BB68134343F0BF6343F40033BB60044A3A
:1035F000BB68D36000BF1437BD465DF8047B7047DD
:1036000000ED00E080B400AF044BDB681B0A03F060
:1036100007031846BD465DF8047B704700ED00E0E7
:1036200080B483B000AF0346FB7197F90730002BDD
:103630000BDBFB7903F01F02074997F907305B09A1
:10364000012000FA02F241F8232000BF0C37BD46EA
:103650005DF8047B704700BF00E100E080B483B0F8
:1036600000AF03463960FB7197F90730002B0ADB86
:103670003B68DAB20C4997F907301201D2B20B4419
:1036800083F800230AE03B68DAB20849FB7903F0CB
:103690000F03043B1201D2B20B441A7600BF0C3761
:1036A000BD465DF8047B704700E100E000ED00E0FE
:1036B00080B489B000AFF860B9607A60FB6803F04D
:1036C0000703FB61FB69C3F10703042B28BF042335
:1036D000BB61FB690433062B02D9FB69033B00E0A5
:1036E00000237B614FF0FF32BB6902FA03F3DA4338
:1036F000BB681A407B699A404FF0FF317B6901FA41
:1037000003F3D9437B680B40134318462437BD4667
:103710005DF8047B7047000080B582B000AF786030
:103720007B68013BB3F1807F01D301230FE00A4A9C
:103730007B68013B53600F214FF0FF30FFF78EFF96
:10374000054B00229A60044B07221A60002318469A
:103750000837BD4680BD00BF10E000E080B582B0F4
:1037600000AF78607868FFF729FF00BF0837BD46D3
:1037700080BD80B586B000AF0346B9607A60FB7348
:1037800000237B61FFF73EFF78617A68B96878694A
:10379000FFF78EFF024697F90F3011461846FFF7E4
:1037A0005DFF00BF1837BD4680BD80B582B000AF59
:1037B0000346FB7197F907301846FFF731FF00BF4A
:1037C0000837BD4680BD80B582B000AF78607868AC
:1037D000FFF7A2FF034618460837BD4680BD00002C
:1037E00080B489B000AF7860396000237B6100232A
:1037F0003B610023BB610023FB616BE10122FB699C
:1038000002FA03F37B613B681B687A6913403B61F2
:103810003A697B699A4240F05A813B685B6803F0E1
:103820000303012B05D03B685B6803F00303022B05
:1038300030D17B689B68BB61FB695B00032202FAA5
:1038400003F3DB43BA691340BB613B68DA68FB6989
:103850005B0002FA03F3BA691343BB617B68BA6980
:103860009A607B685B68BB610122FB6902FA03F323
:10387000DB43BA691340BB613B685B681B0903F01B
:103880000102FB6902FA03F3BA691343BB617B6867
:10389000BA695A603B685B6803F00303032B17D0D7
:1038A0007B68DB68BB61FB695B00032202FA03F300
:1038B000DB43BA691340BB613B689A68FB695B00F4
:1038C00002FA03F3BA691343BB617B68BA69DA6031
:1038D0003B685B6803F00303022B23D1FB69DA0822
:1038E0007B68083253F82230BB61FB6903F00703A1
:1038F0009B000F2202FA03F3DB43BA691340BB615A
:103900003B681A69FB6903F007039B0002FA03F3A3
:10391000BA691343BB61FB69DA087B680832B9698D
:1039200043F822107B681B68BB61FB695B000322C4
:1039300002FA03F3DB43BA691340BB613B685B687F
:1039400003F00302FB695B0002FA03F3BA69134355
:10395000BB617B68BA691A603B685B6803F44033FB
:10396000002B00F0B4800023FB60604B5B6C5F4A6F
:1039700043F4804353645D4B5B6C03F48043FB6012
:10398000FB685B4AFB699B08023352F82330BB613A
:10399000FB6903F003039B000F2202FA03F3DB43EE
:1039A000BA691340BB617B68524A93422BD07B6853
:1039B000514A934225D07B68504A93421FD07B687E
:1039C0004F4A934219D07B684E4A934213D07B688A
:1039D0004D4A93420DD07B684C4A934207D07B6896
:1039E0004B4A934201D107230EE008230CE0062343
:1039F0000AE0052308E0042306E0032304E0022391
:103A000002E0012300E00023FA6902F003029200C1
:103A10009340BA691343BB613549FB699B08023384
:103A2000BA6941F823203B4B9B68BB613B69DB4390
:103A3000BA691340BB613B685B6803F48013002BD9
:103A400003D0BA693B691343BB61324ABB699360D7
:103A5000304BDB68BB613B69DB43BA691340BB6138
:103A60003B685B6803F40013002B03D0BA693B6921
:103A70001343BB61274ABB69D360264B5B68BB61BC
:103A80003B69DB43BA691340BB613B685B6803F485
:103A90000033002B03D0BA693B691343BB611D4A55
:103AA000BB6953601B4B1B68BB613B69DB43BA6955
:103AB0001340BB613B685B6803F48033002B03D089
:103AC000BA693B691343BB61124ABB691360FB6966
:103AD0000133FB61FB690F2B7FF690AE00BF00BF87
:103AE0002437BD465DF8047B704700BF00380240B4
:103AF000003801400000024000040240000802407B
:103B0000000C024000100240001402400018024065
:103B1000001C0240003C014080B487B000AF7860D8
:103B2000396000233B610023FB600023BB6000235E
:103B30007B61CDE001227B6902FA03F33B613A68C5
:103B40003B691340FB60FA683B699A4240F0BD80D4
:103B5000654A7B699B08023352F82330BB607B695E
:103B600003F003039B000F2202FA03F3BA68134029
:103B7000BB607B685D4A93422BD07B685C4A934272
:103B800025D07B685B4A93421FD07B685A4A934298
:103B900019D07B68594A934213D07B68584A9342A4
:103BA0000DD07B68574A934207D07B68564A9342B0
:103BB00001D107230EE008230CE006230AE00523C9
:103BC00008E0042306E0032304E0022302E00123CB
:103BD00000E000237A6902F0030292009340BA6881
:103BE0009A4232D1494B1A68FB68DB43474913407C
:103BF0000B60464B5A68FB68DB43444913404B60FB
:103C0000424BDA68FB68DB4340491340CB603F4BD3
:103C10009A68FB68DB433D4913408B607B6903F086
:103C200003039B000F2202FA03F3BB602E4A7B6959
:103C30009B08023352F82310BB68DA432A487B6999
:103C40009B080A40023340F823207B681A687B698E
:103C50005B00032101FA03F3DB431A407B681A601F
:103C60007B69DA087B68083253F822107B6903F01D
:103C700007039B000F2202FA03F3DB437A69D208A1
:103C800019407B68083243F822107B68DA687B6948
:103C90005B00032101FA03F3DB431A407B68DA601F
:103CA0007B685A6801217B6901FA03F3DB431A4000
:103CB0007B685A607B689A687B695B00032101FA24
:103CC00003F3DB431A407B689A607B6901337B61B5
:103CD0007B690F2B7FF62EAF00BF00BF1C37BD46A0
:103CE0005DF8047B704700BF0038014000000240CF
:103CF0000004024000080240000C02400010024094
:103D00000014024000180240001C0240003C014028
:103D100080B485B000AF78600B467B807B681A6901
:103D20007B881340002B02D00123FB7301E00023AA
:103D3000FB73FB7B18461437BD465DF8047B704768
:103D400080B483B000AF78600B467B8013467B70F5
:103D50007B78002B03D07A887B689A6103E07B88AC
:103D60001A047B689A6100BF0C37BD465DF8047B7E
:103D7000704780B485B000AF78600B467B807B686D
:103D80005B69FB607A88FB6813401A04FB68D943BF
:103D90007B880B401A437B689A6100BF1437BD468D
:103DA0005DF8047B7047000080B582B000AF034629
:103DB000FB80084B5A69FB881340002B06D0054A4C
:103DC000FB885361FB881846FFF786F800BF083769
:103DD000BD4680BD003C014080B584B000AF786036
:103DE0007B68002B01D101232BE17B6893F83D30E8
:103DF000DBB2002B06D17B68002283F83C20786878
:103E0000FFF7F4F87B68242283F83D207B681B6869
:103E10001A687B681B6822F001021A607B681B68C5
:103E20001A687B681B6842F400421A607B681B6852
:103E30001A687B681B6822F400421A6001F052FF86
:103E4000F8607B685B68814A934207D8FB68804AC8
:103E5000934294BF01230023DBB206E0FB687D4A56
:103E6000934294BF01230023DBB2002B01D0012336
:103E7000E7E0FB68784AA2FB03239B0CBB607B68EE
:103E80001B685B6823F03F017B681B68BA680A43C4
:103E90005A607B681B681B6A23F03F017B685B6884
:103EA0006A4A934202D8BB68013309E0BB684FF409
:103EB000967202FB03F3694AA2FB03239B090133B9
:103EC0007A6812680B4313627B681B68DB6923F412
:103ED0004F4222F0FF027B685B685C498B4219D835
:103EE000FB68591E7B685B685B00B1FBF3F3591CF0
:103EF00040F6FC730B40002B0AD0FB68591E7B6810
:103F00005B685B00B1FBF3F30133C3F30B0351E0D8
:103F100004234FE07B689B68002B11D1FB68581E7F
:103F20007B6859680B465B000B44B0FBF3F301332D
:103F3000C3F30B03002B0CBF01230023DBB212E001
:103F4000FB68581E7B6859680B469B000B44990020
:103F50000B44B0FBF3F30133C3F30B03002B0CBF93
:103F600001230023DBB2002B01D0012322E07B6878
:103F70009B68002B0ED1FB68581E7B6859680B4666
:103F80005B000B44B0FBF3F30133C3F30B0343F4C7
:103F900000430FE0FB68581E7B6859680B469B0086
:103FA0000B4499000B44B0FBF3F30133C3F30B0351
:103FB00043F44043796809681343CB617B681B680D
:103FC0001B6823F0C0017B68DA697B681B6A1A43AF
:103FD0007B681B680A431A607B681B689B6823F434
:103FE000034323F0FF037A6811697A68D2681143AA
:103FF0007A6812680B4393607B681B68DB6823F068
:10400000FF017B685A697B689B691A437B681B6860
:104010000A43DA607B681B681A687B681B6842F099
:1040200001021A607B6800221A647B68202283F8F0
:104030003D207B6800221A637B68002283F83E20C3
:10404000002318461037BD4680BD00BFA086010082
:104050007F841E00FF083D0083DE1B43D34D6210AA
:1040600080B582B000AF78607B68002B01D101235E
:1040700021E07B68242283F83D207B681B681A6856
:104080007B681B6822F001021A607868FFF72AF843
:104090007B6800221A647B68002283F83D207B68DD
:1040A00000221A637B68002283F83E207B6800228E
:1040B00083F83C20002318460837BD4680BD000029
:1040C00080B588B002AFF8607A601A460B467B81F3
:1040D00013463B81FFF742FA7861FB6893F83D3065
:1040E000DBB2202B40F0E0807B6900931923012292
:1040F0007049F86800F03CFF0346002B01D0022312
:10410000D3E0FB6893F83C30012B01D10223CCE0D3
:10411000FB68012283F83C20FB681B681B6803F0E6
:104120000103012B07D0FB681B681A68FB681B683A
:1041300042F001021A60FB681B681A68FB681B6882
:1041400022F400621A60FB68212283F83D20FB689C
:10415000102283F83E20FB6800221A64FB687A680C
:104160005A62FB683A895A85FB685B8D9AB2FB6894
:104170001A85FB68504ADA6279897B693A6AF8687D
:1041800000F0F6FC0346002B01D001238DE0002354
:104190003B61FB681B685B693B61FB681B689B6953
:1041A0003B613B6966E07A69396AF86800F0FAFFBA
:1041B0000346002B0DD0FB681B6C042B07D1FB685A
:1041C0001B681A68FB681B6842F400721A600123BE
:1041D0006BE0FB685B6A1A78FB681B681A61FB6816
:1041E0005B6A5A1CFB685A62FB685B8D9BB2013BA1
:1041F0009AB2FB685A85FB681B8D013B9AB2FB683B
:104200001A85FB681B685B6903F00403042B1BD150
:10421000FB681B8D002B17D0FB685B6A1A78FB6864
:104220001B681A61FB685B6A5A1CFB685A62FB6870
:104230005B8D9BB2013B9AB2FB685A85FB681B8D74
:10424000013B9AB2FB681A857A69396AF86800F00E
:10425000F1FF0346002B0DD0FB681B6C042B07D12C
:10426000FB681B681A68FB681B6842F400721A60DE
:1042700001231AE0FB681B8D002B94D1FB681B689F
:104280001A68FB681B6842F400721A60FB682022FF
:1042900083F83D20FB68002283F83E20FB68002263
:1042A00083F83C20002300E0022318461837BD465F
:1042B00080BD00BF020010000000FFFF80B588B085
:1042C00002AFF860084611461A4603467B810B464A
:1042D0003B811346FB80FFF741F97861FB6893F857
:1042E0003D30DBB2202B40F0D9807B69009319234D
:1042F00001226D49F86800F03BFE0346002B01D017
:104300000223CCE0FB6893F83C30012B01D102235F
:10431000C5E0FB68012283F83C20FB681B681B6832
:1043200003F00103012B07D0FB681B681A68FB68C8
:104330001B6842F001021A60FB681B681A68FB6880
:104340001B6822F400621A60FB68212283F83D207A
:10435000FB68402283F83E20FB6800221A64FB6859
:104360003A6A5A62FB68BA8C5A85FB685B8D9AB2CE
:10437000FB681A85FB684D4ADA62F8883A897989C0
:104380007B690193BB6A00930346F86800F072FCF6
:104390000346002B52D0012381E07A69B96AF8689C
:1043A00000F000FF0346002B0DD0FB681B6C042BB4
:1043B00007D1FB681B681A68FB681B6842F400722F
:1043C0001A6001236BE0FB685B6A1A78FB681B6864
:1043D0001A61FB685B6A5A1CFB685A62FB681B8D9A
:1043E000013B9AB2FB681A85FB685B8D9BB2013B6F
:1043F0009AB2FB685A85FB681B685B6903F004038B
:10440000042B1BD1FB681B8D002B17D0FB685B6A4C
:104410001A78FB681B681A61FB685B6A5A1CFB68A8
:104420005A62FB681B8D013B9AB2FB681A85FB68D8
:104430005B8D9BB2013B9AB2FB685A85FB681B8D72
:10444000002BAAD17A69B96AF86800F0F3FE034636
:10445000002B0DD0FB681B6C042B07D1FB681B687D
:104460001A68FB681B6842F400721A60012316E0A8
:10447000FB681B681A68FB681B6842F400721A60CC
:10448000FB68202283F83D20FB68002283F83E2051
:10449000FB68002283F83C20002300E0022318463A
:1044A0001837BD4680BD00BF020010000000FFFFAE
:1044B00080B58CB002AFF860084611461A46034634
:1044C0007B810B463B811346FB80FFF747F8786200
:1044D000FB6893F83D30DBB2202B40F014827B6AFE
:1044E0000093192301227B49F86800F041FD03463F
:1044F000002B01D0022307E2FB6893F83C30012B2C
:1045000001D1022300E2FB68012283F83C20FB6812
:104510001B681B6803F00103012B07D0FB681B68B5
:104520001A68FB681B6842F001021A60FB681B688E
:104530001A68FB681B6822F400621A60FB6822227A
:1045400083F83D20FB68402283F83E20FB68002270
:104550001A64FB683A6B5A62FB68BA8E5A85FB682C
:104560005B8D9AB2FB681A85FB685B4ADA62F88851
:104570003A8979897B6A0193BB6B00930346F8689B
:1045800000F00EFC0346002B01D00123BCE1FB68C8
:104590001B8D002B13D100233B62FB681B685B69FA
:1045A0003B62FB681B689B693B623B6AFB681B685C
:1045B0001A68FB681B6842F400721A6090E1FB689D
:1045C0001B8D012B1BD1FB681B681A68FB681B68DD
:1045D00022F480621A600023FB61FB681B685B6940
:1045E000FB61FB681B689B69FB61FB69FB681B68DF
:1045F0001A68FB681B6842F400721A6070E1FB687D
:104600001B8D022B1BD1FB681B681A68FB681B689B
:1046100022F480621A60FB681B681A68FB681B68DA
:1046200042F400621A600023BB61FB681B685B698F
:10463000BB61FB681B689B69BB61BB6950E10023E0
:104640007B61FB681B685B697B61FB681B689B691E
:104650007B617B6944E1FB681B8D032B00F2F180D9
:10466000FB681B8D012B23D17A6AB96BF86800F0C7
:1046700029FE0346002B01D0012345E1FB681B689E
:104680001A69FB685B6AD2B21A70FB685B6A5A1CD3
:10469000FB685A62FB681B8D013B9AB2FB681A8566
:1046A000FB685B8D9BB2013B9AB2FB685A8517E1B0
:1046B000FB681B8D022B4ED17B6A0093BB6B0022E3
:1046C0000649F86800F054FC0346002B08D001238B
:1046D0001AE100BF020010000000FFFF040001000B
:1046E000FB681B681A68FB681B6842F400721A605A
:1046F000FB681B681A69FB685B6AD2B21A70FB68B8
:104700005B6A5A1CFB685A62FB681B8D013B9AB2BC
:10471000FB681A85FB685B8D9BB2013B9AB2FB6814
:104720005A85FB681B681A69FB685B6AD2B21A700B
:10473000FB685B6A5A1CFB685A62FB681B8D013B75
:104740009AB2FB681A85FB685B8D9BB2013B9AB2FB
:10475000FB685A85C4E07B6A0093BB6B00226C49FE
:10476000F86800F005FC0346002B01D00123CBE0E4
:10477000FB681B681A68FB681B6822F480621A6079
:10478000FB681B681A69FB685B6AD2B21A70FB6827
:104790005B6A5A1CFB685A62FB681B8D013B9AB22C
:1047A000FB681A85FB685B8D9BB2013B9AB2FB6884
:1047B0005A857B6A0093BB6B00225549F86800F06C
:1047C000D7FB0346002B01D001239DE0FB681B684B
:1047D0001A68FB681B6842F400721A60FB681B6869
:1047E0001A69FB685B6AD2B21A70FB685B6A5A1C72
:1047F000FB685A62FB681B8D013B9AB2FB681A8505
:10480000FB685B8D9BB2013B9AB2FB685A85FB68E3
:104810001B681A69FB685B6AD2B21A70FB685B6A34
:104820005A1CFB685A62FB681B8D013B9AB2FB68FD
:104830001A85FB685B8D9BB2013B9AB2FB685A8577
:104840004EE07A6AB96BF86800F03CFD0346002B35
:1048500001D0012358E0FB681B681A69FB685B6A9A
:10486000D2B21A70FB685B6A5A1CFB685A62FB681A
:104870001B8D013B9AB2FB681A85FB685B8D9BB26E
:10488000013B9AB2FB685A85FB681B685B6903F0C1
:104890000403042B24D1FB681B8D032B07D1FB6879
:1048A0001B681A68FB681B6822F480621A60FB6848
:1048B0001B681A69FB685B6AD2B21A70FB685B6A94
:1048C0005A1CFB685A62FB681B8D013B9AB2FB685D
:1048D0001A85FB685B8D9BB2013B9AB2FB685A85D7
:1048E000FB681B8D002B7FF4B6AEFB68202283F89B
:1048F0003D20FB68002283F83E20FB68002283F8FD
:104900003C20002300E0022318462837BD4680BD26
:104910000400010080B58AB002AFF8607A603B60A5
:104920000B467B81FEF71AFEF8610023BB61FB6832
:1049300093F83D30DBB2202B40F01181FB690093EE
:10494000192301228849F86800F012FB0346002B66
:1049500001D0022304E1FB6893F83C30012B01D124
:104960000223FDE0FB68012283F83C20FB681B6802
:104970001B6803F00103012B07D0FB681B681A6852
:10498000FB681B6842F001021A60FB681B681A682A
:10499000FB681B6822F400621A60FB68242283F81B
:1049A0003D20FB6800221A64FB68704ADA62FB68EB
:1049B0001B681A68FB681B6842F480721A60FB6906
:1049C00000933B6800224FF00111F86800F0D0FA24
:1049D0000346002B0DD0FB681B681B6803F4807333
:1049E000B3F5807F03D1FB684FF400721A64032390
:1049F000B6E07B89DBB21A46FB681B6802F0FE0258
:104A00001A61FEF7ABFDF861FB681B685B6903F098
:104A10000203022B0CBF01230023DBB2FB75FB68F2
:104A20001B685B6903F48063B3F5806F0CBF0123DF
:104A30000023DBB2BB7525E0FEF790FD0246FB6963
:104A4000D31A3A689A4202D33B68002B03D1FB6821
:104A5000A02283F83D20FB681B685B6903F002031A
:104A6000022B0CBF01230023DBB2FB75FB681B6824
:104A70005B6903F48063B3F5806F0CBF01230023EF
:104A8000DBB2BB75FB6893F83D30DBB2A02B05D0E1
:104A9000FB7D002B02D1BB7D002BCDD0FB682022FB
:104AA00083F83D20FB681B685B6903F00203022B5F
:104AB00029D1FB681B681A68FB681B6842F4007206
:104AC0001A6000233B61FB681B685B693B61FB6804
:104AD0001B689B693B613B69FB69009319230122B9
:104AE0002149F86800F044FA0346002B01D0012365
:104AF00036E0FB68202283F83D20FB68002283F823
:104B00003C2000232CE0FB681B681A68FB681B68CC
:104B100042F400721A60FB681B686FF480625A618D
:104B2000FB690093192301220F49F86800F020FA6D
:104B30000346002B01D0012312E0BB690133BB61A6
:104B4000BA697B689A42FFF432AFFB68202283F88F
:104B50003D20FB68002283F83C20012300E0022373
:104B600018462037BD4680BD020010000000FFFF40
:104B700080B588B002AFF8607A603B600B467B81FD
:104B8000FB68DB6A7B617B69082B06D07B69012BA4
:104B900003D07B6913F5803F08D1FB681B681A6856
:104BA000FB681B6842F480721A600BE0FB681B6BA9
:104BB000122B07D1FB681B681A68FB681B6842F45C
:104BC00080721A603B6800937B6800224FF00111ED
:104BD000F86800F0CDF90346002B0DD0FB681B6888
:104BE0001B6803F48073B3F5807F03D1FB684FF437
:104BF00000721A64032335E0FB681B69B3F5804F2C
:104C000008D17B89DBB21A46FB681B6802F0FE0202
:104C10001A611BE07B89DB11DBB203F00603DBB218
:104C200063F00F03DAB2FB681B681A613B687A68AD
:104C30000E49F86800F016FA0346002B01D0012354
:104C400010E07B89DAB2FB681B681A613B687A68FE
:104C50000749F86800F006FA0346002B01D001234B
:104C600000E0002318461837BD4680BD080001004B
:104C70000200010080B588B002AFF8600846114616
:104C80001A4603467B810B463B811346FB80FB683B
:104C90001B681A68FB681B6842F480721A607B6AA2
:104CA00000933B6A00224FF00111F86800F060F9B0
:104CB0000346002B0DD0FB681B681B6803F4807350
:104CC000B3F5807F03D1FB684FF400721A640323AD
:104CD0005FE07B89DBB21A46FB681B6802F0FE02CC
:104CE0001A617B6A3A6A2D49F86800F0BBF90346FD
:104CF000002B01D001234CE000237B61FB681B6883
:104D00005B697B61FB681B689B697B617B697A6A75
:104D1000396AF86800F046FA0346002B0DD0FB68AC
:104D20001B6C042B07D1FB681B681A68FB681B68A7
:104D300042F400721A6001232BE0FB88012B05D19D
:104D40003B89DAB2FB681B681A6121E03B891B0AC8
:104D50009BB2DAB2FB681B681A617A6A396AF86832
:104D600000F020FA0346002B0DD0FB681B6C042BCF
:104D700007D1FB681B681A68FB681B6842F4007265
:104D80001A60012305E03B89DAB2FB681B681A61EF
:104D9000002318461837BD4680BD00BF0200010041
:104DA00080B588B002AFF860084611461A4603463F
:104DB0007B810B463B811346FB80FB681B681A68AE
:104DC000FB681B6842F480621A60FB681B681A6803
:104DD000FB681B6842F480721A607B6A00933B6A2E
:104DE00000224FF00111F86800F0C2F80346002BD2
:104DF0000DD0FB681B681B6803F48073B3F5807FDC
:104E000003D1FB684FF400721A640323AAE07B8984
:104E1000DBB21A46FB681B6802F0FE021A617B6A6D
:104E20003A6A5249F86800F01DF90346002B01D098
:104E3000012397E000237B61FB681B685B697B6152
:104E4000FB681B689B697B617B697A6A396AF868D1
:104E500000F0A8F90346002B0DD0FB681B6C042B57
:104E600007D1FB681B681A68FB681B6842F4007274
:104E70001A60012376E0FB88012B05D13B89DAB269
:104E8000FB681B681A6121E03B891B0A9BB2DAB2FE
:104E9000FB681B681A617A6A396AF86800F082F95F
:104EA0000346002B0DD0FB681B6C042B07D1FB685D
:104EB0001B681A68FB681B6842F400721A600123C1
:104EC00050E03B89DAB2FB681B681A617A6A396A7A
:104ED000F86800F067F90346002B0DD0FB681B6CE7
:104EE000042B07D1FB681B681A68FB681B6842F437
:104EF00000721A60012335E0FB681B681A68FB68C2
:104F00001B6842F480721A607B6A00933B6A00223D
:104F10004FF00111F86800F02BF80346002B0DD07C
:104F2000FB681B681B6803F48073B3F5807F03D1B3
:104F3000FB684FF400721A64032313E07B89DBB231
:104F400043F00103DAB2FB681B681A617B6A3A6AB4
:104F50000649F86800F086F80346002B01D00123CB
:104F600000E0002318461837BD4680BD020001004E
:104F700080B584B000AFF860B9603B601346FB7148
:104F800048E03B68B3F1FF3F44D0FEF7E7FA024642
:104F9000BB69D31A3A689A4202D33B68002B39D1D5
:104FA000BB681B0CDBB2012B0DD1FB681B685B6976
:104FB000DA43BB6813409BB2002B0CBF01230023D4
:104FC000DBB21A460CE0FB681B689B69DA43BB68DE
:104FD00013409BB2002B0CBF01230023DBB21A4607
:104FE000FB799A4216D1FB6800221A63FB682022E3
:104FF00083F83D20FB68002283F83E20FB681B6C91
:1050000043F02002FB681A64FB68002283F83C200E
:10501000012323E0BB681B0CDBB2012B0DD1FB6825
:105020001B685B69DA43BB6813409BB2002B0CBF63
:1050300001230023DBB21A460CE0FB681B689B6966
:10504000DA43BB6813409BB2002B0CBF0123002343
:10505000DBB21A46FB799A4293D0002318461037E8
:10506000BD4680BD80B584B000AFF860B9607A609D
:105070003B6071E0FB681B685B6903F48063B3F518
:10508000806F23D1FB681B681A68FB681B6842F4B9
:1050900000721A60FB681B686FF480625A61FB68DB
:1050A00000221A63FB68202283F83D20FB6800225F
:1050B00083F83E20FB681B6C43F00402FB681A6413
:1050C000FB68002283F83C20012367E07B68B3F192
:1050D000FF3F41D0FEF742FA02463B68D31A7A6896
:1050E0009A4202D37B68002B36D1BB681B0CDBB223
:1050F000012B0CD1FB681B685B69DA43BB6813406A
:105100009BB2002B14BF01230023DBB20BE0FB6832
:105110001B689B69DA43BB6813409BB2002B14BF2A
:1051200001230023DBB2002B16D0FB6800221A6398
:10513000FB68202283F83D20FB68002283F83E2094
:10514000FB681B6C43F02002FB681A64FB680022BA
:1051500083F83C20012321E0BB681B0CDBB2012B50
:105160000CD1FB681B685B69DA43BB6813409BB2D8
:10517000002B14BF01230023DBB20BE0FB681B688C
:105180009B69DA43BB6813409BB2002B14BF012319
:105190000023DBB2002B7FF46DAF002318461037DD
:1051A000BD4680BD80B584B000AFF860B9607A605C
:1051B00034E0F86800F0E3F80346002B01D0012347
:1051C00034E0BB68B3F1FF3F28D0FEF7C7F90246D1
:1051D0007B68D31ABA689A4202D3BB68002B1DD1F0
:1051E000FB681B685B6903F08003802B16D0FB68AB
:1051F00000221A63FB68202283F83D20FB6800220E
:1052000083F83E20FB681B6C43F02002FB681A64A5
:10521000FB68002283F83C20012307E0FB681B6841
:105220005B6903F08003802BC3D10023184610373D
:10523000BD4680BD80B584B000AFF860B9607A60CB
:1052400034E0F86800F09BF80346002B01D00123FE
:1052500034E0BB68B3F1FF3F28D0FEF77FF9024688
:105260007B68D31ABA689A4202D3BB68002B1DD15F
:10527000FB681B685B6903F00403042B16D0FB6812
:1052800000221A63FB68202283F83D20FB6800227D
:1052900083F83E20FB681B6C43F02002FB681A6415
:1052A000FB68002283F83C20012307E0FB681B68B1
:1052B0005B6903F00403042BC3D1002318461037A5
:1052C000BD4680BD80B584B000AFF860B9607A603B
:1052D00049E0FB681B685B6903F01003102B19D1D0
:1052E000FB681B686FF010025A61FB6800221A63AA
:1052F000FB68202283F83D20FB68002283F83E20D3
:10530000FB681A6CFB681A64FB68002283F83C2077
:10531000012330E0FEF722F902467B68D31ABA680F
:105320009A4202D3BB68002B1DD1FB681B685B69E6
:1053300003F04003402B16D0FB6800221A63FB6881
:10534000202283F83D20FB68002283F83E20FB6882
:105350001B6C43F02002FB681A64FB68002283F890
:105360003C20012307E0FB681B685B6903F04003F6
:10537000402BAED1002318461037BD4680BD80B407
:1053800083B000AF78607B681B685B6903F480635F
:10539000B3F5806F1BD17B681B686FF480625A6124
:1053A0007B6800221A637B68202283F83D207B689B
:1053B000002283F83E207B681B6C43F004027B686C
:1053C0001A647B68002283F83C20012300E000235C
:1053D00018460C37BD465DF8047B704780B584B035
:1053E00000AF78607B68002B01D1012336E07B6839
:1053F0001B684CF6CC421A607B681B6845F255521C
:105400001A607B681B687A6852685A607B681B6800
:105410007A6892689A60FEF7A1F8F86011E0FEF7EA
:105420009DF80246FB68D31A41F60102934208D95F
:105430007B681B68DB6803F00303002B01D00323A8
:105440000CE07B681B68DB6803F00303002BE6D1EC
:105450007B681B684AF6AA221A6000231846103798
:10546000BD4680BD80B483B000AF78607B681B68A8
:105470004AF6AA221A60002318460C37BD465DF88A
:10548000047B704780B586B000AF78607B68002BE6
:1054900001D1012367E27B681B6803F00103002B45
:1054A00075D0884B9B6803F00C03042B0CD0854B04
:1054B0009B6803F00C03082B12D1824B5B6803F44A
:1054C0008003B3F5800F0BD17E4B1B6803F40033D0
:1054D000002B5BD07B685B68002B57D1012342E235
:1054E0007B685B68B3F5803F06D1764B1B68754AD5
:1054F00043F4803313601DE07B685B68B3F5A02F35
:105500000CD1704B1B686F4A43F4802313606D4BC2
:105510001B686C4A43F4803313600BE0694B1B68D3
:10552000684A23F480331360664B1B68654A23F492
:10553000802313607B685B68002B13D0FEF70EF8A6
:10554000386108E0FEF70AF802463B69D31A642B7B
:1055500001D9032307E25B4B1B6803F40033002BE4
:10556000F0D014E0FDF7FAFF386108E0FDF7F6FF30
:1055700002463B69D31A642B01D90323F3E1514B53
:105580001B6803F40033002BF0D100E000BF7B6800
:105590001B6803F00203002B63D04A4B9B6803F0A7
:1055A0000C03002B0BD0474B9B6803F00C03082B1C
:1055B0001CD1444B5B6803F48003002B16D1414B94
:1055C0001B6803F00203002B05D07B68DB68012B0E
:1055D00001D00123C7E13B4B1B6823F0F8027B6835
:1055E0001B69DB00374913430B603AE07B68DB68DB
:1055F000002B20D0344B01221A60FDF7AFFF386139
:1056000008E0FDF7ABFF02463B69D31A022B01D934
:105610000323A8E12B4B1B6803F00203002BF0D0FF
:10562000284B1B6823F0F8027B681B69DB002549C7
:1056300013430B6015E0244B00221A60FDF78EFF28
:10564000386108E0FDF78AFF02463B69D31A022B56
:1056500001D9032387E11B4B1B6803F00203002BD6
:10566000F0D17B681B6803F00803002B36D07B6801
:105670005B69002B16D0154B01221A60FDF76EFFF7
:10568000386108E0FDF76AFF02463B69D31A022B36
:1056900001D9032367E10B4B5B6F03F00203002B7F
:1056A000F0D01BE0094B00221A60FDF757FF38616C
:1056B0000EE0FDF753FF02463B69D31A022B07D9D0
:1056C000032350E10038024000004742800E474269
:1056D000884B5B6F03F00203002BEAD17B681B68E9
:1056E00003F00403002B00F097800023FB75814B2F
:1056F0001B6C03F08053002B0FD10023BB607D4B4C
:105700001B6C7C4A43F0805313647A4B1B6C03F090
:105710008053BB60BB680123FB75774B1B6803F4A8
:105720008073002B18D1744B1B68734A43F4807349
:105730001360FDF713FF386108E0FDF70FFF024625
:105740003B69D31A022B01D903230CE16A4B1B6876
:1057500003F48073002BF0D07B689B68012B06D18B
:10576000644B1B6F634A43F0010313671CE07B68C3
:105770009B68052B0CD15F4B1B6F5E4A43F0040303
:1057800013675C4B1B6F5B4A43F0010313670BE02D
:10579000584B1B6F574A23F001031367554B1B6F80
:1057A000544A23F0040313677B689B68002B15D0D1
:1057B000FDF7D4FE38610AE0FDF7D0FE02463B69F2
:1057C000D31A41F28832934201D90323CBE0494BEB
:1057D0001B6F03F00203002BEED014E0FDF7BEFEBA
:1057E00038610AE0FDF7BAFE02463B69D31A41F27E
:1057F0008832934201D90323B5E03E4B1B6F03F07F
:105800000203002BEED1FB7D012B05D1394B1B6C24
:10581000384A23F0805313647B689B69002B00F0A7
:10582000A180344B9B6803F00C03082B5CD07B6891
:105830009B69022B41D1314B00221A60FDF78EFE8D
:10584000386108E0FDF78AFE02463B69D31A022B55
:1058500001D9032387E0274B1B6803F00073002B5B
:10586000F0D17B68DA697B681B6A1A437B685B6AE4
:105870009B011A437B689B6A5B08013B1B041A432C
:105880007B68DB6A1B061B4913434B601B4B0122E1
:105890001A60FDF763FE386108E0FDF75FFE02461F
:1058A0003B69D31A022B01D903235CE0114B1B681F
:1058B00003F00073002BF0D054E0104B00221A606C
:1058C000FDF74CFE386108E0FDF748FE02463B69F3
:1058D000D31A022B01D9032345E0064B1B6803F0C2
:1058E0000073002BF0D13DE07B689B69012B07D151
:1058F000012338E000380240007000406000474259
:105900001B4B5B68FB607B689B69012B28D0FB68A5
:1059100003F480027B68DB699A4221D1FB6803F0C3
:105920003F027B681B6A9A421AD1FA6847F6C07335
:1059300013407A68526A9201934211D1FB6803F4D2
:1059400040327B689B6A5B08013B1B049A4207D18B
:10595000FB6803F070627B68DB6A1B069A4201D029
:10596000012300E0002318461837BD4680BD00BF64
:105970000038024080B584B000AF786039607B6841
:10598000002B01D10123CCE0684B1B6803F0070317
:105990003A689A420CD9654B3A68D2B21A70634B96
:1059A0001B6803F007033A689A4201D00123B8E06C
:1059B0007B681B6803F00203002B20D07B681B6808
:1059C00003F00403002B05D0594B9B68584A43F45D
:1059D000E05393607B681B6803F00803002B05D03D
:1059E000534B9B68524A43F460439360504B9B680F
:1059F00023F0F0027B689B684D4913438B607B6802
:105A00001B6803F00103002B44D07B685B68012B0B
:105A100007D1474B1B6803F40033002B19D1012336
:105A20007FE07B685B68022B03D07B685B68032B9D
:105A300007D13F4B1B6803F00073002B09D10123F2
:105A40006FE03B4B1B6803F00203002B01D10123E5
:105A500067E0374B9B6823F003027B685B6834493F
:105A600013438B60FDF77AFDF8600AE0FDF776FDE1
:105A70000246FB68D31A41F28832934201D90323CC
:105A80004FE02B4B9B6803F00C027B685B689B002C
:105A90009A42EBD1254B1B6803F007033A689A4200
:105AA0000CD2224B3A68D2B21A70204B1B6803F01A
:105AB00007033A689A4201D0012332E07B681B68F1
:105AC00003F00403002B08D0194B9B6823F4E05229
:105AD0007B68DB68164913438B607B681B6803F0A7
